:020000040800F2
:10000000980C0020DD010008E1010008E301000870
:10001000E5010008E7010008E90100080000000010
:10002000000000000000000000000000EB010008DC
:10003000ED01000800000000EF010008F1010008D8
:10004000F3010008F3010008F3010008F3010008C0
:10005000F3010008F3010008F3010008F3010008B0
:10006000F3010008F3010008F3010008F3010008A0
:10007000F3010008F3010008F3010008F301000890
:10008000F3010008F3010008F3010008F301000880
:10009000F3010008F3010008F3010008F301000870
:1000A000F3010008491F0008F3010008F3010008EC
:1000B000F3010008F3010008F3010008F301000850
:1000C000F3010008F3010008F3010008F301000840
:1000D000F3010008F3010008F30100081D0E0008F9
:1000E000F3010008F3010008F301000800F002F832
:1000F00000F05FF80AA090E8000C82448344AAF163
:100100000107DA4501D100F054F8AFF2090EBAE860
:100110000F0013F0010F18BFFB1A43F0010318473B
:1001200038920000589200000A444FF0000C10F87A
:10013000013B13F0070408BF10F8014B1D1108BF65
:1001400010F8015B641E05D010F8016B641E01F805
:10015000016BF9D113F0080F1EBF10F8014BAD1C55
:100160000C1B09D16D1E58BF01F801CBFAD505E073
:1001700014F8016B01F8016B6D1EF9D59142D6D3CD
:10018000704700000023002400250026103A28BFF5
:1001900078C1FBD8520728BF30C148BF0B607047F9
:1001A000642905F08185002070471FB51FBD10B57B
:1001B00010BD05F047FF1146FFF7F7FF00F02AF8E2
:1001C00005F065FF03B4FFF7F2FF03BC00F04CFA43
:1001D00030BF72B662B680F308887047084800479F
:1001E000FEE7FEE7FEE7FEE7FEE7FEE7FEE7FEE7E7
:1001F000FEE7FEE703480449044A054B7047000048
:10020000ED00000898060020980C002098080020B7
:1002100098080020092000F0CEF9482000F06EF880
:10022000022000F0B3F9012000F0B0F900F08EFADE
:1002300000F0C2FA00F0B3FC4FF4E131482000F0C6
:1002400022FA4FF41651242000F076FD00F0C2FE91
:10025000002141F61F4000F0EBFF01F03FF801F0F4
:1002600074F801F0E5F805F002F905F014F941F62B
:100270001F41312000F09CFF2CE017480078012836
:1002800013D105F06BF91548006815490860154948
:10029000B1F9020007F012FA134908601149B1F9E7
:1002A000040007F00BFA1149086011480078012892
:1002B00003D00948007801280CDD05F088FA0D49C3
:1002C00008600D480078012802D105F0CBFA01E062
:1002D00005F0D9FBD1E70000000000202801002034
:1002E0002000002018010020240000202800002009
:1002F0000500002018000020060000204FF0E0213B
:10030000096921F004014FF0E0221161C21700EBEE
:100310005272C2F3C702234B1A701946097801EBD7
:100320004102C2EBC1114FF6FF7202EAC1011E4A3F
:100330001180704701461B4A12784A434FF0E02370
:100340005A6100229A6101221A6100BF4FF0E02237
:10035000106900F001021AB100F48032002AF5D0D1
:1003600000224FF0E0231A619A61704701460E4A5D
:1003700012884A434FF0E0235A6100229A61012219
:100380001A6100BF4FF0E022106900F001021AB1BB
:1003900000F48032002AF5D000224FF0E0231A61E9
:1003A0009A6170473000002032000020A34A0A40C2
:1003B0000243A34B1A6070470146072323EA010258
:1003C00012029F4B1B1D18684FF6FF0318409D4BF0
:1003D000184310439A4B1B1D186070472DE9F041DC
:1003E0000746884614461D462846FFF7E5FFC5F137
:1003F000040007FA00F60F20284100EA080006432F
:1004000006F00F06E21704EBD2625211920002F1DD
:10041000E022D2F800212146E31704EBD3635B11FD
:10042000A4EB431C012303FA0CF31A432046E31701
:1004300004EBD3635B119B0003F1E023C3F80021BD
:100440008148005D40EA06107F490855BDE8F0810B
:1004500070B504460B46CE1701EB9676C6F38700BF
:10046000CE1701EB9676B610A1EB8606B606350ED2
:10047000764B9B6943F00103744EB3614FEAB63388
:1004800053F820300F26AE40B343714E46F820306B
:10049000334653F8203004FA05F61E436C4B43F8FC
:1004A00020606C4B1B6801268E403343694E3360DD
:1004B00002F0010343B1674B0C331B6801268E40E9
:1004C0003343644E0C36336002F0020343B1614B98
:1004D00008331E6801238B401E435E4B08331E60A9
:1004E00070BD00B5002059490861C86014204861FA
:1004F00000208861C8610846006840F0010008607B
:100500000846406854490840504948600846006819
:10051000524908404D4908600846006820F4802090
:1005200008600846406820F4FE00486000208860AB
:1005300000214FF00060FFF739FF00BD10B54048C3
:100540000830006840F004003D49083108603F4829
:10055000C06940F080503D49C8614148406840F45E
:1005600080703F4948600846006840F00400086019
:100570000846006840F002000860FFF729FE10BD41
:100580003048001D2E49091D086070470146490684
:100590002E4A926942F001022C4B9A612C4A083A89
:1005A000526822F0E0622A4B083B5A601A465268B1
:1005B0000A435A60704730B504460025FFF791FFA3
:1005C0002248006840F480302049086000BF1F487E
:1005D0000068400C0028FAD04FF480601B49486046
:1005E000A01EC4B20846406840EA844048600846FD
:1005F000406840F4803048601A48006840F032009B
:10060000184908601148006840F080700F49086080
:1006100000BF0E480068400E0028FAD00B48406822
:1006200040F002000949486005E008484068C0F30E
:10063000870505F00305022DF7D130BD80FFFF1FB0
:1006400008ED00E00000FA0500E400E000100240C0
:1006500008000140000401400000FFF8FFFFF6FE23
:100660000070004000200240014600BF704700BFFC
:10067000324A128802F04002002AF9D0C2B22F4B4F
:100680001B1D1A8070472DE9F05F05460E463001AC
:1006900007F02CF881462A4905FB01F007F026F8FF
:1006A0008246494606F0D8FE0746384606F0E6FF81
:1006B00084B2204607F01AF88346394607F05BF902
:1006C00082464FF0834107F059F8814606F0D6FF85
:1006D00080464FF6FF7000EA041404EB080084B271
:1006E0001848806940F0040016498861084680690E
:1006F00040F4804088611448006820F47F6012490B
:1007000008600846006840F40B6008600D48C06847
:1007100040F480400B49C8600846C06820F480401F
:10072000C860064808300480001D008842F20C01B1
:10073000084302490C310880BDE8F09F00380140B1
:1007400040420F0000100240040801401548806933
:1007500040F00800134988611348006820F00F003A
:10076000114908600846006840F0030008600E4820
:100770000830006840F480700B4908310860704709
:100780000A490968491C094A1160814208D108498F
:100790000968C943074AC2F8A0110021034A116041
:1007A0007047000000100240040C01403800002097
:1007B000A0812142008021423748806940F0080032
:1007C000354988613548006820F470003349086075
:1007D0000846006840F40000086030480C300068AB
:1007E00040F020002D490C310860704701462C482C
:1007F000006828B92B48007810B90120294A1070E8
:1008000029480078B0B927480078012807D127483F
:100810000078401C254A10700120234A107023489C
:100820000078022806D10020204A1070204A10804B
:10083000022070471A480068012804D10020194A94
:100840001070194A10701948007801280ED1184804
:100850000088401C80B2164A1080884206DD0020C5
:10086000124A1070124A10800120E2E70020E0E7EF
:100870001048007838B10A48006820B900200D49B6
:1008800008700120704706480068012801D1094915
:1008900008700020F6E7000000100240000C014044
:1008A000148121423C0000203D0000203E00002039
:1008B000400000204200002010B50A461AB1012372
:1008C000FE4C236002E00023FC4C2360002114E076
:1008D0000023FB4C236000F080031BB10123241F85
:1008E000236003E00023F64C241F23600123F44C13
:1008F00023604306180E4B1CD9B20829E8DB0123FC
:10090000EE4C236010BD30B500241CE004F1B001B2
:10091000C8B20021FFF7D0FF00210846FFF7CCFF47
:1009200000211020FFF7C8FF002508E0E54901EB92
:10093000C501085D0121FFF7BFFF681CC5B2802D0E
:10094000F4DB601CC4B2082CE0DB30BD00B5002134
:100950008D20FFF7B1FF00211420FFF7ADFF00212C
:10096000AF20FFF7A9FF00BD00B500218D20FFF7E4
:10097000A3FF00211020FFF79FFF0021AE20FFF70B
:100980009BFF00BD30B500240CE0002506E00020F0
:10099000CC4901EBC5010855681CC5B2802DF6DBBA
:1009A000601CC4B2082CF0DBFFF7ADFF30BDF0B522
:1009B000144600267F2801DC3F2900DDF0BD0B46F0
:1009C000CF1701EB5777FF10C7F10707FAB2CF1720
:1009D00001EB5777FF10A1EBC707FDB2C5F1070781
:1009E0000123BB40DEB24CB1B64B03EBC0039B5CB2
:1009F0003343B44F07EBC007BB5408E0B14B03EBE4
:100A0000C0039B5CB343AF4F07EBC007BB5400BFB1
:100A1000D4E72DE9F04F80460C4615461E46A34606
:100A2000A5F12000C5B200273EE00C2E07D105EB52
:100A30004500A54901EB800010F8079004E0A348A9
:100A400000EB051010F807904FF0000A26E009F0BF
:100A5000800028B121464046099AFFF7A8FF09E027
:100A6000099808B9012000E00020024621464046CE
:100A7000FFF79DFF4FEA49604FEA1069601CC4B25E
:100A8000A4EB0B00B04205D15C4608F1010000F078
:100A9000FF0806E00AF1010000F0FF0ABAF1080FB2
:100AA000D5DB00BF781CC7B2B742BEDBBDE8F08F14
:100AB00010B50246012000E050430B00A1F10104F3
:100AC000E1B2F9D110BD2DE9FF4F81B00746914643
:100AD0001E460E9D4FF0000A002439E0301B401ED8
:100AE000C1B20A20FFF7E4FFB9FBF0F00A21B0FB26
:100AF000F1F201FB1208BAF1000F16D1701EA042EC
:100B000013DDB8F1000F0ED10120AB4605EBDB7110
:100B1000491001FB04710090C8B22B4620220299B3
:100B2000FFF777FF12E04FF0010A0120AB4605EB1B
:100B3000DB71491001FB04710090C8B208F130016B
:100B4000CAB22B460299FFF764FF00BF601CC4B213
:100B5000B442C3DB05B0BDE8F08F78B505460E465C
:100B6000144618E07A2D03DD002506F11000C6B208
:100B70003A2E04DD002005460646FFF703FF01205C
:100B8000009022780C2331462846FFF742FF05F1FA
:100B90000800C5B2641C20780028E3D178BD10B5E8
:100BA0004B48806940F0080049498861494800681D
:100BB00020F0F000474908600846006840F0200037
:100BC00008604348806940F0100041498861084648
:100BD000806940F0010088613F484068C0F313001D
:100BE0003D494860084640683C4908433A494860E6
:100BF0003B48006840F48070394908603448006A16
:100C000020F00100324908623648008820F00100D7
:100C1000344908803248006820F480703049086008
:100C200000202749083908606420FFF79FFB012056
:100C30002D49C1F8B4010021AE20FFF73DFE00218F
:100C4000D520FFF739FE00215020FFF735FE0021A7
:100C5000A820FFF731FE00213F20FFF72DFE0021E5
:100C6000D320FFF729FE00210846FFF725FE0021CB
:100C70004020FFF721FE00218D20FFF71DFE0021FF
:100C80001420FFF719FE00212020FFF715FE002198
:100C90000220FFF711FE0021A120FFF70DFE002129
:100CA000C020FFF709FE0021DA20FFF705FE002132
:100CB0001220FFF701FE0021812017E0A4812142CC
:100CC000BC01224254010020667B0008DA7F000844
:100CD00000100240040C01400010014000002022DE
:100CE00000700040306C004000002242FFF7E4FD3D
:100CF0000021EF20FFF7E0FD0021D920FFF7DCFD08
:100D00000021F120FFF7D8FD0021DB20FFF7D4FD03
:100D100000213020FFF7D0FD0021A420FFF7CCFDFB
:100D20000021A620FFF7C8FD0021AF20FFF7C4FD7A
:100D3000FFF728FE10BD00002DE9F05F05460E46C6
:100D4000300106F0D3FC8146954905FB01F006F021
:100D5000CDFC8246494606F07FFB0746384606F042
:100D60008DFC84B2204606F0C1FC8346394606F06D
:100D700002FE82464FF0834106F000FD814606F0F8
:100D80007DFC80464FF6FF7000EA041404EB080077
:100D900084B28448806940F008008249886108462E
:100DA000C06940F48020C8617F48006820F47F401B
:100DB0007D4908600846006840F40B4008607A48A6
:100DC0000830006840F48060774908310860754851
:100DD000006940F48020734908610846006920F4E6
:100DE0008020086171480480001D008842F20C01D7
:100DF00008436E49091D08800846008840F4807049
:100E000008800846008840F020000880022327223E
:100E100003210846FFF7E2FABDE8F09F634808386F
:100E2000008800F02000002874D06048001F00886F
:100E30005F490860084600680A2803DA0846007817
:100E40005C4908705B4800785B490978884211D199
:100E5000584840785849497888420BD1554880789D
:100E600055498978884205D15248C0785249C97895
:100E7000884217D04F4800785049097888421FD1DE
:100E80004C4840784D494978884219D14948807882
:100E90004A498978884213D14648C0784749C97879
:100EA00088420DD14648007808B9012000E00020B2
:100EB0004349087000203F49087048708870C87026
:100EC0003B48006840B900203E4908703E49087020
:100ED0003E4908703E49087035480068052809D128
:100EE00001203849087000203749087037490870D8
:100EF000374908702E48006801280CD1002031497C
:100F000008700120304908700020304908703049CD
:100F100008702EE043E026480068062807D02448E1
:100F20000068072803D02248006808280AD100205A
:100F30002449087024490870244908700120244974
:100F4000087016E01A480068022807D018480068A0
:100F5000032803D01648006804280AD10020194944
:100F600008701949087001201849087000201849B4
:100F70000870104880790F49C87108464079887117
:100F80000846007948710846C0780871084680789C
:100F9000C8700846407888700846007848707047E6
:100FA00040420F0000100240040C0140084800407D
:100FB0005800002045000020510000204D00002076
:100FC0000500002001000020020000200300002096
:100FD000040000206D48806940F004006B4988617E
:100FE0006B48006820F47020694908606748806990
:100FF00040F40070654988610846C06840F400709C
:10100000C8600846C06820F40070C86008464068A0
:1010100020F4404048600846406840F40040486082
:101020005C4800685C4908405A4908600846006806
:1010300008600846006820F480700860081D006899
:1010400020F00200091D08600846006820F46020B6
:1010500008600846006840F46020086008460068A0
:1010600040F4801008600846006820F400600860C2
:1010700048482830006820F470004649283108604C
:10108000084600680020086042480C30006820F4E0
:10109000702040490C3108600846006840F4E04088
:1010A00008603C48001D006840F001003949091DF6
:1010B00008600846006840F00800086000BF354836
:1010C000001D006800F008000028F8D13148001D1C
:1010D000006840F004002F49091D086000BF2D483A
:1010E000001D006800F004000028F8D17047014698
:1010F00028483030006820F01F00264A3032106047
:1011000010460068084310602248001D006840F443
:101110008000204A121D106000BF1E48001F00689A
:1011200000F002000028F8D01A484830006880B269
:1011300070472DE9F04F87B00420FFF7D8FF0190EA
:1011400005F0C7FD80464FF06632144B05F010FEE7
:101150000022134BCDE9020105F00AFE0022114BDB
:10116000CDE9040105F004FE064600220E4B05F011
:1011700029FC044600220D4B05F024FC824605F0B4
:1011800079FD0690069807B0BDE8F08F0010024088
:101190000008014004240140FFFFF00066660A4099
:1011A00000002740000059400000F83F0000B04018
:1011B00070B505460C461348806940F4006011493B
:1011C000886111480580001F04800F48203800887E
:1011D00040F001000C49203908800846008840F0A2
:1011E0004000088008482C38008840F0010006497B
:1011F0002C3908800223192203210120FFF7EEF881
:1012000070BD0000001002402C2C01402F48806966
:1012100040F008002D4988612D48006880B22C49B3
:101220000860084600682B49084329490860704750
:1012300000B503460A46FFF7E9FF2448C06940F0BD
:1012400002002249C8610846806940F008008861B0
:101250001F48001F006820F0FF001D49091F08609B
:101260000846006840F0BB0008601B480380001F70
:10127000028019481038008840F4C04016491039DF
:1012800008800846008840F0600008800846008812
:1012900040F4006008800846008840F0080008809C
:1012A000081D008840F48050091D08800846008809
:1012B00040F480700880C81307492C39088008461C
:1012C000008840F00100088000BD000000100240CE
:1012D000040C0140000022222C0400404F48C06949
:1012E00040F001004D49C8610846806940F00400A3
:1012F00088614B48006820F0FF00494908600846B3
:10130000006840F0440008600020C90408854FF6DA
:10131000FE7088850846008B40F00100088308466F
:10132000008B40F4807008830846008C08840846CF
:10133000008C08840846008940F0030008810846B4
:10134000008840F00100088070473448C06940F0D0
:1013500004003249C8610846806940F0080088618D
:101360003048006820F07F402E4908600846006839
:1013700040F08840086000202B4908804FF6FE703E
:10138000091D088028481038008840F001002649CF
:10139000103908800846008840F480700880224890
:1013A00008380088204908390880084600880880E5
:1013B0001D482038008840F003001B492039088070
:1013C00019482838008840F001001749283908805A
:1013D00070470146022904D003290BD0042919D1F2
:1013E0000FE04FF08042928C10B200224FF0804309
:1013F0009A8411E00D4A128810B200220B4B1A8019
:101400000AE0094A121F128810B20022064B1B1F65
:101410001A8001E0002000BF00BF704700100240AA
:1014200000080140000C014028080040240400404E
:10143000F948806940F00400F7498861F74800687E
:101440004FF20F018843F54908600846006843F2EF
:1014500003010843F1490860704710B5EF48006880
:1014600020F00F00ED4908600846006840F00300D6
:1014700008600120EA490860EA48D0F8200108B96C
:10148000002010BD0120E6490C310860FEF752FF34
:101490000020E449C1F8A001E1488038006808B1A3
:1014A0000020EEE70120FEF745FF0020DC490C316B
:1014B00008600120E5E710B5D848006820F00F006B
:1014C000D64908600846006840F003000860002024
:1014D000D3490C310860D349C1F8A0010120FEF7BF
:1014E00029FF0120CE490C310860CE49C1F8A00186
:1014F000FEF720FF10BD10B50024C848006820F09A
:101500000F00C64908600846006840F008000860FF
:101510000120C3490860FEF70DFF0120C149C1F851
:10152000AC01FEF707FF0AE0601CC4B2322C03DDF9
:10153000FFF7C1FF002010BD0120FEF7FBFEB848F9
:10154000803800680028EFD1B5490C3108600120CF
:10155000F1E710B50020B2490C310860AF480068CF
:1015600020F00F00AD4908600846006840F0030015
:1015700008600020AB49C1F8A0010120FEF7DAFEA7
:101580000120A7490C310860FEF7D4FE0020A549D0
:10159000C1F8AC0110BD10B50020A1490C310860A4
:1015A0009E48006820F00F009C49086008460068CB
:1015B00040F00300086001209A49C1F8A001FEF73D
:1015C000B9FE012096490C310860FEF7B3FE0020F9
:1015D0009449C1F8AC0110BD70B504468F4800684D
:1015E00020F00F008D4908600846006840F00300B5
:1015F000086000208A490C310860002516E0E009E7
:10160000874908606006040E0120FEF793FE012062
:101610008449C1F8AC01FEF78DFE002080490C31F1
:1016200008600120FEF786FE681CC5B2082DE6DBC7
:1016300070BD2DE9F04105460E4617469846FFF766
:101640000CFF10B90120BDE8F0816906080EFFF714
:10165000C3FFFFF750FF18B9FFF72DFF0120F2E796
:101660003046FFF7B9FFFFF746FF00240BE018F8FC
:101670000400FFF7B1FFFFF73EFF18B9FFF71BFFAC
:101680000020E0E7641CBC42F1DBFFF714FF002000
:10169000D9E770B5054600246048006820F00F00C7
:1016A0005E4908600846006840F0080008600026AF
:1016B00017E000205A490C3108600220FEF73AFE7C
:1016C00001205849C1F8AC016006040E5448803826
:1016D000006808B1601CC4B20220FEF72BFE701C2B
:1016E000C6B2082EE5DB15B1FFF733FF01E0FFF7C7
:1016F00052FF204670BD2DE9F04106460F461446C4
:101700001D46FFF7AAFE10B90120BDE8F081710661
:10171000080EFFF761FFFFF7EEFE18B9FFF7CBFEEB
:101720000120F2E73846FFF757FFFFF7E4FEFFF727
:1017300094FE012101EB4601C8B2FFF74DFFFFF710
:10174000DAFE0DE0012C04D10020FFF7A2FF287083
:1017500003E00120FFF79DFF28706D1C601EC4B2DE
:10176000002CEFD1FFF7A7FE0020CEE770B50546AD
:101770000E460024FFF771FE2846FFF72DFF641C7C
:10178000FFF7B9FE3046FFF727FF641CFFF7B3FEF3
:10179000FFF763FE691CC8B2FFF71EFF641CFFF76A
:1017A000AAFE0020FFF775FF0446FFF784FE2046DF
:1017B00070BD2DE9F0410746884615461E460024B7
:1017C000FFF74BFE3846FFF707FFFFF794FE404652
:1017D000FFF702FFFFF78FFEFFF73FFE791CC8B24D
:1017E000FFF7FAFEFFF787FE00BF0DE0681EA0427C
:1017F00004D00120FFF74DFF305503E00020FFF734
:1018000048FF3055601CC4B2AC42EFDBFFF753FE1B
:101810002046BDE8F08100000010024004080140AD
:10182000A0012142000021422DE9F04180460D46F1
:1018300016461F460024FFF710FE4046FFF7CCFE79
:10184000FFF759FE2846FFF7C7FEFFF754FE00BF1B
:1018500006E0385DFFF7C0FEFFF74DFE601CC4B226
:10186000B442F6DBFFF727FE0120BDE8F08170B53A
:1018700005460E46144631462846FFF777FF20708E
:10188000012070BD37B504460D4602AB0122294642
:101890002046FFF7C9FF3EBD2DE9F84307468846BD
:1018A00014461D46089E6A4641463846FFF7DFFF4C
:1018B00028B3601CFF2101FA00F0C4F1080129449B
:1018C000491EFF220A41104300F0FF09C5F108003C
:1018D00006FA00F0C6B2C4F1070006419DF8000008
:1018E00000EA090000909DF80000304300909DF848
:1018F000002041463846FFF7C5FFBDE8F8830020C9
:10190000FBE7F8B506460F4614461D466A463946BB
:101910003046FFF7ACFF2DB10120A0409DF800102C
:10192000084305E00120A0409DF8001021EA0000D6
:10193000C0B200909DF8002039463046FFF7A2FF64
:10194000F8BD00000146002901DA484200E00846DF
:10195000704700B503460A46002B07DD0120FE490B
:1019600008600020FD49C1F8B80106E00020FA49EE
:1019700008600120F949C1F8B8011846FFF7E2FFF5
:10198000F7490880002A08DD0020F349083908607B
:101990000120F249C1F8B00107E00120EE49083901
:1019A00008600020ED49C1F8B0011046FFF7CAFFFA
:1019B000EB49091F088000BD70B505460E46E94990
:1019C000284605F0A7FE0ED3E749284605F0A2FFFA
:1019D00009D3E6480078012805D0E548006840F2C0
:1019E000564188420EDA01240020DB49091F0860B5
:1019F000DA49C1F8BC01D84908390860D749C1F8AB
:101A0000B00100E00024204670BD41F6BC30D94949
:101A100009684242914202DA4142D64A1160D549F0
:101A20000968814201DDD3490860D349096842420F
:101A3000914202DA4142D04A1160CF49096881429D
:101A400001DDCD49086070472DE9FF5F05460E4670
:101A50009146CA4CCA480078012803D0C94800788A
:101A6000012833D14FF07E51C748006805F086FC4D
:101A7000C549074608604FF07E5105F0AFFD07D11C
:101A8000A819FFF75FFF074605F018FEBF49086079
:101A9000BE480168BE4805F0DFFCBE490860084644
:101AA000006805F03FFC0746BB4ABC4B05F024F933
:101AB00002D2BB48B7490860BA49B648006805F089
:101AC00029FF0BD2B748B349086007E0B448B149D1
:101AD00008600020AC490860AC490860A84800785C
:101AE000012808D1AB480168AF48006805F046FC02
:101AF000AD4908600FE0A3480078012808D1A54847
:101B00000168A948006805F041FFA749086002E0A4
:101B10000020A54908602146A348006805F0FAFEA8
:101B200001D2A148046084F000479F48016838460C
:101B300005F0F0FE03D284F000409B49086048465F
:101B400005F0F0FB07464FF03332984B05F010F9E3
:101B500082468B469448006880F00048944940468D
:101B600005F00CFE074605F0DDFB52465B46CDE96D
:101B7000000105F0EDFACDE9020104F035FE8D49D2
:101B800008600846006805F05DFD04B0BDE8F09F00
:101B90002DE9FC5F7E4801908748009087480078D7
:101BA000012803D18648874908600AE08648007802
:101BB000012803D185488349086002E0002081495B
:101BC000086083490968834A12681144084605F091
:101BD00075FD814908608148006805F0A3FB064651
:101BE0004FF066327E4B05F0C3F8044604F0FCFD6E
:101BF0007A4908607848006805F094FB80464FF009
:101C00003332784B05F0B4F804460D46734800684B
:101C100005F088FB064622462B4604F017FE824656
:101C200004F0E2FD6D490860084601686E480068EE
:101C300005F0A4FB6C490860624801686A480068C6
:101C400005F0A4FE6849086068496748006805F027
:101C500061FE02D2654864490860654962480068CF
:101C600005F058FD02D262485F4908605E4800995D
:101C7000006805F083FD044658480199006805F0A6
:101C80007DFD0546214605F079FB5A490860384834
:101C9000016859480068FFF78FFE012802D1002033
:101CA000514908605348006805F0CCFCBDE8FC9F32
:101CB0002DE9F84F05460C46504E4FF07E573946F9
:101CC000284605F063FE00903946204605F056FD93
:101CD00082463046009905F051FD8346514605F095
:101CE0004DFB814605F0AEFC80464046BDE8F88FCE
:101CF00010B53220FEF77AFD0446012C04D11B48B2
:101D00000078C04319490870022C04D13C4800787F
:101D1000C0433B49087010BD2DE9F04F89B006461D
:101D2000012E18D04621D020FFF720FD8046452106
:101D3000D020FFF71BFD08EB0027384605F0BEFC5E
:101D400004464821D020FFF711FD80464721D020CE
:101D5000FFF70CFD56E0F4E0BC81214200802142F7
:101D600040040040000020C2000020420500002086
:101D70001C00002010000020140000200000B042D1
:101D800003000020040000209000002088000020B4
:101D90000000B4428C000020CDCCCCCCCCCCEC3FAD
:101DA0006666663F0000A040800000203333E33FBA
:101DB00000002842840000206666E63E0100002004
:101DC0000000C8C278000020020000200000C842C5
:101DD000080000200C00002070000020740000208B
:101DE0006666E63F3333D33F7C00002000401C464C
:101DF00000401CC66C00002020000020000096431C
:101E00000600002008EB0027384605F057FC054681
:101E10003C21D020FFF7AAFC80463B21D020FFF7D1
:101E2000A5FC08EB0027384605F048FC8246402117
:101E3000D020FFF79BFC80463F21D020FFF796FC87
:101E400008EB0027384605F039FC83464FF08E41F9
:101E5000204605F05FFD05D24FF08F41204605F08A
:101E600095FD04464FF08E41284605F053FD05D2FE
:101E70004FF08F41284605F089FD05464FF08E4111
:101E8000504605F047FD05D24FF08F41504605F012
:101E90007DFD82464FF08E41584605F03BFD05D250
:101EA0004FF08F41584605F071FD834684F00040A5
:101EB00060490860584605F035FACDE90001504602
:101EC00005F030FA0746DDE9002304F0A7FB002205
:101ED000594BCDE9020104F04BFF584A584BCDE96C
:101EE000040104F06FFDCDE9060104F07DFC81469C
:101EF000204605F017FA4FF06632524BCDE9060145
:101F000004F060FD074604F06FFC04464E4800787C
:101F1000022806D184F000473946484602F05AFFAD
:101F200009E049480078032805D184F00047394684
:101F3000484603F066F8454800684549086045484A
:101F4000056009B0BDE8F08F10B54348008800F087
:101F5000010000286CD04048008820F001003E4974
:101F600008803E48007808B9012000E000203B4985
:101F7000087008460078012805D133480078FFF73B
:101F8000CBFE002010BD0220FFF723FA4042344967
:101F900008600420FFF71DFA324908602A480078DB
:101FA000FFF7BAFE6420FEF7EBFBFFF7C2F82E49FD
:101FB0000860FFF79DFE1F48016825480068FFF78D
:101FC00077FE2A4908602748016825480068FFF71E
:101FD000DFFD274908601F48026822480168204841
:101FE0000068FFF731FD2349086020480068204958
:101FF0000968401A1F49096808441F4908601B48BE
:1020000000681B490968401A1A490968401A1B49A7
:102010000860FFF7FAFC144801680D480068FFF7F4
:10202000CBFC28B91548016813480068FFF791FCFC
:102030000020A7E72400002000806640F1D4C853A8
:10204000FB2109406666304000000020C8000020E7
:102050002000002028000020102C014068000020F3
:10206000080000200C0000201C0000205C00002064
:1020700060000020640000201000002014000020F8
:1020800030B503461C788C545D78541C0D559D78F2
:10209000941C0D55DD78D41C0D5530BD13B50C4680
:1020A0000A2C00DC04B91CBD0B2C43D2DFE804F081
:1020B00042060C12181E242A30363C0001224449E4
:1020C0006846FFF7DDFF35E0052241496846FFF726
:1020D000D7FF2FE009223E496846FFF7D1FF29E0EC
:1020E0000D223B496846FFF7CBFF23E01122384918
:1020F0006846FFF7C5FF1DE0152235496846FFF722
:10210000BFFF17E0192232496846FFF7B9FF11E017
:102110001D222F496846FFF7B3FF0BE021222C490F
:102120006846FFF7ADFF05E0252229496846FFF71D
:10213000A7FF00BF00BF00BFB5E701460A2900DCCA
:1021400009B9002070472420214A10700B293CD285
:10215000DFE801F03B060B10151A1F24292F35006C
:1021600005201B4A50710620ECE70920184A5072DE
:102170000A20E7E70D20164A50730E20E2E71120EF
:10218000134A50741220DDE71520114A50751620AD
:10219000D8E719200E4A50761A20D3E71D200C4AA2
:1021A00050771E20CEE72120094A82F82100222004
:1021B000C8E72520064A82F825002620C2E7292004
:1021C000034A82F829002A20BCE70020BAE7000071
:1021D0005405002038B50446FB4890F82400C0B1EF
:1021E00014B10220009001E000200090F64A12682D
:1021F000D17BF54A526810786B460122FFF719FA35
:1022000010B14FF0FF3038BD9DF80010EE4841741A
:1022100023E0ED48807A10B94FF0FF30F3E724B1A6
:10222000E948407C08B10020EDE714B1012000909E
:1022300001E000200090E44A1268D17BE24A526833
:1022400010786B460122FFF7F4F910B14FF0FF3020
:10225000D9E79DF80010DC4841740020D3E738B579
:10226000002419E0D8480068C07AA04204D0D648BB
:102270000068407DA04200D10CE0D349496808784D
:102280006B4601222146FFF736FA10B14FF0FF30BE
:1022900038BD00BF601CC4B2CB4840680079A04282
:1022A000E0DC0020F4E770B504460D46C64800683F
:1022B000C07AA04204D0C4480068407DA04202D148
:1022C0004FF0FF3070BDC04840680079A04202DC8A
:1022D0004FF0FF30F6E7BC49496808782B460122E9
:1022E0002146FFF708FAEDE738B50446B64890F8FE
:1022F0002300A04201D1002038BD14B1302000904D
:1023000001E000200090B048807C20B19DF80000E2
:1023100040F002000090AC4890F8220020B19DF8F7
:10232000000040F080000090A74A1268117DA64A84
:10233000526810786B460122FFF77BF910B14FF01D
:10234000FF30D9E7A04880F823400020D4E738B513
:10235000044604F0700010B10120009005E014B1B3
:102360000020009001E040200090974A1268917C84
:10237000954A526810786B460122FFF75AF920B14E
:10238000002191488172481E38BD9DF8000020F060
:1023900040018D4801730020009004F0400020B9F6
:1023A0009DF8000040F00400009004F0200020B9E7
:1023B0009DF8000040F00200009004F0100020B9E9
:1023C0009DF8000040F00100009004F0080020B9E2
:1023D0009DF8000040F0380000907B4A1268D17CE4
:1023E000794A526810786B460122FFF722F920B132
:1023F000002175488172481EC6E724B1082C02D01E
:102400000020FFF771FF70488472002101753220AF
:10241000FDF7ACFF0020B7E738B504466A48807C7A
:10242000A04201D1002038BD002C46D0664A126877
:102430001179654A526810786B460122FFF75BF903
:1024400010B14FF0FF30EEE79DF8000020F02000C3
:1024500000905D4A126811795B4A526810786B46A9
:102460000122FFF7E6F810B14FF0FF30DBE7032061
:10247000FDF77CFF02200090534890F8220020B125
:102480009DF8000040F0800000904F4890F8230035
:1024900020B19DF8000040F0300000904A4A1268D8
:1024A000117D494A526810786B460122FFF7C1F846
:1024B000002851D04FF0FF30B5E7434A1268117938
:1024C000414A526810786B460122FFF714F910B1A7
:1024D0004FF0FF30A7E73C48807A00F0010028B1B8
:1024E0009DF8000040F02000009004E09DF80000FE
:1024F00020F020000090344A12681179324A526864
:1025000010786B460122FFF794F810B14FF0FF30BE
:1025100089E70320FDF72AFF2B4890F8220010B12D
:102520008020009001E000200090274890F82300D0
:1025300020B19DF8000040F030000090224A12685F
:10254000117D214A526810786B460122FFF771F81D
:1025500010B14FF0FF3066E71B488474002062E73B
:1025600008B51948807A10B94FF0FF3008BD002037
:102570000090154A1268D17B134A526810786B4656
:102580000122FFF756F810B14FF0FF30EEE70E4A88
:10259000126851790C4A526810786B460122FFF795
:1025A00048F810B14FF0FF30E0E7074A12681179A0
:1025B000054A526810786B460122FFF73AF828B1B5
:1025C0004FF0FF30D2E7000098000020F74890F865
:1025D0002400002850D00C200090F44A1268117991
:1025E000F24A526810786B460122FFF722F810B1C8
:1025F0004FF0FF30BAE7C0200090EC48807A00F03E
:10260000010020B19DF8000040F020000090E74A52
:1026100012681179E54A526810786B460122FFF77B
:1026200008F810B14FF0FF30A0E7E048407C10B14F
:102630000220009001E000200090DC4A1268D17B6B
:10264000DA4A526810786B460122FEF7F2FF10B1A9
:102650004FF0FF308AE700200090D44A1268517989
:10266000D24A526810786B460122FEF7E2FF00283A
:1026700052D04FF0FF3079E704200090CB4A126827
:102680001179CA4A526810786B460122FEF7D1FFD1
:1026900010B14FF0FF3069E7C448807C20B9C348CF
:1026A000807A00F0010010B94020009001E0602025
:1026B0000090BE4A12681179BC4A526810786B4685
:1026C0000122FEF7B6FF10B14FF0FF304EE7B748DA
:1026D000407C10B10120009001E000200090B34A3E
:1026E0001268D17BB14A526810786B460122FEF71E
:1026F000A0FF10B14FF0FF3038E7AC4A12685179B3
:10270000AA4A52681078A94B10330122FEF791FFB4
:1027100010B14FF0FF3029E7002027E770B50446DD
:10272000002624F00104A14890F8240008B10020FC
:1027300070BD9E48807A10B94FF0FF30F8E79B4893
:10274000057C807A2040994908740846007CA042A4
:1027500002D04FF0FF3600E0002614B99348007D08
:1027600018B10120FFF736FD02E00020FFF732FD2F
:102770003CB1FFF7F5FE20B18C4805744FF0FF30F7
:10278000D6E73046D4E738B504468848807A10B991
:102790004FF0FF3038BDBC2C02DB0120009015E06B
:1027A000622C02DB0220009010E02A2C02DB0320C6
:1027B00000900BE0142C02DB0420009006E00A2CB1
:1027C00002DB0520009001E0062000907748C07AE7
:1027D0009DF80010884201D10020DBE7734A12689F
:1027E0009178724A526810786B460122FEF721FFF9
:1027F00010B14FF0FF30CDE79DF800106B48C1726B
:102800000020C7E738B50446282C02DD4FF0FF3022
:1028100038BDDCB90020FFF767FD00208DF800000F
:1028200007208DF80100614A1268917C5F4A526866
:1028300010786B460222FEF7FCFE10B14FF0FF301D
:10284000E6E70021594801750020E1E70120FFF784
:102850004BFD20208DF80000012C06D100208DF8C2
:1028600001000520FFF78FFF17E0052C06DC012093
:102870008DF801000520FFF786FF0EE0142C06DC22
:1028800002208DF801000A20FFF77DFF05E00320FC
:102890008DF801001420FFF776FF9DF80100072155
:1028A00001EB8010C0B28DF80100404A1268917CA3
:1028B0003E4A526810786B460222FEF7BAFE10B10B
:1028C0004FF0FF30A4E708213848817200210173DE
:1028D000012101750020FFF721FF002098E738B59E
:1028E00004463248807A10B94FF0FF3038BD2F4887
:1028F00090F8240010B14FF0FF30F7E72B48007D2F
:1029000050B134B1282C04DCE0B2FFF77BFF00208B
:10291000ECE70020FFF776FF042C01DA042404E042
:10292000B4F57A7F01DD4FF47A744FF47A7090FB3E
:10293000F4F0401EC0B200901C4A126851781B4A45
:10294000526810786B460122FEF773FE10B14FF00B
:10295000FF30CBE79DF80000401C4FF47A7191FBEB
:10296000F0F081B21148C1810146C9894810FFF7D2
:102970000AFF0020BAE738B504460C48807A10B93F
:102980004FF0FF3038BD022C06D0042C07D0082CA5
:1029900008D0102C0FD10BE0002000900EE0082092
:1029A00000900BE01020009008E00000980000204C
:1029B0001820009002E04FF0FF30E3E700BFF94835
:1029C000407A9DF80010B0EBE10F01D10020D9E76B
:1029D000F44A1268D179F34A526810786B460122A2
:1029E000FEF727FE10B14FF0FF30CBE79DF8000057
:1029F000C110EC4841720020C4E738B50446E948EC
:102A0000807A10B94FF0FF3038BDFA2C09D0B4F5F8
:102A1000FA7F09D0B4F57A7F09D0B4F5FA6F0CD1FA
:102A200008E0002000900BE00820009008E0102053
:102A3000009005E01820009002E04FF0FF30E3E73F
:102A400000BFD848007A9DF80010B0EBE10F01D12B
:102A50000020D9E7D34A12689179D24A5268107897
:102A60006B460122FEF7E5FD10B14FF0FF30CBE7DA
:102A70009DF80000C010CB4908720020C4E71CB5C7
:102A800080208DF80000C74A1268917CC54A5268C0
:102A900010786B460122FEF7CCFD10B14FF0FF30ED
:102AA0001CBD6420FDF762FC00208DF80000BD4ACB
:102AB0001268917CBB4A526810786B460122FEF77F
:102AC000B8FD10B14FF0FF30EAE7B64A1268917DC9
:102AD000B44A526810786B460622FEF70CFE10B11D
:102AE0004FF0FF30DCE79DF80500C007400F9DF870
:102AF000031001F0010140EA41009DF8011001F0CE
:102B0000010140EA010494B1012C03D10121A5483F
:102B1000C17431E0022C03D10021A248C1742BE022
:102B20002146A1A003F080F84FF0FF30B8E79D4A9E
:102B30001268D1789B4A526810786B460122FEF7E2
:102B4000DAFD10B14FF0FF30AAE79DF8000000F069
:102B50000F042CB99E4803F067F84FF0FF309FE751
:102B6000042C06D19BA003F05FF801218D48C174AD
:102B700002E000218B48C174FF218A488172FF2046
:102B800088490872FF2187484172C1724FF6FF7170
:102B9000C181FF21017481740121017380F8221029
:102BA000002180F8231041750175163001604160E5
:102BB0008160163880F8241080F82510C1844FF405
:102BC000FA60FFF71AFF10B14FF0FF3068E70220FC
:102BD000FFF7D1FE10B14FF0FF3061E72A20FFF779
:102BE000D2FD10B14FF0FF305AE73220FFF777FEE9
:102BF00010B14FF0FF3053E70020FFF78FFD10B109
:102C00004FF0FF304CE70020FFF706FC10B14FF00B
:102C1000FF3045E70020FFF79AFB002040E77047B0
:102C20007CB504460D465F48807A00F0700010B90C
:102C30004FF0FF307CBD5B4A1268117B594A5268E5
:102C400010786B460622FEF756FD10B14FF0FF30AC
:102C5000F0E79DF801009DF8001040EA012000B265
:102C600020809DF803009DF8021040EA012000B288
:102C700060809DF805009DF8041040EA012000B234
:102C8000A08015B12846FFF7CAFF0020D2E77CB527
:102C900004460D464348807A00F0080010B94FF012
:102CA000FF307CBD3F4A1268517B3E4A5268107823
:102CB0006B460622FEF71FFD10B14FF0FF30F0E724
:102CC0009DF801009DF8001040EA012000B220802C
:102CD0009DF803009DF8021040EA012000B26080D8
:102CE0009DF805009DF8041040EA012000B2A08084
:102CF00015B12846FFF793FF0020D2E72DE9FE4FDC
:102D000005460C462748807A18B94FF0FF30BDE8D9
:102D1000FE8F244A1268917B224A5268107802ABD7
:102D20000222FEF7E8FC10B14FF0FF30EFE79DF80C
:102D300009009DF8081040EA012006B214B12046AF
:102D4000FFF76DFF17494968C88804F0CFFC1549A3
:102D500001904968B1F9080004F0B0FC83463046A0
:102D600004F0ACFC5946009004F010FE8246019934
:102D700004F072FB81461F4904F000FB80464FF0CF
:102D80008F4104F0FBFC074604F05CFC2860002047
:102D9000BDE710B588B004461CB94FF0FF3008B04D
:102DA00010BD29E098000020556E737570706F7229
:102DB00074656420736F6674776172652070726FDA
:102DC00064756374207265762025642E0A00000005
:102DD0000893000848616C662073656E73697469B6
:102DE00076697479207061727420666F756E642ED6
:102DF0000D0A000000000C42206830B9606820B95C
:102E0000A06810B9002008B010BDFA4949680878D8
:102E100006AB03221146FEF76EFC10B14FF0FF30F7
:102E2000F1E79DF81800082101EB201000F00F00D9
:102E3000ADF800009DF8190001EB201000F00F0024
:102E4000ADF802009DF81A0001EB201000F00F0011
:102E5000ADF8040020684100BDF90000403091FB4E
:102E6000F0F000B2ADF8100060684100BDF902005A
:102E7000403091FBF0F000B2ADF81200A0684100C4
:102E8000BDF90400403091FBF0F000B2ADF8140041
:102E9000D8494968087806AB06221146FEF72BFC94
:102EA00010B14FF0FF30AEE79DF819009DF81810F3
:102EB00040EA012000B2ADF808009DF81B009DF823
:102EC0001A1040EA012000B2ADF80A009DF81D007A
:102ED0009DF81C1040EA012000B2ADF80C00BDF8CE
:102EE0001000BDF80810084400B2ADF81000BDF89D
:102EF0001200BDF80A10084400B2ADF81200BDF887
:102F00001400BDF80C10084400B2ADF81400BDF870
:102F10001000000A8DF81800BDF81000C0B28DF83E
:102F20001900BDF81200000A8DF81A00BDF8120051
:102F3000C0B28DF81B00BDF81400000A8DF81C000B
:102F4000BDF81400C0B28DF81D00AA494968087880
:102F500006AB06221146FEF76CFB10B14FF0FF30B6
:102F600051E700204FE70146A248007A30B101281E
:102F700007D0022809D003280FD10AE0FA200880E0
:102F80000EE04FF4FA7008800AE04FF47A7008807F
:102F900006E04FF4FA60088002E00020088000BFDD
:102FA00000BF0020704701469248407A30B10128A6
:102FB00007D0022808D003280CD108E002200870AE
:102FC0000BE00420087008E00820087005E01020DD
:102FD000087002E04FF0FF30704700BF8548C07CAA
:102FE00018B108784006000E08700020F4E701468A
:102FF0008048C07A082817D2DFE800F01704070AD3
:103000000D101318BC20088013E06220088010E027
:103010002A2008800DE0142008800AE00A20088099
:1030200007E00520088004E000BF00BF0020088002
:1030300000BF00BF0020704701466E4890F8240092
:1030400010B14FF0FF3070476A48C08908800020F7
:10305000F9E7014600200880401E704701464FF006
:10306000FF30704701466348007A30B1012807D02D
:10307000022808D003280CD108E05F4808600BE064
:103080005E48086008E05E48086005E05D4808604A
:1030900002E04FF0FF30704700BF0020FBE7014621
:1030A0005448407A30B1012808D002280AD00328B9
:1030B00010D10BE04FF4804008800EE041F69C7088
:1030C00008800AE04FF48050088006E04FF400606A
:1030D000088002E04FF0FF30704700BF4548C07CD9
:1030E00010B10888401008800020F5E701464148EB
:1030F000007C08700020704701463E48807A10B17D
:103100000120087001E0002008700020704738B5E9
:1031100004463848807A10B94FF0FF3038BD354A40
:103120001268117C334A526810786B460222FEF70F
:10313000E2FA10B14FF0FF30F0E79DF801009DF882
:10314000001040EA012000B220800020E6E72DE9CF
:10315000FE4F0746884692461D46DDF830B00026F1
:103160000024244890F8240010B1601EBDE8FE8FB2
:10317000002028701F48807A10B94FF0FF30F5E723
:103180001C48007C10B94FF0FF30EFE71948007C75
:1031900000F0400008B1B01CC6B21648007C00F038
:1031A000200008B1B01CC6B21248007C00F010002C
:1031B00008B1B01CC6B20F48007C00F0080008B18E
:1031C000B01DC6B20B4A1268917A0A4A526810784A
:1031D0006B460222FEF78FFA10B14FF0FF30C5E7C1
:1031E0009DF801009DF8001040EA0129B1450BDA75
:1031F0000020BBE79800002000000343000083424A
:103200003333034233338341FC4840684088B9EB91
:10321000600F17DDF94A1268517CF84A526810783D
:103220006B460122FEF767FA10B14FF0FF309DE7C1
:103230009DF8000000F0100020B1FFF791F96FF049
:10324000010093E75046FFF7EAFCEC4A1268D17A96
:10325000EA4A526810786B463246FEF74CFA10B1D3
:103260004FF0FF3082E799FBF6F0401E8BF800002C
:1032700000202870B4422AD0E048007C00F008000A
:1032800028B3601C1DF800001DF8041040EA01205E
:1032900000B2A8F80000E01C1DF80010A01C1DF8EA
:1032A000000041EA002000B2A8F80200601D1DF8ED
:1032B0000010201D1DF8000041EA002000B2A8F80F
:1032C0000400287840F008002870A01D84B2B442A1
:1032D00013D0CA48007C00F0400070B1601C1DF89B
:1032E00000001DF8041040EA012000B23880287860
:1032F00040F040002870A01C84B2B44213D0BF48F4
:10330000007C00F0200070B1601C1DF800001DF86A
:10331000041040EA012000B27880287840F02000B4
:103320002870A01C84B2B44213D0B448007C00F0D2
:10333000100070B1601C1DF800001DF8041040EA78
:10334000012000B2B880287840F010002870A01C3E
:1033500084B200200AE7F8B504460F461646A7488F
:1033600090F8240010B94FF0FF30F8BDA348807AE0
:1033700010B94FF0FF30F8E7A04A1268917A9F4ADF
:10338000526810786B460222FEF7B5F910B14FF083
:10339000FF30EAE79DF801009DF8001040EA0125A2
:1033A000A54203DA00203070401EDEE793484068F3
:1033B0004088B5EB600F17DD904A1268517C8F4A48
:1033C000526810786B460122FEF795F910B14FF064
:1033D000FF30CAE79DF8000000F0100020B1FFF7B1
:1033E000BFF86FF00100C0E7E2B2844B1B68D97AE6
:1033F000824B5B6818783B46FEF77DF910B14FF0C1
:10340000FF30B2E795FBF4F0401E30700020ACE7CF
:1034100001467A4880F82210002070477CB50546A6
:1034200076494968087801AB04220D21FEF763F95B
:1034300008B107207CBD9DF80700C0F301109DF87E
:10344000041001F0E00140EAE1008DF800009DF871
:103450000700C0F381009DF8051001F0E00140EA8B
:10346000E1008DF801009DF8070000F003009DF8D1
:10347000061001F0E00140EAE1008DF802000024AE
:103480001CE01DF8040018B9002045F8240013E0E2
:103490005B4845F8240006E055F82400594904F03B
:1034A0006DF945F824001DF80400401EC0B20DF867
:1034B00004000028F0D100BF601CC4B2032CE0DB84
:1034C0000020B7E72DE9FE4F06460F460025684667
:1034D000FFF7A4FF002442E056F8240057F8241018
:1034E000A0EB010ABAF1000F01DB514601E0CAF17D
:1034F0000001084604F0E2F883464FF08F4103F0E4
:10350000ABFF80465DF82400002104F067F816D078
:103510005DF82410404603F09FFF82464FF07E5135
:1035200004F034FA814629F0004A3748416A50468F
:1035300004F0F0F912D20120A04005430EE0324819
:10354000C169404604F0E6F805D32F48016A4046B9
:1035500004F0E0F902D20120A0400543641C032CD2
:10356000BADB2846BDE8FE8F2DE9FC5F06460F4614
:10357000002522494968087801AB03220D21FEF796
:10358000BAF810B10720BDE8FC9F9DF8040000F0D8
:103590001F008DF804009DF8050000F01F008DF855
:1035A00005009DF8060000F01F008DF806000024BD
:1035B00062E056F8240057F82410A0EB010BBBF191
:1035C000000F01DB594601E0CBF10001084604F091
:1035D00075F84FF08F41009003F03EFF814601A83F
:1035E000005DC0B30849086804F080F88346594676
:1035F000064803F031FF80460FE0000098000020ED
:103600007B14AE3E1D5A843FF485000800B04C4543
:10361000FE49404604F0B2F8804601A8005D401E15
:10362000C0B201A908550028F2D14146484603F02E
:1036300013FF83464FF07E5104F0A8F982462AF02A
:10364000004BF3488169584604F064F913D2012015
:10365000A04005430FE0FFE7ED480169484604F04C
:1036600059F805D3EA484169484604F053F902D2B3
:103670000120A0400543641C032C9ADB284682E706
:103680002DE9F04F87B005460C46914601208DF894
:10369000100000208DF81100DE4A1268917CDD4A8E
:1036A0005268107804AB0222FDF7C3FF20B14FF03F
:1036B000FF3007B0BDE8F08FC820FCF757FE0020B0
:1036C0008DF81000D34A1268D17BD24A5268107824
:1036D00004AB0122FDF7ADFF10B14FF0FF30E8E77A
:1036E000CC4A12685179CB4A5268107804AB012257
:1036F000FDF79FFF10B14FF0FF30DAE7C54A1268BF
:10370000917CC44A5268107804AB0122FDF791FF06
:1037100010B14FF0FF30CCE7BE4A1268D17DBD4AF0
:103720005268107804AB0122FDF783FF10B14FF00F
:10373000FF30BEE7B74A12681179B64A526810786E
:1037400004AB0122FDF775FF10B14FF0FF30B0E779
:103750000C208DF81000AF4A12681179AD4A5268FA
:10376000107804AB0122FDF764FF10B14FF0FF3079
:103770009FE70F20FCF7FAFDA648806A407A8DF893
:103780001000A44A12689178A24A5268107804ABDB
:103790000122FDF74EFF10B14FF0FF3089E79D4841
:1037A000806A007A8DF810009A4A12685178994A16
:1037B0005268107804AB0122FDF73BFF10B14FF0C7
:1037C000FF3076E7B9F1000F07D09248806A807A1F
:1037D00040F0E0008DF8100004E08E48806A807AA6
:1037E0008DF810008B4A126891798A4A52681078D5
:1037F00004AB0122FDF71DFF10B14FF0FF3058E779
:10380000B9F1000F07D08348806AC07A40F0E00029
:103810008DF8100003E07E48C07A8DF810007D4AD4
:103820001268D1797B4A5268107804AB0122FDF707
:1038300000FF10B14FF0FF303BE7B9F1000F02D0AD
:10384000C820FCF793FD40208DF81000714A1268E3
:103850001179704A5268107804AB0122FDF7E9FE35
:1038600010B14FF0FF3024E778208DF81000694A3E
:1038700012685179674A5268107804AB0122FDF74B
:10388000D8FE10B14FF0FF3013E761498889FCF78B
:103890006DFD00208DF810005E4A126851795D4A76
:1038A0005268107804AB0122FDF7C3FE10B14FF04F
:1038B000FF30FEE6574A1268917A564A52681078ED
:1038C00004AB0222FDF717FF10B14FF0FF30F0E616
:1038D0009DF811009DF8101040EA012B0C209BFB75
:1038E000F0F0C6B20020A86068602860A060606048
:1038F0002060824665E0474A1268D17A454A52689C
:10390000107804AB0C22FDF7F6FE10B14FF0FF303B
:10391000CFE69DF811009DF8101040EA012000B29A
:10392000ADF808009DF813009DF8121040EA012040
:1039300000B2ADF80A009DF815009DF8141040EA99
:10394000012000B2ADF80C00BDF908102068084451
:103950002060BDF90A10606808446060BDF90C1071
:10396000A0680844A0609DF817009DF8161040EA72
:10397000012000B2ADF800009DF819009DF8181064
:1039800040EA012000B2ADF802009DF81B009DF84E
:103990001A1040EA012000B2ADF80400BDF9001091
:1039A000286808442860BDF9021068680844686007
:1039B000BDF90410A8680844A8600AF1010000F0ED
:1039C000FF0AB24597DB1248D0F800C02868C1173B
:1039D000090441EA1041070462460023384602F018
:1039E000FEF832460023CDE9020102F0F8F8286023
:1039F0000748D0F800C06868C117090441EA1041BF
:103A0000070462460023384606E0000054E3853F81
:103A1000F48500089800002002F0E1F83246002307
:103A2000CDE9020102F0DBF86860FE48D0F800C082
:103A3000A868C117090441EA10410704624600233F
:103A4000384602F0CCF832460023CDE9020102F0FC
:103A5000C6F8A860F348D0F804C02168C81700046D
:103A600040EA11480F04624600233846414602F0FE
:103A7000B6F832460023CDE9020102F0B0F820602A
:103A8000E848D0F804C06068C117090441EA104151
:103A9000070462460023384602F0A1F832460023AC
:103AA000CDE9020102F09BF86060DE48D0F804C066
:103AB000A068C117090441EA1041070462460023C7
:103AC000384602F08CF832460023CDE9020102F0BC
:103AD00086F8A060A068002804DDA068A0F580300A
:103AE000A06003E0A06800F58030A0600020E0E561
:103AF00038B50446CC4890F82400A04201D10020FB
:103B000038BD24B3C84890F8250010B94FF0FF30F5
:103B1000F6E70020FEF75EFB0020FEF77DFCC249C1
:103B2000C88CFEF7DCFE00200090BF494968087889
:103B30006B4601222321FDF77CFD0121BA4880F864
:103B400024100120FEF746FBFEF70AFD13E00020DB
:103B5000FEF740FBB448007C0090B3494968087800
:103B60006B4601222321FDF764FD0021AE4880F859
:103B70002410FEF7F5FC0020C2E72DE9F04F8DB0D0
:103B800083460F4602200C90A74890F8240020B1ED
:103B90000020FFF7ADFF012600E0002603A8FFF795
:103BA000E2F905A8FFF7FFF901A8FFF720FA02A83C
:103BB000FFF742FA9C4890F80AA004A8FFF796FA8B
:103BC000002407E0002239465846FFF759FD00B9A6
:103BD00002E0641C022CF5DB00BF022C01D10025A1
:103BE00028E0002407E0012206A909A8FFF748FD04
:103BF00000B902E0641C022CF5DB00BF022C01D1ED
:103C0000002517E006A93846FFF75CFC00F0FF0826
:103C100009A95846FFF7A8FC00F0FF090025B9F1F3
:103C2000000F01D145F00105B8F1000F01D145F0B9
:103C3000020500BFFF207C490872FF217A484172CB
:103C4000C1724FF6FF71C181FF21817201740121A0
:103C50000173BDF80C00FEF7D0FE9DF81400FEF7CE
:103C60008AFEBDF80400FEF78EFDBDF80800FEF7E1
:103C700036FE5046FEF76BFB9DF81000FEF74EFD3A
:103C800016B10120FFF734FF28460DB0BDE8F08FD4
:103C9000F8B504460D46164616B94FF0FF30F8BD8C
:103CA0006148807A10B94FF0FF30F8E720128DF8A4
:103CB0000000E0B28DF801009DF8010028445A4947
:103CC00049684989884202DD4FF0FF30E7E7564AEC
:103CD0001268117E544A526810786B460222FDF732
:103CE000A8FC10B14FF0FF30D9E7EAB24E4B1B6889
:103CF000597D4D4B5B6818783346FDF79AFC10B13F
:103D00004FF0FF30CBE70020C9E7F8B504460D4679
:103D1000164616B94FF0FF30F8BD4348807A10B907
:103D20004FF0FF30F8E720128DF80000E0B28DF878
:103D300001009DF8010028443B49496849898842AF
:103D400002DD4FF0FF30E7E7374A1268117E364A4E
:103D5000526810786B460222FDF76BFC10B14FF0F1
:103D6000FF30D9E7EAB2304B1B68597D2E4B5B68B8
:103D700018783346FDF7BFFC10B14FF0FF30CBE7AA
:103D80000020C9E72DE9F04385B005460E46904670
:103D90009946254890F8250020B14FF0FF3005B036
:103DA000BDE8F08316B94FF0FF30F8E7002423E0B8
:103DB000281B102801DD102000E0281B87B23219D3
:103DC00039462046FFF764FF10B14FF0FF30E6E7B9
:103DD00001AA39462046FFF798FF10B14FF0FF3097
:103DE000DDE730193A4601A901F098FF10B16FF0F4
:103DF0000100D4E7E01984B2AC42D9DB4FEA2820B5
:103E00008DF8000008F0FF008DF80100064A1268E6
:103E1000917E054A526810786B460222FDF709FC34
:103E200038B103E0F4850008980000204FF0FF301F
:103E3000B5E701218A4880F82510A0F826900020D7
:103E4000ADE70146864890F82400087000207047CE
:103E500002464FF0FF30704701464FF0FF30704789
:103E6000F8B505460F461446002C70D0B5F5FF5F37
:103E700001DDFF2605E0202D01DA012601E0C5F372
:103E8000471607B90127282C02DD4FF0FF30F8BD97
:103E90007348407D28BB724890F8240038B1002058
:103EA000FFF726FE01216E4880F8201003E0002174
:103EB0006B4880F820106A481630FFF754F86848BD
:103EC0001830FFF770F866481A30FFF790F864482A
:103ED0001C30FFF7B1F86248817A81771F30FFF715
:103EE00005F90020FEF776F90020FEF78BFC002094
:103EF0008DF800005A4A12689178594A5268107831
:103F00006B460122FDF795FB10B14FF0FF30BEE785
:103F100040208DF80000524A1268D17B504A526806
:103F200010786B460122FDF784FB00B165E08DF847
:103F300000608DF801704A4A1268117A484A526846
:103F400010786B460222FDF774FB08B155E047E09C
:103F50000520FCF70BFA4248407A072101EBC0002C
:103F6000C0B28DF800003E4A1268D1793C4A5268CE
:103F700010786B460122FDF75CFB00B13DE020208C
:103F80008DF80000012C03D100208DF801000EE017
:103F9000052C03DC01208DF8010008E0142C03DC63
:103FA00002208DF8010002E003208DF801009DF849
:103FB0000100072101EB8010C0B28DF80100284AF2
:103FC0001268917C264A526810786B460222FDF7EF
:103FD00030FB00B111E0012121484175002056E776
:103FE0001F4A1632002103E0505C00B105E0491C75
:103FF0000C29F9D34FF0FF3049E7FF201849087228
:10400000FF2117484172C1724FF6FF71C181FF2134
:1040100081720174012101730146887FFEF797F9CF
:104020000F49C88AFEF7E9FC0D49087EFEF7A3FC9C
:104030000B49488BFEF7A7FB0949888BFEF74FFC1D
:104040000749C87FFEF76AFB054890F8200010B1C9
:104050000120FFF74DFD002101484175002016E7C2
:104060009800002010B5C8234FF48062F74940F64D
:10407000F630FFF787FE10BD10B586B00446F4A0F9
:1040800000680390F3A000680290F3A0006801901C
:10409000F2A00068009004F0030003A9085C8DF80A
:1040A000140003A8C4F3C101405C8DF8150003A8F7
:1040B000C4F38111405C8DF8160004F0030002A9DE
:1040C000085C8DF8100002A8C4F3C101405C8DF8B3
:1040D000110002A8C4F38111405C8DF8120005AAFA
:1040E000032140F22640FFF7D3FD18B14FF0FF3017
:1040F00006B010BD04AA032140F22A40FFF7C8FD14
:1041000010B14FF0FF30F3E701980590009804904C
:1041100004F0040058B19DF8140040F001008DF83F
:1041200014009DF8100040F001008DF8100004F01C
:10413000200058B19DF8150040F001008DF81500E1
:104140009DF8110040F001008DF8110004F480701A
:1041500058B19DF8160040F001008DF816009DF84A
:10416000120040F001008DF8120005AA03214FF45F
:104170008860FFF78DFD10B14FF0FF30B8E704AA5B
:10418000032140F23140FFF783FD10B14FF0FF30C3
:10419000AEE7B34804810020AAE71FB50446B04843
:1041A000007A00F0030054F820000190AC48007A37
:1041B00000F0040010B1019840420190A848007A34
:1041C000C0F3C10054F820000290A548007A00F026
:1041D000200010B1029840420290A148007AC0F33A
:1041E000811054F8200003909D48008900F48070ED
:1041F00010B10398404203909A49019880FB010155
:10420000800F40EA810001909649029880FB0110DE
:10421000820042EA917002909249039880FB01105B
:10422000820042EA917003900198000E8DF8000020
:104230000198000C8DF801000198000A8DF8020029
:104240000198C0B28DF803006A4604214FF47470DF
:10425000FFF71EFD18B14FF0FF3004B010BD0298FB
:10426000000E8DF800000298000C8DF801000298F5
:10427000000A8DF802000298C0B28DF803006A4669
:1042800004214FF47570FFF703FD10B14FF0FF30BC
:10429000E3E70398000E8DF800000398000C8DF8FA
:1042A00001000398000A8DF802000398C0B28DF84F
:1042B00003006A4604214FF47670FFF7E9FCCCE76F
:1042C00070B588B0064601A8FEF7E9FEBDF8040007
:1042D0000021C90341EA5045C4036148007A00F057
:1042E000030056F8200005905D48007A00F00400B5
:1042F00010B10598404205905948007AC0F3C100BA
:1043000056F8200006905648007A00F0200010B1C0
:104310000698404206905248007AC0F3811056F841
:10432000200007904E48008900F4807010B1079873
:10433000404207900598C117A0FB042301FB0431FC
:1043400000FB0510810041EA927005900698C117A4
:10435000A0FB042301FB043100FB0510810041EAAE
:10436000927006900798C117A0FB042301FB04314B
:1043700000FB0510810041EA927007900598000E3D
:104380008DF808000598000C8DF809000598000AC2
:104390008DF80A000598C0B28DF80B000698000E43
:1043A0008DF80C000698000C8DF80D000698000A98
:1043B0008DF80E000698C0B28DF80F000798000E19
:1043C0008DF810000798000C8DF811000798000A6E
:1043D0008DF812000798C0B28DF8130002AA0C21C4
:1043E0004FF42570FFF754FC08B070BD30B585B0B0
:1043F00004461DA207CA02AB07C3C82C03DD4FF059
:10440000FF3005B030BDC82090FBF4F0401E85B2EF
:10441000280A8DF80000E8B28DF801006A460221F2
:1044200040F21620FFF734FC10B14FF0FF30E8E700
:1044300002AA0C2140F6C120FFF72AFC10B14FF070
:10444000FF30DEE7064884810020DAE71C8600089A
:104450004CCD6C000CC92C00365676002646660002
:104460008005002009E3CA02FEF2ABC4AAF1DFDF37
:10447000BBAFDFDF0146FC48808908800020704721
:104480002DE9FC4706460F4606F0070010B1B7F5C8
:10449000C86F03DD4FF0FF30BDE8FC87384603F0FE
:1044A00025F98146F14902F0D7FF80466846FEF7BC
:1044B0007AFD9DF80000022806D0042816D00828AE
:1044C00026D0102848D135E04FF08D41404603F00A
:1044D00055F9814603F0D2F884B2E549404603F02D
:1044E0004DF9814603F0CAF885B238E04FF08C41AF
:1044F000404603F043F9814603F0C0F884B2DD4939
:10450000404603F03BF9814603F0B8F885B226E057
:104510004FF08B41404603F031F9814603F0AEF88D
:1045200084B2D549404603F029F9814603F0A6F844
:1045300085B214E04FF08A41404603F01FF98146EE
:1045400003F09CF884B2CD49404603F017F9814648
:1045500003F094F885B202E04FF0FF309CE700BF13
:1045600020128DF80400E0B28DF8050028128DF8B5
:104570000600E8B28DF8070006F00100A0B101AA1C
:1045800002214FF4EA70FFF783FB10B14FF0FF30C8
:1045900082E70DF1060202214FF49270FFF778FBDB
:1045A00010B14FF0FF3077E706F00200A0B101AA8A
:1045B00002214FF4EC70FFF76BFB10B14FF0FF30AE
:1045C0006AE70DF1060202214FF49470FFF760FBD9
:1045D00010B14FF0FF305FE706F00400A0B101AA70
:1045E00002214FF4EE70FFF753FB10B14FF0FF3094
:1045F00052E70DF1060202214FF49670FFF748FBD7
:1046000010B14FF0FF3047E7002045E738B50446CA
:104610000020009004F0010020B19DF8000040F05F
:104620003000009004F0020020B19DF8000040F03E
:104630000C00009004F0040020B19DF8000040F050
:10464000030000906A4601214FF4A470FFF720FB9D
:1046500038BD38B50446012C01DA012402E0042CEF
:1046600000DD0424601EC0B200906A46012140F2C1
:104670004F10FFF70DFB38BD38B50446052094FBFD
:10468000F0F085B228128DF80000E8B28DF8010034
:104690006A4602214FF4EF70FFF7FAFA38BD38B5D9
:1046A0000446052094FBF0F085B228128DF8000036
:1046B000E8B28DF801006A4602214FF4ED70FFF771
:1046C000E7FA38BDF8B505460E464FF47A7095FB0B
:1046D000F0F000FB06F4200E8DF80000200C8DF8A1
:1046E0000100200A8DF80200E0B28DF803006A464E
:1046F00004214FF4AE70FFF7CBFAF8BD38B504468D
:10470000052094FBF0F084B220128DF80000E0B296
:104710008DF801006A4602214FF4AD70FFF7B8FA38
:1047200038BD38B50446052094FBF0F084B2201261
:104730008DF80000E0B28DF801006A4602214FF4C6
:10474000AC70FFF7A5FA38BD38B5044614B94FF080
:10475000FF3038BD6A4604214FF45870FFF7D5FA90
:1047600010B14FF0FF30F4E79DF8000000069DF80F
:10477000011040EA01409DF8021040EA01209DF836
:104780000310084320600020E3E738B50446200EFC
:104790008DF80000200C8DF80100200A8DF8020031
:1047A000E0B28DF803006A4604214FF45870FFF719
:1047B0006FFA38BD38B5044614B94FF0FF3038BD34
:1047C0006A4604214FF47170FFF79FFA10B14FF061
:1047D000FF30F4E79DF8000000069DF8011040EA64
:1047E00001409DF8021040EA01209DF803100843A3
:1047F00000EB8000800020600020E0E738B5044630
:104800001420B4FBF0F4200E8DF80000200C8DF87D
:104810000100200A8DF80200E0B28DF803006A461C
:1048200004214FF47170FFF733FA38BD38B50446F0
:1048300064B120208DF8000028208DF80100302080
:104840008DF8020038208DF8030004E0A322042133
:10485000684601F08FFA6A46042140F69E20FFF771
:1048600017FAFDF77DFE38BD8005002000004843A3
:10487000000040460000C045000040450000C04424
:1048800038B5044664B1C0208DF80000C2208DF810
:104890000100C4208DF80200C6208DF8030004E05A
:1048A0008B220421684601F065FA6A46042140F62D
:1048B0009820FFF7EDF9FDF753FE38BD3EB50446ED
:1048C0006CB1FDA1D1E900208968CDE900200291F9
:1048D0006A4609214FF49760FFF7DAF93EBDF9A265
:1048E000D2E900109268CDE9010200916A460921DF
:1048F0004FF49760FFF7CCF9F0E73EB5044602208D
:104900008DF80000CA208DF80100E3208DF8020028
:1049100009208DF803006A4604216820FFF7B8F9E2
:10492000A3208DF8000004F0400048B1C0208DF8AD
:104930000100C8208DF80200C2208DF8030006E0B7
:10494000A3208DF801008DF802008DF8030004F417
:10495000C07048B1C4208DF80400CC208DF805004B
:10496000C6208DF8060006E0A3208DF804008DF81F
:1049700005008DF80600A3208DF807008DF80800CB
:104980008DF809006A460A2140F6A720FFF780F952
:1049900004F0030018B120208DF8000002E0D820B8
:1049A0008DF800006A46012140F6B620FFF770F945
:1049B00004F0200018B10120FFF780FF02E0002082
:1049C000FFF77CFF04F4C07008B304F4807060B19A
:1049D000B2208DF800008B208DF80100B6208DF8F4
:1049E00002009B208DF803000BE0B0208DF8000042
:1049F00080208DF80100B4208DF8020090208DF801
:104A000003006A46042140F6A220FFF741F904F0B2
:104A1000010020B3F8208DF800006A4601214FF410
:104A20000B60FFF735F9FA210720FFF729FD072072
:104A3000FFF7ECFD0120FFF70CFE6420FFF71CFEE2
:104A40004FF4FA70FFF72BFEC821A148FFF73AFE9A
:104A50002820FFF753FE0A20FFF763FE08E0D82066
:104A60008DF800006A4601214FF40B60FFF710F942
:104A700004F0020018B1D9208DF8000002E0D8201F
:104A80008DF800006A46012140F23D70FFF700F901
:104A900004F0040018B10120FFF7F2FE02E000204C
:104AA000FFF7EEFE04F0100018B10120FFF7BEFE84
:104AB00002E00020FFF7BAFE44F008008549488173
:104AC000FDF74EFD00208349887304F0400018B1C3
:104AD0000846807B801D887304F4C07020B17D4837
:104AE000807B801D7B49887304F0140020B17948D5
:104AF000807B10307749887304F0030020B175483B
:104B0000807B001D7349887300203EBD01467148BB
:104B100040890880002070472DE9F0410446E07884
:104B200000F0C006E07800F03F05607800F001007A
:104B300098B1EF102846E91705EB5171C910A5EBA4
:104B4000C101491C01F0FF086248006820B16148BA
:104B5000414602683846904700BF607800F0080080
:104B600030B15C48406818B1B0115A4A5168884762
:104B70000020BDE8F08110B586B0044656A207CAF1
:104B800003AB07C357A207CA8DE80700012C09D061
:104B9000022C0ED103AA0B2140F68220FFF778F8F1
:104BA00006B010BD6A460B2140F68220FFF770F870
:104BB000F6E74FF0FF30F3E72DE9F04F8DB00746F1
:104BC000884615469946DDE9166B002400203080A2
:104BD0004049887B5A4605A9FEF7BDFB18B1601E07
:104BE0000DB0BDE8F08F3B48807A00F0140000283B
:104BF00061D09DF8140000069DF8151040EA0140B0
:104C00009DF8161040EA01209DF81710084328600F
:104C10009DF8180000069DF8191040EA01409DF823
:104C20001A1040EA01209DF81B10084368609DF8A7
:104C30001C0000069DF81D1040EA01409DF81E1062
:104C400040EA01209DF81F100843A8609DF820004D
:104C500000069DF8211040EA01409DF8221040EA2C
:104C600001209DF823100843E86004F11000C4B24D
:104C7000286800140190686800140290A868001465
:104C80000390E8680014049001984043029901FBE6
:104C90000100039901FB0100049901FB010ABAF12B
:104CA000706F02DBBAF1885F22DDFDF759FC00204E
:104CB0003080401E94E721E0B8AAB38DB4980D353A
:104CC0005D000000B8AAAAAAB088C3C5C70000004A
:104CD00009E3CA0280050020D8B1B9F38BA391B6CD
:104CE00009B4D900DAB1B9F38BA391B6DAB4DA001A
:104CF000B6F9000040F48070308000BF3448807AFC
:104D000000F0400020B305A9601C085C095D40EA82
:104D1000012000B2A8F8000005A9E01C095C05AA62
:104D2000A01C105C41EA002000B2A8F8020005A90E
:104D3000601D095C201D105C41EA002000B2A8F84B
:104D40000400A01DC4B2B6F9000040F00800308095
:104D50001F48408900F4C07008B305A9601C085CB6
:104D6000095D40EA012000B2388005A9E01C095C19
:104D700005AAA01C105C41EA002000B2788005A9B9
:104D8000601D095C201D105C41EA002000B2B88063
:104D9000A01DC4B2B6F9000040F0700030800C488D
:104DA000807A00F0030018B105A90819FFF7B4FED6
:104DB0004846FDF734FF002012E701460448016031
:104DC0000020704701460248416000207047000003
:104DD000800500202DE9F04105460C46AA480168EF
:104DE000204602F0D3FD0746A8480168384602F085
:104DF000C5FC0646A6480168304602F0BFFAA44941
:104E00000860A4484168A448006802F0BFFD064657
:104E1000A0488168304602F0B9FDA04908609D486D
:104E2000C06880F0004048609A48C06880F0004048
:104E300088609B480068C86008689449096802F067
:104E40009DFC064693480168304602F097FA914966
:104E50000860924948688D49096802F08FFC06464F
:104E60008C484168304602F089FA8A4948608B498B
:104E700088688649096802F081FC06468548816891
:104E8000304602F07BFA834988608449C8687F49CC
:104E9000096802F073FC06467E48C168304602F09D
:104EA0006DFA7C49C8607A480168284602F06EFDB8
:104EB0007C4908607C48007802F018FC064675487A
:104EC0000168304602F05AFC78490860764800785C
:104ED00002F00CFC06466F488168304602F04EFC3A
:104EE000734908607048007802F000FC07466F487C
:104EF0000168384602F042FC06466E4801683046BA
:104F000002F03CFA6C49086008460168674800688E
:104F100002F0A2FA694908606748016864480068BD
:104F200002F09AFA664908606048006865490860BE
:104F30005D48007802F0DAFB064656484168304684
:104F400002F01CFC604908605E4801685B4800682C
:104F500002F014FC06464F480168304602F00BFD93
:104F60004C490860584801685448006802F006FC43
:104F7000064648484168304602F0FDFC4549486015
:104F8000504801684E48006802F0F8FB0646414868
:104F90008168304602F0EFFC3E4988604A4801686B
:104FA0004748006802F0EAFB06463A48C1683046C6
:104FB00002F0E1FC3749C8603A4801683F480068A0
:104FC00002F0DCFB064632480168304602F0D6F9B2
:104FD0002F490860334801683948006802F0CEFB69
:104FE000064629480168304602F0C8F9264908609B
:104FF00008460168204602F0C9FC34490860BDE853
:10500000F0812DE9F04F8BB083468A46504602F07E
:1050100089F980462E4A2F4B01F0AAFECDE9020104
:105020001B48006802F07EF9CDE90001DDE90223AA
:1050300001F00CFC04460D46274801684FF07E50F5
:1050400002F0A4FC804602F06DF9064622462B468B
:1050500001F08EFECDE906011F480168584602F0B6
:105060008DFB044602F05EF9CDE90401DDE906237B
:1050700001F0ECFBCDE9080101F0B6FB0449086042
:105080000BB0BDE8F08F0000E4000020DC00002041
:10509000C800002008010020D0000020900500205A
:1050A000D4000020E8000020E0000020EC000020F8
:1050B000F0000020D8000020F4000020F8000020BC
:1050C000FC0000200001002004010020CC00002092
:1050D0007B14AE47E17A743FC4000020014691F989
:1050E0000020002A01DD00201EE091F90020002AA6
:1050F00001DA042018E091F90120002A01DD0120E5
:1051000012E091F90120002A01DA05200CE091F962
:105110000220002A01DD022006E091F90220002A87
:1051200001DA062000E00720704770B505462846E2
:10513000FFF7D4FF0446E81CFFF7D0FF44EAC000A5
:1051400084B2A81DFFF7CAFF44EA801084B220464B
:1051500070BD70B588B002A905A8FEF70EFD044623
:10516000072C3FD101A8FDF77DFF059802F0A6FAB4
:105170000646019902F002FB054602F063FA05902B
:10518000069802F09BFA0646019902F0F7FA0546E6
:1051900002F058FA0690079802F090FA0646019934
:1051A00002F0ECFA054602F04DFA079005A8FEF76A
:1051B000F4FF6846FDF773FFBDF8001002984843FE
:1051C0000290BDF80010039848430390BDF800100A
:1051D00004984843049002A8FFF772F8FEA000F07C
:1051E00023FD00BF08B070BD2DE9F04304460D4615
:1051F000DDE907670021012041E0DFF800C43CF849
:105200001080A0F1010CDFF8F49329F81C8009F15B
:10521000160C3CF81090A0F1010CDFF8E08308F1C7
:10522000160828F81C9008F1160C3CF81090A0F114
:10523000010C08F1160828F81C9008F1160C3CF82F
:105240001090A0F1010C08F1160828F81C9008F144
:10525000160C3CF81090A0F1010C08F1160828F883
:105260001C9008F1160C3CF81090A0F1010C08F10C
:10527000160828F81C9000F1010C0CF0FF000A2819
:10528000BBDBDFF878C3ACF81240ACF82850ACF8C0
:105290003E20ACF85430ACF86A60ACF88070002165
:1052A000002008E0DFF854C33CF910C0614400F16D
:1052B000010C0CF0FF000A28F4DB4FF00A0C91FB04
:1052C000FCFC0FFA8CFCDFF83483A8F814C0002132
:1052D00000200AE0DFF824C30CF1160C3CF910C0E2
:1052E000614400F1010C0CF0FF000A28F2DB4FF0E2
:1052F0000A0C91FBFCFC0FFA8CF8DFF800C3ACF849
:105300002A80002100200AE0DFF8F0C20CF12C0C0A
:105310003CF910C0614400F1010C0CF0FF000A28B8
:10532000F2DB4FF00A0C91FBFCFC0FFA8CF8DFF873
:10533000CCC2ACF84080002100200AE0DFF8BCC2FB
:105340000CF1420C3CF910C0614400F1010C0CF06E
:10535000FF000A28F2DB4FF00A0C91FBFCFC0FFA6D
:105360008CF8DFF898C2ACF85680002100200AE0E3
:10537000DFF888C20CF1580C3CF910C0614400F110
:10538000010C0CF0FF000A28F2DB4FF00A0C91FB35
:10539000FCFC0FFA8CF8DFF864C2ACF86C800021DA
:1053A00000200AE0DFF854C20CF16E0C3CF910C08A
:1053B000614400F1010C0CF0FF000A28F2DB4FF011
:1053C0000A0C91FBFCFC0FFA8CF8DFF830C2ACF849
:1053D0008280BDE8F08338B50446032302226B21A6
:1053E000D0200094FCF758FA38BD38B504460223A3
:1053F00004221B21D0200094FCF74EFA38BD38B5AA
:105400000446022304221C21D0200094FCF744FA15
:1054100038BD10B50446234606226B21D020FCF788
:1054200070FA10BD10B5764B01227521D020FCF723
:10543000C0F97348007810BD10B5FFF7F3FF682876
:1054400001D1012010BD0020FCE710B50446234621
:1054500005226A21D020FCF754FA10BD10B504468D
:10546000234601223721D020FCF74BFA10BD10B59E
:105470000220FFF7B0FF0320FFF7B7FF0020FFF780
:10548000BEFF0020FFF7C5FF0020FFF7DEFF002072
:10549000FFF7E4FF10BD38B5002000906B460122F5
:1054A00075216820FCF727F956A000F0BDFB9DF898
:1054B0000000682810D000BFBFF34F8F5A48006823
:1054C00000F4E06059490843001D57490860BFF3E4
:1054D0004F8F00BF00BFFEE7FDF7D1FA00283CD197
:1054E0007820FCF734FF10B946A000F09DFB78202F
:1054F000FDF714F910B94EA000F096FBC820FDF797
:10550000EEF910B954A000F08FFBFEF7ABFD10B917
:105510005BA000F089FB6748FFF707FE0446FEF733
:10552000ABFD10B964A000F07FFB40F27310FFF7F1
:10553000E4F910B96AA000F077FBC820FEF756FF27
:1055400010B971A000F070FBFFF703FE0120FEF719
:10555000CFFA10B975A000F067FB38BD2DE9F04F08
:1055600089B007A87A4908AB03AACDE900107949A8
:105570007948FFF721FB7648008800F48070002806
:1055800028D0039802F09AF804464FF09D4101F0AC
:1055900063FF72490860049802F090F804464FF0E7
:1055A0009D4101F059FF6E490860059802F086F8A8
:1055B00004464FF09D4101F04FFF6A49086006988C
:1055C00002F07CF804464FF09D4101F045FF66492A
:1055D0000860CBE0F8E0000073657474696E6720C2
:1055E000626961732073756363657366756C6C794A
:1055F000202E2E2E2E2E2E0D0A000000AE0500208D
:10560000A00500206D70755F7365745F73656E73C0
:105610006F7220636F6D706C657465202E2E2E2E58
:105620002E2E0D0A000000000CED00E00000FA052F
:105630006D70755F636F6E6669677572655F6669C9
:10564000666F20636F6D706C657465202E2E2E2E34
:105650002E2E0D0A000000006D70755F7365745F7B
:1056600073616D706C655F7261746520636F6D70DE
:105670006C657465202E2E2E2E2E2E0D0A00000035
:10568000646D705F6C6F61645F6D6F74696F6E5F86
:105690006472697665725F6669726D7761726520A2
:1056A000636F6D706C657465202E2E2E2E2E2E0D60
:1056B0000A0000003C010020646D705F7365745F38
:1056C0006F7269656E746174696F6E20636F6D705F
:1056D0006C657465202E2E2E2E2E2E0D0A000000D5
:1056E000646D705F656E61626C655F66656174753F
:1056F000726520636F6D706C657465202E2E2E2E82
:105700002E2E0D0A00000000646D705F7365745FDB
:105710006669666F5F7261746520636F6D706C653A
:105720007465202E2E2E2E2E2E0D0A006D70755FA4
:105730007365745F646D705F737461746520636F0B
:105740006D706C657465202E2E2E2E2E2E0D0A0087
:10575000240100201E010020180100202C0100203F
:105760003001002034010020380100203348016856
:105770004FF0804002F002F8019031480168019832
:1057800001F0FCFF02902F4801684FF0404001F00B
:10579000F5FF01902C480168019801F0EFFF834666
:1057A000029901F0EBFD824601F0BCFD064600F0D7
:1057B000E5FC04464FF06632244B01F0D9FA8046EE
:1057C00001F012F82249086009B0BDE8F08F2DE918
:1057D000F05F4221D020FBF7C9FF05464121D020D0
:1057E000FBF7C4FF05EB0024204601F067FF82466B
:1057F0004FF08E41504602F08DF805D24FF08F41A8
:10580000504602F0C3F882461249504601F024FE89
:10581000834601F087FD80460F4A104B01F016F8D1
:10582000064600220E4B01F0A3FA044600F0DCFF0E
:105830008246504601F006FFBDE8F09F2C01002093
:1058400034010020300100203801002066A64C40C1
:10585000280100200000AA43A4703D0AD74342401B
:105860000000244038B50020BA490860FBF76EF804
:10587000B9A200210846FBF770F90C200123009023
:10588000B748027800211E20FBF71DF9B4480078C4
:10589000012805D1B3A200212D20FBF75EF912E00B
:1058A000AF480078022805D1AFA200212D20FBF7D8
:1058B00054F908E0AA480078032804D1ACA20021DA
:1058C0002D20FBF74AF9ACA20A210020FBF745F98D
:1058D000AB4800680A2190FBF1F40C200223224619
:1058E00000902D20FBF7EFF8A54800680A2190FBF7
:1058F000F1F201FB12040C20012322460090442007
:10590000FBF7E1F89FA20A213A20FBF726F99EA2B5
:105910000A215020FBF721F99CA214210020FBF75B
:105920001CF99C48006800280FDA9BA214212D2046
:10593000FBF713F90C2005230090964800684242BB
:1059400014214120FBF7BFF80DE094A214212D2073
:10595000FBF703F90C20052300908E481421026800
:105960004120FBF7B0F88EA21E210020FBF7F5F8CE
:105970008D48006800280FDA87A21E212D20FBF732
:10598000ECF80C20052300908748006842421E2155
:105990004120FBF798F80DE080A21E212D20FBF797
:1059A000DCF80C20052300907F481E21026841206E
:1059B000FBF789F87DA228210020FBF7CEF871A221
:1059C00028213A20FBF7C9F87AA228215020FBF7BA
:1059D000C4F879480068642190FBF1F40C2002239C
:1059E0002246282100902D20FBF76DF872480068B0
:1059F000642190FBF1F201FB12040C2002232246E9
:105A0000282100904420FBF75EF86B480068642171
:105A100090FBF1F201FB12000A2807DA0C200223A6
:105A20000022282100903E20FBF74DF863A232218E
:105A30000020FBF792F800216248006801F06AFE3E
:105A400011D261495F48006801F098FC054601F0F9
:105A500015FE04460C2003232246322100902D20FF
:105A6000FBF731F80CE05748006801F007FE0446E8
:105A70000C2003232246322100902D20FBF723F82F
:105A8000FAF741FF38BD10B532480068401C314973
:105A90000860012803D1FAF775FFFAF765FF0121C5
:105AA00048480068FCF7FAFA3F48006801F006FE33
:105AB00004460221FCF7F2FA3648006801F0FEFDC8
:105AC00004460321FCF7EAFA3B48006801F0F6FDC2
:105AD00004460421FCF7E2FA05210020FCF7DEFA77
:105AE00006210020FCF7DAFA07210020FCF7D6FA9D
:105AF00008210020FCF7D2FA09210020FCF7CEFA99
:105B00000A210020FCF7CAFA0A20FCF716FB2F49ED
:105B1000087000202E49087012E000BF2D48008850
:105B200000F040000028F9D02B4829490978405C52
:105B30002849091D088026480078401C244908701F
:105B400023480078214909788842E6DB3220FAF7B9
:105B50000DFC10BD500100205741592D00000000E0
:105B600000000020444D50004B616C6D616E0000E0
:105B7000487562750000000057656E64750000008E
:105B8000180000202E00000060430000456E636F87
:105B900031000000080000202D0000002B00000054
:105BA000456E636F320000000C000020566F6C746D
:105BB00061000000560000001C000020416E676C70
:105BC00065000000200000200000B4434D010020CB
:105BD0004C0100200038014054050020704710B5EA
:105BE0004C1084EA530404D54042C1F1000138BF8F
:105BF000491E1B4204D55242C3F1000338BF5B1E4D
:105C000000F0C4F814F0804F04D04042C1F100010C
:105C100038BF491E14F0004F04D05242C3F10003B4
:105C200038BF5B1E10BD00000FB4044910B503AAB5
:105C3000029800F087F910BC5DF814FB34000020D6
:105C40002DE9F0410E460446002020622046E1681E
:105C5000884730B3252805D0D4E901219047206A30
:105C6000401CF2E7E168204600278847050018D06D
:105C7000A5F14100192802D820354FF400673246BB
:105C8000294620462760FAF78BFA40B1012804D054
:105C9000F61D26F007060836D8E7361DD6E7284653
:105CA000DAE7206ABDE8F0812DE9F04106460024DC
:105CB00010687529314615A510D0AFF30080002873
:105CC00002DA404212A507E031688A0701D511A522
:105CD00002E0490704D510A5012401E0AFF30080DC
:105CE00000210A2306F1240707E0B0FBF3F203FBCF
:105CF0001200303078541046491C0028F5D1234654
:105D00002A463046BDE8F04100F0C2B8000000006D
:105D10002D0000002B0000002000000040EA0103DD
:105D200010B59B070FD1042A0DD310C808C9121F44
:105D30009C42F8D020BA19BA884201D9012010BD7E
:105D40004FF0FF3010BD1AB1D30703D0521C07E04B
:105D5000002010BD10F8013B11F8014B1B1B07D1AF
:105D600010F8013B11F8014B1B1B01D1921EF1D120
:105D7000184610BD02F0FF0343EA032242EA024242
:105D800000F0F4B8704770477047704753EA020C50
:105D900000F069802DE9F04B4FF00006002B1FBF8B
:105DA000B3FA83F503FA05F424FA05F65E4012BF50
:105DB0001643B2FA82F502FA05F4C5F120051EBFBA
:105DC00022FA05FC44EA0C04203556EA044C4FEA5A
:105DD000144418BF641C4FF000084FF000099042B3
:105DE00071EB030C39D3002919BFB1FA81F701FA1D
:105DF00007F6B0FA80F700FA07F6C7F120071EBFD2
:105E000020FA07FC46EA0C062037B6FBF4FCA7EBA9
:105E10000507103F07F01F0BCBF120060CFA0BFB18
:105E20002CFA06F644BFB3460026202FA4BF5E46D8
:105E30004FF0000B5BEA060C08BF4FF0010B19EBAB
:105E40000B09ABFB027C48EB0608C01B06FB02CC2F
:105E50000BFB03CC71EB0C01C1E70B46024641463C
:105E60004846BDE8F08B13B54FF000004FF000013D
:105E7000AFF30080BDE81C40704710B500F096F805
:105E8000006810BD10B5044600F090F8046010BD25
:105E90002DE9F0470D4699469246044600F1240844
:105EA0000168880604D5E06921F01001216000E056
:105EB0000120A84201DD471B00E00027A1697A19F3
:105EC00002EB0900081AA0612078C00602D420461F
:105ED000AFF30080002608E0D4E901211AF806009B
:105EE0009047206A401C761C20624E45F4DB2078E7
:105EF000C0060AD52046AFF3008006E0D4E90121B0
:105F000030209047206A401C2062381EA7F101070C
:105F1000F4DC07E0D4E9012118F805009047206A75
:105F2000401C2062281EA5F10105F3DC2046AFF3DA
:105F300000802078000602D50220BDE8F08701200D
:105F4000FBE70000074B70B50D467B4400F037F8C7
:105F50000446284600F046F810B14FF0FF3070BDFF
:105F6000204670BD21A7FFFF4FF000020429C0F0BA
:105F7000128010F0030C00F03B80CCF1040CBCF15B
:105F8000020F18BF00F8012BA8BF20F8022BA1EBCD
:105F90000C0100F02DB85FEAC17C24BF00F8012B92
:105FA00000F8012B48BF00F8012B704700487047EC
:105FB0003406002001694A1C02610878704700B568
:105FC0008FB0CDE901310021059105497944CDE932
:105FD000031011466846FFF733FE0FB000BD000006
:105FE000E5FFFFFF007B00F0800070474FF00002EC
:105FF00000B5134694469646203922BFA0E80C50BF
:10600000A0E80C50B1F12001BFF4F7AF090728BF99
:10601000A0E80C5048BF0CC05DF804EB890028BF15
:1060200040F8042B08BF704748BF20F8022B11F03E
:10603000804F18BF00F8012B7047000000487047E0
:10604000340600207546FFF7F9FFAE4605006946A5
:10605000534620F00700854618B020B5FAF7CAF875
:10606000BDE820404FF000064FF000074FF0000859
:106070004FF0000B21F00701AC46ACE8C009ACE8DA
:10608000C009ACE8C009ACE8C0098D4670470446B9
:10609000AFF300802046FAF795F8490050EAC12096
:1060A00018BF04204A0D18BF40F0010040F2FF72F3
:1060B000B2EB515F08BF40F00200012808BF052085
:1060C00070472DE9F0414F1E00EBC7010446D1E9AE
:1060D000000115461E4637F006020DD02A4633460B
:1060E00000F046FE7F1E04EBC703D3E9002300F057
:1060F000ADFB37F00602F1D1022F25D0042F13D0CB
:10610000062F18BFBDE8F0812A46334600F030FE66
:10611000D4E90A2300F09AFB2A46334600F028FE11
:10612000D4E9082300F092FB2A46334600F020FE13
:10613000D4E9062300F08AFB2A46334600F018FE15
:10614000D4E9042300F082FB2A46334600F010FE17
:10615000D4E9022300F07AFB2A46334600F008FE19
:10616000D4E90023BDE8F04100F070BB024A0020F2
:10617000110701F0B2BC000001FDFFFF2DE9F04D59
:10618000904F21F0004A86B005460C46BA4530DBF8
:10619000AAEB070028430CD08B48824501DC1CD1B8
:1061A000DDB106B02846BDE8F04D4FF0010201F028
:1061B00094BC864A864B284600F0DAFD07460E4618
:1061C000844A854B2846214600F0D2FD06B03A4667
:1061D0003346BDE8F04D00F039BB0120FFF752FE19
:1061E00006B00022BDE8F04D13461046114600F0FF
:1061F000E9BB7A48824542DABAF1795F0BDA284680
:10620000FFF74BFF042808BFFFF7B0FF284606B092
:106210002146BDE8F08D2A460B46104600F0A8FD49
:10622000834602466E480E460B4606217844FFF729
:1062300048FF5A46334600F09BFD804669488A462F
:106240005A46334604217844FFF73BFF5A4633460B
:1062500000F08EFD00223B4600F0F8FA02460B46A5
:106260004046514600F0AEFB2A46234600F080FD32
:1062700006B02A462346BDE8F04D00F0E7BA2846AE
:1062800024F0004100223D463B4600F06FFE4FF0F7
:10629000FF3201F022FC0646024653480F460B46E9
:1062A00006217844FFF70DFF32463B4600F060FDC3
:1062B000CDE900014D4832463B4604217844FFF7C2
:1062C00000FF32463B4600F053FD00222B4600F013
:1062D000BDFA834602913046394600F05FFA8046A7
:1062E00043480D46504517DCDDE900015A46029B44
:1062F00000F068FB42462B4600F03AFD42462B4632
:1063000000F0A4FA012201F0E8FB304A304B00F023
:106310001FFF304A304B4CE04FF0000A52460B460C
:10632000404600F093FACDE9031052462B46104642
:10633000194600F01DFD32463B4600F017FEDDE930
:10634000033200F03FFB06460F46DDE900015A46E6
:10635000029B00F037FB834600910122304639460C
:1063600001F0BBFB194A1A4B00F000FE06460F462F
:1063700001224046294601F0B0FB5A46009B00F03E
:10638000F7FC32463B4600F0E3FE07460E4601228C
:106390005046294601F0A1FB0E4DDFF858802A46F1
:1063A000434600F0E3FD3A46334600F0DFFD2A465F
:1063B000434600F0DBFD002CD8BF81F0004106B061
:1063C000BDE8F08D0000F03F0000F07F075C143363
:1063D00026A6913C182D4454FB21F93F0000E03FD4
:1063E000E82F0000FE2F0000722F0000882F000011
:1063F0003333EF3FFB21E93F2DE9F84F04460D46CB
:1064000021F0004000917449814213DC73498842B5
:1064100001DC08D13CB120462946BDE8F84F4FF0D9
:10642000010201F05ABB6E48002DCCBF6D496E4988
:10643000BDE8F88F6D49814211DD6D498142D8BFB9
:106440004FF0FF366DDD20462946FFF726FE042873
:1064500008BFFFF78BFE20462946BDE8F88F654947
:10646000654F25F00045814233DD6449814219DDE5
:10647000002632464FF080432046294600F0E6F9D8
:1064800080468A4601222046294601F026FB00224A
:106490003B4600F05DFE4246534600F093FA044648
:1064A0000D463EE001260022BA463B4620462946DC
:1064B00000F0CCF980460F4600225346204629467C
:1064C00000F046FE42463B4600F07CFA04460D468C
:1064D00027E04B4981421BDDDFF82881022600229C
:1064E00043462046294600F043FC00223B4600F08C
:1064F000ADF907468A46002243462046294600F069
:1065000027FE3A46534600F05DFA04460D4608E081
:10651000032622462B4600203B4900F053FA04464E
:106520000D4622462B461046194600F021FC8B46AC
:10653000824602460B4600F01BFC074602463348E3
:1065400088460B4606217844FFF7BBFD52465B4662
:1065500000F00EFC82462E488B463A464346052103
:106560007844FFF7AEFD3A46434600F001FC024690
:106570000B46002E504659460CDA00F067F92246C9
:106580002B4600F0F5FB01B022462B46BDE8F04F4C
:1065900000F0ECBC00F05AF922462B4600F0E8FB74
:1065A0001C4A7A4402EBC603D3E9002300F0D0FD75
:1065B00022462B4600F0CCFD174A7A4402EBC60374
:1065C000D3E9002300F0D2FC009A002AB8BF81F082
:1065D0000041BDE8F88F0000000010440000F07F8B
:1065E000182D4454FB21F93FFB21F9BF0000DC3F8B
:1065F0000000203E0000F33F0000F03F0000E63FB7
:10660000008003400000F83F0000F0BF862D00002E
:10661000442D0000E22C0000AA2C00002DE9F04DD2
:106620009446CCF1000423F000464CEA0404524F97
:1066300046EAD4749A46884621F00042BC4206D805
:10664000454240EA050442EAD474BC4204D9BDE89C
:10665000F04D624600F0FAB8AAF14055A5F17F6509
:1066600055EA0C040BD0022404EAAA74434DDFF867
:1066700010E144EAD87452EA000B04D00CE0BDE803
:10668000F04DFFF7B9BE002C14BF012CBDE8F08D12
:10669000022C30D0032C32D056EA0C0B0AD0BE426A
:1066A00020D1BA4209D126F0804622F080423346FA
:1066B000114617E000291ADB25E0DFF8C8B0FB44DB
:1066C000002C04BFDBE90001BDE8F08D012C02BF06
:1066D000DBE9000181F00041BDE8F08D022C0AD019
:1066E000032C0CD0BA4212D1B8F1000F0BDA2348B8
:1066F0002549BDE8F08D28462449BDE8F08D28469F
:106700007146BDE8F08D1D482149BDE8F08D921B12
:1067100012153C2AC4BF19481D490EDCBAF1000FFE
:10672000BEBF12F13C0F0020014606DB624600F0BE
:1067300049F921F00041FFF75FFE002C08BFBDE8DA
:10674000F08D012C04BF81F00041BDE8F08D114AAD
:10675000114B022C07D000F0FBFC2A46BDE8F04D9F
:106760000A4B00F0F5BC00F0F3FC2A46BDE8F04D02
:10677000064B00F0FBBB00000000F07F182D4454D6
:10678000FB2109C03E2C0000FB21F9BFFB21094081
:10679000FB21F93F075C143326A6A13C2DE9F0410B
:1067A00006460F4600F0EEFB04000D4618BF012020
:1067B000284320F00040C0F17F6000F1E040C00FAE
:1067C0000ED0301C18BF0120384320F00040C0F12B
:1067D0007F6000F1E040C00F04BF0120FFF752FBD3
:1067E00020462946BDE8F08121F00042A2F1605226
:1067F000B2F5801F01F0004328BFD2F17F6C0BD9A6
:106800005FEA001C43EAC20242EB507018BF7047B7
:1068100028BF20F001007047B2F5801FBCBF1846AA
:1068200070474FEA410C1CF5001F02D2084601F0E8
:106830006CB870B500F046FB00000089FFF7F6BFAA
:106840004FF00040A0F580007047000010B591EABD
:10685000030F48BF83F0004300F18284841A71EB78
:10686000030C05D2121943EB0C03001B61EB0C0166
:10687000DFF824E14FEA1154A4EB135C1EEA430F46
:1068800018BF9EEA445F73D023EA0E03DCF1200EAA
:1068900021EA045143F4801332D322FA0CFE10EBA8
:1068A0000E0023FA0CFE41EB0E01CCF1200E03FA90
:1068B0000EFE10EB0E0051F10001B1F5801FCCF17E
:1068C000200E32D201EB045112FA0EF2BDE8104054
:1068D00058BF7047401C38BF5FEA420218BF70477C
:1068E000002814BF20F0010041F100014FEA4103EC
:1068F00013F5001F38BF7047A1F1C04100F030BB55
:10690000012A43EB0302ACF1200CDCF11F0E32BF75
:106910004FF0000E23FA0CF310EB030041EB04518F
:10692000B4EB115FD0D0A1EB045101F580114908FF
:106930005FEA300001EB04510ED350F1000038BF84
:1069400012FA0EFE08D1BDE81040C9E7401C38BF5E
:106950005FEA4202CAD1C3E7BDE810404FEA4103F3
:1069600013F5001F38BF7047A1F1C04100F0F8BA1D
:106970009EEA445F08D011EA5E0FBDE8104004BFF4
:1069800001F0004100207047BDE8104070B500F0F4
:1069900099FA00BF64FBBE3E0000E0FF02494FF0E1
:1069A000000001F068B800BF0000F87F491058BF30
:1069B000C1F140415B1058BFC3F140438B42EFF33C
:1069C000008070472DE9C04130B4DFF8A0C23CEA36
:1069D000111418BF3CEA131400F0EC8081EA03059F
:1069E0001CEA111444EAD57418BF1CEA131500F010
:1069F000C780A4EB05044FF0004545EAC12145EAF4
:106A0000C32341EA505143EA525304F17F7499423F
:106A100004F500344FEAC0204FEAC22208BF90427A
:106A200000F09C804FEA13650FF24016765D4FEA46
:106A3000134506FB05F7C7F1807706FB07F74FEA1A
:106A4000D737A7FB03687642C8F58038A7FB06CE88
:106A500038BFA8F1010807FB08E64FF0000EA6FBBF
:106A6000028CE6FB03CEDCF1000CCEF1004E38BF09
:106A7000AEF1010EA6FB0C584FF000074FF00005D9
:106A8000E6FB0E87A1FB08C6A0FB07CE16EB0E06A1
:106A900045F10005E1FB076515F1E04E7EBFA4F569
:106AA00080345FEA46066D4116F1800745F1000526
:106AB0004FEA17274FEA066647EA0567A6F1DE4662
:106AC000B6F1805F4FEA15251FD9384624F0010C36
:106AD00005EBC471BCF1FE6F01EB0C1102D8F0BCE8
:106AE000BDE8008124425CBF01F5801E9EEAC47FA0
:106AF00002D4F0BCBDE80081244238D4F0BCA1F13E
:106B0000C041BDE8004100F02BBA4FEAD22242EA70
:106B100043524FEAD323A7FB02864FEAD02040EA34
:106B2000415007FB03661EEA0E0F4FEAD12105FB19
:106B3000026658BFA6EB0056B6EB00564FEA520E5F
:106B40004EEAC37E18EB0E0E56EB530EBDD518EB76
:106B500002085E417F1C55F10005B6E74FF4801531
:106B60004FF000074FF000064FF00008ADE7F0BC13
:106B70004FF0000001F1C04101F00041BDE800818B
:106B800011EA0C1F0CEA131500D00CE013EA0C1FDD
:106B900000F025804FF00000F0BC81EA030101F015
:106BA0000041BDE80081F0BC81EA0301BDE800417D
:106BB00000F0D6B9F0BCBDE8004170B500F082F934
:106BC000097EFC3E00F007B881EA03014FF00000A7
:106BD00001F00041704781EA030100F0C1B9F0BC47
:106BE0004FF000002249BDE800417047FFFDFBF96E
:106BF000F7F5F4F2F0EEEDEBE9E8E6E4E3E1E0DEF0
:106C0000DDDBDAD8D7D5D4D3D1D0CFCDCCCBCAC861
:106C1000C7C6C5C4C2C1C0BFBEBDBCBBBAB9B8B788
:106C2000B6B5B4B3B2B1B0AFAEADACABAAA9A8A87B
:106C3000A7A6A5A4A3A3A2A1A09F9F9E9D9C9C9B49
:106C40009A999998979796959594939392919190F4
:106C50008F8F8E8E8D8C8C8B8B8A89898888878785
:106C60008685858484838382828181800000FF07FA
:106C70000000F87F4FEA41034FEA5353A3F58063C6
:106C8000D3F11E03C8BFD3F1210C0CDD4FF000423D
:106C900042EAC12242EA505232FA03FC8CEAE17C19
:106CA000ACEBE1707047102BC4BF0020704703F5B8
:106CB000787CBCF1FF3F04D06FF0004282EA2100F3
:106CC000704770B500F0FEF84992248000207047AC
:106CD000F2E7B0FA80F310FA03F10AD0C3F11D0312
:106CE00003F580634FEA41504FEA035202EBD12192
:106CF00070474FF00000704751EA030C17D41CF5A1
:106D0000801F58BFBCF5801F00F10680994218BF54
:106D1000704708BF9042704707D711F5801F58BFD2
:106D200013F5801F19D499427047894270471CF5AA
:106D3000801F08D5BCF5801FF7D58B4218BF704760
:106D400008BF824270474FF4001C1CEB410F38BF54
:106D50001CEB430F01D28B42704770B500F0B2F8C4
:106D6000922449004FF000514FF08053FFF71EBEB0
:106D7000DFF848C170B51CEA111E1EBF1CEA1315CE
:106D80009EEA0C0F95EA0C0F00F06F8081EA030475
:106D900023EA4C134EEAD47E21EA4C1141F48011CF
:106DA00043F48013AE44A1FB024CA0FB0365AEF19B
:106DB0007F7E361955EB0C05A1FB034C4CF100030B
:106DC000A0FB021C16EB0C06654153F100030942BF
:106DD00018BF46F0010613F4007F0BD14FEA0331D0
:106DE0004FEA0530340341EA155140EA16506FF07E
:106DF00003020AE04FEAC3214FEAC520F40241EA48
:106E0000555140EA56506FF0020202EB2E4201EB60
:106E1000025585EACE710AD05FEA440C18BF24F00F
:106E2000004450F1000041F1000120EAD47040F22A
:106E3000FE7C624500D270BDA84214BF4FF0804472
:106E40004FF04044002E08BF0024BEF1806FA8BF61
:106E5000A1F1C041BDE8704080F282804FF0000097
:106E600001F1C04101F0004170479EEA0C0F0CEAAD
:106E7000131518BF95EA0C0F06D04FF0000081EAF9
:106E8000030E0EF0004170BD00F01CF88900013EB9
:106E900000F007B800F009B84FEA430C5FEA5C5C09
:106EA00008D081EA030100F05BB84FEA410C5FEAC9
:106EB0005C5CF6D14FF00000014970470000FF070D
:106EC0000000F87F0EF1020E2EF0030E5EF8046B48
:106ED000364205D4012A43EB030515F5001F12D8ED
:106EE000012841EB010C1CF5001F0CD80ED14FEA14
:106EF000D17C15F5001F0CEB4C0C0CF1020C08BFFB
:106F00004CEBD37C04E04FF0080C01E04FEAD37C5B
:106F10000CEB4C0526FA05F606F00706B6F1040C54
:106F200006D20EEB860CBDE870404CF0010C6047B9
:106F3000DFE80CF0090B02024FF000414FF00000B7
:106F4000A1F5002170BD19461046012851EB01043E
:106F500018BFD4F5001484BF002001F0004170BDBB
:106F60000808A0F500114FEA3101704791EA030FBC
:106F700010B581F000413FF571AC83F0004300F0A3
:106F8000EFB800002DE9F04101F5801CBCF5001FB1
:106F9000C0F2C3804FEA115C21EA0C510CF1FD0CE8
:106FA00041F480115FEA5C0C0CF5C07C01D3400019
:106FB00049413DA4890241EA905187028E0E0A0C94
:106FC000A45D04FB04F602FB06F6C6F14046A4FBF2
:106FD0000662F60D46EA422606FB06F4A4FB0123F0
:106FE0005242C3F1404338BF5B1EA6FB024200245D
:106FF000E6FB0324D20B42EA4446A6FB0623A1FB90
:1070000002E2A3FB07E4A4184FF0000252F10002D1
:10701000E3FB01426442C2F1404E38BFAEF1010EC3
:10702000A6FB04234FF00002E6FB0E32A2FB034650
:107030004FF00004B61954F10004E2FB0264A1FB16
:1070400006E6A4FB07E816EB08064FF0000858F127
:107050000008E4FB01687642C8F1405838BFA8F147
:107060000108A2FB06E4A3FB08E52D194FF000047C
:1070700054F10004E2FB0854A1FB05E6A7FB04E879
:1070800018EB06084FF0000656F10006E1FB0486F7
:1070900018F1200556F10006A809A8F11B08B1094E
:1070A00008F03F08B8F10A0F40EA86601CD901EBEE
:1070B0000C51BDE8F08100BFFCF5EEE8E2DDD8D36D
:1070C000CFCBC7C3C0BDB9B6B4B1AEACA9A7A5A359
:1070D000A19F9D9B9A9896959392908F8D8C8B896A
:1070E0008887868584838281A0FB006800FB01F28B
:1070F00008EB4208B8EB872807D5341858EB010491
:10710000D5D5401C51F10001D1E7341A78EB0104C8
:10711000CDD4401E71F10001C9E75FEA4C0C5FEA73
:107120009C5C0DD105D34FF0000001F00041BDE89B
:10713000F081BDE8F04170B5FFF7C4FE6DDBFFBE26
:10714000BDE8F0414FF00000004970470000F87FB3
:1071500010B591EA030F48BF83F000433FF57EABC3
:10716000841A71EB030C07D212198CF0004C43EB1C
:107170000C03001B61EB0C01DFF8A4E14FEA115492
:10718000A4EB135C1EEA430F18BF9EEA445F00F0B5
:10719000B08023EA6E03524221EA0451C3EB6E032E
:1071A00038BF5B1EDCF1200E25D322FA0CFE10EB5B
:1071B0000E0043FA0CFE41EB0E01CCF1200E03FA57
:1071C0000EFE10EB0E0051F10001CCF1200E29D47F
:1071D00012FA0EF201EB0451BDE8104058BF70479F
:1071E000401C1CBFB2F1004F704700280CBF491C67
:1071F00020F00100704712EB020E43EB030218BFB0
:107200004FF0010E4EEA4202ACF1200CDCF11E0EF2
:1072100054D943FA0CFE10EB0E0051F1FF31CCF1C2
:107220001E0ED5D50EF1010E12FA0EFE404141EBB5
:10723000010101EB445C5FEA5C5C10D910EBDE708D
:1072400001EB045138BFBEF1004FBDE8104018BF3C
:10725000704700280CBF491C20F00100704730D255
:107260004FEAD42C11F5001124F400641BD0B1FABC
:1072700081F20B3AA41AA41ED2F12003914030FAF5
:1072800003F31943904001EBCC71002C01EB045146
:10729000BDE81040A8BF704701F1C0414FF00000A9
:1072A00001F000417047B0FA80F310FA03F100D109
:1072B00010BDE41A173C4805C90AE4E701EB045184
:1072C00010BD491001EB0451BDE810404FEA3000F9
:1072D00002E04FF0000170474A0008BF0042F8D0BA
:1072E000B2F5001F28BF704701F000414FF00000C9
:1072F00070479EEA445F07D011EA5E0FBDE8104078
:1073000004BF002100207047BDE8104070B5FFF7B2
:10731000D9FD00BF40DFF63E83F0004110467047C4
:107320000000E0FF43004FEAD30C4FEA3C0C43401F
:107330001FBF40070CF1605113F0FE4F70471CF067
:10734000006F03D100200CF0004170470CF00043A7
:1073500043EA507010B540EACC0000F090FA00BF4C
:10736000000000924FEA0001FFF7FABD4FF0004124
:107370004FF00000A1F500217047000090EA010FD6
:1073800048BF81F0004100F10883421A3CBF801AD7
:1073900089184FEAD0524FF07F4C1CEA410FA2EB04
:1073A000D15318BF9CEA026F00F03B804FF0004CB5
:1073B0004CEA00204CEA012121FA03FC10EB0C0CF2
:1073C0001ED202F1FF325FEA1C2040EBC25038BFF0
:1073D00070471CF07F0F4FEA400C18BFBCF17F4F85
:1073E00038BF7047C3F12003994008BF20F0010067
:1073F000BCF17F4F38BF7047A0F1C04000F085BAA4
:107400004FEA3C00000A40EBC25028BF1CF0FF0FBF
:107410004FEA400CE6D018BFBCF17F4F38BF704731
:10742000EAE79CEA026F05D010EA5C0F08BF00F0A3
:107430000040704710B500F022FA00BF64FBBE3E6A
:10744000401058BFC0F14040491058BFC1F1404101
:107450008142EFF3008070474FF47F0C1CEAD0129A
:107460001EBF1CEAD11392EA0C0F93EA0C0F00F036
:10747000858090EA010F48BF42F4807240F4000C0E
:1074800041F400002CF07F4120F07F4000B58142A4
:10749000A2EB03020FF2081CACEB504EC0F100004F
:1074A0009EF800E04FEA4E0E00FB0EFC38BF49008C
:1074B0004FEA2C1C02F5FA020CFB0EF34FEACE1E2B
:1074C0004FEA112C4FEAC1210EEB635E42EB2242E0
:1074D0000EFB0CFC4FEA1C5300FB03114FEA112C6E
:1074E0004FEA01310EFB0CFC4FEADC4C00FB0C11A7
:1074F000C14228BF09184CEB03335DF804EB10EBD5
:10750000410143EBC250B2F57C0F38BF704729D51B
:1075100012F0F00F1CBF00F1C04000F000407047B7
:10752000008182838485868788898B8C8D8E8F915C
:107530009293959697999A9C9D9FA0A2A3A5A7A880
:10754000AAACAEB0B2B3B5B7B9BCBEC0C2C5C7C9AC
:10755000CCCED1D4D7D9DCDFE2E6E9ECF0F3F7FA10
:10756000FE0000004FEA400C0CF1807CBCF17E4F25
:1075700028BF7047B0F1C04000F0C7B990EA010FD2
:107580000CEAD11348BF42F48072624538BF6345AC
:1075900007D213F47F0F16D080EA010000F00040FC
:1075A000704710B500F06BF9097EFC3E00F005B89D
:1075B00080EA010000F00040704780EA010000F01E
:1075C000004000F0A2B912F47F0F04BF02487047D8
:1075D00080EA010000F099B90000C07F50EA010C78
:1075E00000F113801CF5000F58BFBCF5000F01D44B
:1075F0008842704707D710F5000F58BF11F5000FEC
:1076000015D488427047894270471CF5000F04D595
:10761000BCF5000FF7D5814270474FF0807C1CEB22
:10762000400F38BF1CEB410F01D28142704710B5AB
:1076300000F025F9922449004FF000504FF080519E
:10764000FFF7FEBE41000B0ED3F19E0208D950F4A5
:1076500000034FEA032323FA02F048BF4042704779
:1076600010B500F00CF900BF49922480002070474B
:107670006FF0004282EA200070470000C10DD1F196
:107680009E0206DB4FEA002343F0004323FA02F098
:107690007047004207D54FEA4001B1F1FE4F02D2D8
:1076A0004FF00000704710B500F0E9F849922480CF
:1076B000002070476FEA20007047000010F0004182
:1076C00048BF4042B0FA80F310FA03F2C3F19D03C1
:1076D0000BD051EAC35101EB1220530638BF70475B
:1076E00000F1010008BF20F001007047B0FA80F3FC
:1076F00010FA03F2C3F19D030AD0D90501EB122061
:10770000530638BF704700F1010008BF20F00100A8
:107710007047000050EA010C00F113801CF5000FC7
:1077200058BFBCF5000F01D48842704707D710F549
:10773000000F58BF11F5000F15D4884270478942D9
:1077400070471CF5000F04D5BCF5000FF7D581423A
:1077500070474FF0807C1CEB400F38BF1CEB410F93
:1077600001D28142704710B500F089F89224490097
:107770004FF000504FF08051FFF762BE4FF47F0C86
:107780001CEAD0121EBF1CEAD11392EA0C0F93EA36
:107790000C0F00F0478090EA010F48BF42F480725E
:1077A0004FF0004C4CEA00204CEA012102EB0302AE
:1077B000A0FB0113A2F50002002918BF43F001034A
:1077C0005B0028BF4FEA330342EB22425FEA132CEF
:1077D0004CEBC2502EBFBCEB436FB2F57C0F704731
:1077E0004FEA036CBCF1004F08BF20F00100B2F576
:1077F0007C0F38BF70470BD582F0FF0212F5803F37
:10780000C8BF704700F1C040D8BF00F000407047CB
:1078100000F5000C5FEA4C0C48BF7047B0F1C04067
:1078200000F073B890EA010F0CEAD11348BF42F49C
:107830008072624538BF634504D280EA010000F0DF
:107840000040704710B500F01AF800BF8900013EF3
:1078500000F007B800F009B85FEA410C5FEA1C6C61
:1078600008D080EA010000F050B85FEA400C5FEAFF
:107870001C6CF6D14FF00040A0F5800070470EF16F
:10788000020E2EF0030E5EF8044B244204D44FEA9D
:107890004102B2F17F4F11D84FEA4003B3F17F4F5D
:1078A0000CD80ED14FEAD07CB2F17F4F0CEB4C0CD0
:1078B0000CF1020C08BF4CEBD17C04E04FF0080C3B
:1078C00001E04FEAD17C0CEB4C0324FA03F404F002
:1078D0000704B4F1040C06D20EEB840CBDE8104092
:1078E0004CF0010C6047DFE80CF0070802024FF093
:1078F0000040A0F5800010BD0846420018BFD2F13C
:10790000807288BF00F0004010BDFF2141EAD050D6
:10791000C005704751EA000C00F113801CF5000F00
:1079200058BFBCF5000F01D48142704707D711F54D
:10793000000F58BF10F5000F15D4814270478942DF
:1079400070471CF5000F04D5BCF5000FF7D5884231
:1079500070474FF0807C1CEB410F38BF1CEB400F91
:1079600001D28842704780EA010081EA000180EA82
:107970000100FFF7F8BE80F0004090EA010F7FF5AC
:1079800004AD81F0004100F008B8000090EA010F5A
:1079900048BF81F000413FF5F8AC421A04D882F0AC
:1079A0000042A0EB020011444FEAD0524FF07F4C4E
:1079B0001CEA410FA2EBD15318BF9CEA026F4AD0D8
:1079C0004FF0004C4CEA00204CEA012121FA03FC64
:1079D000B0EB0C0C0FD412F0FE0F36D05FEA4C0067
:1079E0001DD5001240EBC25038BF70471CF03F0F4E
:1079F00018BF70470BE0A2F101025FEA1C2040EBC8
:107A0000C25038BF70471CF07F0F18BF7047C3F1DA
:107A10002003994014BF401E20F0010070478008E9
:107A20004FEA122308BF7047B0FA80FCA2EB0C02A9
:107A3000CCF1280C60FA0CF093EA122F04BF00EB93
:107A4000C25070474FEAC3707047130A5FEADC10F8
:107A500008BF7047F6E79CEA026F04D010EA5C0F9B
:107A600008BF0020704710B5FFF709FF40DFF63E62
:107A700081F0004070470CF00F03092B08BF08206D
:107A800000F059800A2B0BD0082B18BF704708BF95
:107A90001CF0400F0AD04FF000004FF0000170477B
:107AA0001CF0400F18BF4FF0004070471CF0100F43
:107AB00008D020F0704300F07F4242EAD3014FEA41
:107AC0004370704700F0604021F07F4242EA0002BC
:107AD00001F07F4040EA727070474FF0FF0C4CF4A9
:107AE000E06C1CEA11531CBF9CEA030C9445C2BF16
:107AF000DA4201EB02517047002B0DD0BCF1000FB0
:107B00000FD0002A01F00041A4BF41F0E04141F054
:107B10007F614FF00000704701F000414FF000001E
:107B2000704750EA01334FF09B0C18BF4CF0806C4B
:107B30007EF434AF70471CF4801F11D01CF4E02F8A
:107B400003D06FEACC31490070474FF04050EFF35B
:107B5000008222F0704242EA000282F300887047FD
:107B60004FF000007047000000000000000000001F
:107B70000000000000003F40000000000000000086
:107B80003000400030004000000009000BC03D0004
:107B90000BC03D00090018C024407FE02240318026
:107BA0000000180024C01B000D80324001800380BB
:107BB0001C4027401C80074000401000600000006F
:107BC0000000000000000000000000001F802040B6
:107BD00040200000402020401F80000000000900DD
:107BE00006001F80060009000000040004003F801A
:107BF000040004000000001000600000000000000D
:107C00000000040004000400040004000000000060
:107C100000400000000000000000002001C006003D
:107C20003800400000001F802040204020401F807E
:107C30000000000010403FC000400000000018C0DD
:107C40002140224024401840000010802040244061
:107C500024401B80000002000D0011003FC00140C5
:107C600000003C80244024402440238000001F80EA
:107C7000244024403440038000003000200027C00E
:107C80003800200000001B802440244024401B803A
:107C900000001C0022C0224022401F800000000083
:107CA0000000084000000000000000000000046028
:107CB000000000000000000004000A001100208005
:107CC0004040090009000900090009000000000007
:107CD0004040208011000A000400180020002340CA
:107CE0002400180000001F802040274029401F402A
:107CF0000000004007C039000F0001C000402040D4
:107D00003FC0244024401B8000001F8020402040B2
:107D100020403080000020403FC0204020401F8095
:107D2000000020403FC024402E4030C000002040D2
:107D30003FC024402E00300000000F001080204083
:107D400022403380020020403FC0040004003FC0B6
:107D50002040204020403FC02040204000000060E4
:107D6000202020203FC02000200020403FC0244091
:107D70000B0030C0204020403FC020400040004069
:107D800000C03FC03C0003C03C003FC0000020409A
:107D90003FC00C4023003FC020001F8020402040F7
:107DA00020401F80000020403FC0244024001800D5
:107DB00000001F802140214020E01FA00000204043
:107DC0003FC02440260019C0004018C02440244071
:107DD000224031800000300020403FC02040300071
:107DE000000020003F80004000403F802000200035
:107DF0003E0001C0070038002000380007C03C00EA
:107E000007C038000000204039C0060039C02040BB
:107E100000002000384007C03840200000003040FB
:107E200021C02640384020C00000000000007FE054
:107E3000402040200000000070000C000380004043
:107E400000000000402040207FE000000000000013
:107E50002000400020000000000000100010001072
:107E600000100010001000000000400000000000A2
:107E70000000000002800540054003C000402000D3
:107E80003FC0044004400380000000000380044021
:107E900004400640000000000380044024403FC02E
:107EA0000040000003800540054003400000000042
:107EB00004401FC0244024402000000002E0055080
:107EC00005500650042020403FC00440040003C079
:107ED00000400000044027C00040000000000010E7
:107EE0000010041027E00000000020403FC00140C7
:107EF000070004C00440204020403FC00040004034
:107F0000000007C0040007C0040003C000000440D4
:107F100007C00440040003C0004000000380044088
:107F2000044003800000041007F004500440038064
:107F30000000000003800440045007F000100440DB
:107F400007C0024004000400000000000640054095
:107F5000054004C00000000004001F8004400040F1
:107F60000000040007800040044007C000400400F7
:107F7000070004C0018006000400060001C00700DD
:107F800001C006000000044006C0010006C0044015
:107F900000000410071004E0018006000400000047
:107FA000044005C00640044000000000000004003A
:107FB0007BE040200000000000000000FFF0000017
:107FC0000000000040207BE00400000000004000B2
:107FD0008000400020002000400000000000000061
:107FE0000000000000000000000000000000000091
:107FF0001FCC000C00000000000000000800300052
:1080000060000800300060000000022003FC1E2019
:10801000022003FC1E200220000000000E181104A4
:108020003FFF10840C78000000000F0010840F3810
:1080300000C0077818840078000000780F8410C40E
:1080400011240E9800E40084000808006800700005
:108050000000000000000000000000000000000020
:1080600007E018182004400200000000400220042D
:10807000181807E0000000000000024002400180E4
:108080000FF001800240024000000080008000806C
:108090000FF800800080008000000001000D000E3D
:1080A00000000000000000000000000000800080D0
:1080B000008000800080008000800000000C000C28
:1080C0000000000000000000000000000006001892
:1080D00000600180060018002000000007F008087A
:1080E00010041004080807F0000000000804080449
:1080F0001FFC000400040000000000000E0C10141F
:108100001024104411840E0C000000000C18100400
:108110001104110412880C700000000000E003201C
:10812000042408241FFC0024000000001F98108471
:1081300011041104108810700000000007F0088876
:108140001104110418880070000000001C001000C9
:1081500010FC13001C001000000000000E38114439
:108160001084108411440E38000000000700088CB1
:1081700010441044088807F00000000000000000D0
:10818000030C030C000000000000000000000001D0
:108190000106000000000000000000000080014017
:1081A000022004100808100400000220022002200F
:1081B0000220022002200220000000001004080813
:1081C0000410022001400080000000000E00120098
:1081D000100C106C10800F00000003E00C1813E46A
:1081E000142417C4082807D000000004003C03C46E
:1081F0001C40074000E4001C000410041FFC110494
:10820000110411040E880070000003E00C18100423
:108210001004100410081C10000010041FFC1004AF
:1082200010041004080807F0000010041FFC1104DB
:10823000110417C410040818000010041FFC1104D6
:10824000110017C010000800000003E00C18100413
:10825000100410441C780040000010041FFC10841F
:108260000080008010841FFC100400001004100423
:108270001FFC1004100400000000000300011001A6
:1082800010011FFE10001000000010041FFC11045C
:1082900003801464181C1004000010041FFC100458
:1082A000000400040004000C000010041FFC1F0068
:1082B00000FC1F001FFC1004000010041FFC0C0435
:1082C000030000E010181FFC100007F0080810045D
:1082D00010041004080807F0000010041FFC1084AC
:1082E0001080108010800F00000007F00818102484
:1082F0001024101C080A07F2000010041FFC1104CF
:10830000110011C011300E0C000400000E1C1104ED
:108310001084108410441C38000018001000100451
:108320001FFC100410001800000010001FF81004BB
:108330000004000410041FF8100010001E0011E0DB
:10834000001C007013801C0010001FC0103C00E0D7
:108350001F0000E0103C1FC000001004180C163471
:1083600001C001C01634180C100410001C001304C6
:1083700000FC13041C00100000000804101C106412
:10838000108413041C0410180000000000000000FA
:108390007FFE4002400240020000000030000C005E
:1083A00003800060001C0003000000004002400247
:1083B00040027FFE000000000000000000002000DE
:1083C00040004000400020000000000100010001CA
:1083D0000001000100010001000100004000400018
:1083E00020000000000000000000000000980124B0
:1083F00001440144014400FC000410001FFC0088FB
:108400000104010400880070000000000070008872
:1084100001040104010400880000000000700088CD
:108420000104010411081FFC0004000000F80144CD
:1084300001440144014400C800000000010401049B
:108440000FFC1104110411001800000000D60129CE
:108450000129012901C90106000010041FFC008444
:1084600001000100010400FC0004000001041904E3
:1084700019FC0004000400000000000000030001DB
:108480000101190119FE0000000010041FFC002466
:10849000004001B4010C01040000000010041004AD
:1084A0001FFC0004000400000000010401FC0104A2
:1084B000010001FC0104010000FC010401FC008436
:1084C00001000100010400FC0004000000F80104A8
:1084D00001040104010400F80000010101FF00850E
:1084E0000104010400880070000000000070008892
:1084F00001040104010501FF00010104010401FC64
:1085000000840104010001800000000000CC01246F
:108510000124012401240198000000000100010051
:1085200007F80104010400000000010001F8000444
:1085300000040004010801FC000401000180017036
:10854000000C001001600180010001F0010C0030FE
:1085500001C00030010C01F0010000000104018C99
:1085600000740170018C010400000101018101719E
:10857000000E001801600180010000000184010C60
:10858000013401440184010C0000000000000000DF
:10859000000001003EFC400240020000000000001C
:1085A0000000FFFF00000000000000004002400249
:1085B0003EFC0100000000000000000060008000A0
:1085C00080004000400020002000000068000004FF
:1085D00076005401F7FD000175191A0C6A231B1C63
:1085E0001F207274433B4138393A6B6C376F062455
:1085F0006D6E70008300000000080000000100188C
:1086000032000500000020410000D242295C0F3EEC
:108610009A99993E3333733F295C0F3E00007000F6
:108620000000002400000002000300000065005468
:10863000FFEF0000FA80000B12820001030C30C330
:108640000E8C8CE914D5400213710F8E3883F88399
:108650003000F883258EF8833000F883FFFFFFFF9A
:108660000FFEA9D6240004001A8279A10000003C64
:10867000FFFF00000010000038836FA2003E0330AF
:108680004000000002CAE3093E8000002000000014
:10869000000000004000000060000000000C00002E
:1086A000000C186E000006920A16C0DFFFFF02568B
:1086B000FD8CD377FFE1C496E0C5BEAA00000000A0
:1086C000FFFF0B2B0000165700000359400000006D
:1086D00000001DFA00026C1D000000003FFFDFEBF0
:1086E000003EB3B6000D227800002F3C00000000D1
:1086F000001942B5000039A20000B365D90E9FC928
:108700001DCF4C3430000000500000003BB67AE82A
:108710000064000000C8000000000000100000001D
:108720001000FA921000225E000D229F000100004E
:1087300000320000FF46000063D40000100000007B
:1087400004D6000004CC000004CC0000000010722D
:1087500000000040000000000000000000060002D1
:108760000005000700000000006400000000000099
:10877000000000050005006400200000000000006B
:108780000000000000004000000003000000003274
:10879000F8980000FF650000830F0000FF9BFC00BD
:1087A00000000000000000000000000000000000C9
:1087B00000000000000000000000000000000000B9
:1087C0000000000000000000000010004000000059
:1087D000000000060000B26A000200000001FB83F6
:1087E0000068000000D9FC007CF1FF83000000005D
:1087F00000650000006403E8006400280000002514
:108800000000000016A00000000010000000100092
:10881000002F0000000001F40000100000280000FC
:10882000FFFF4581FFFFFA7200000000000000001A
:10883000004400050005BAC6004778A20000000108
:108840000000000000000600000000140000254D9C
:10885000002F706D000005AE000C02D0000000007B
:10886000000000000000000000000000001B0000ED
:108870000000000000000000000000000064000094
:1088800000080000000000000000000000000000E0
:1088900000000000000000000000000000000000D8
:1088A00000000000000000000000000000000000C8
:1088B00000000000000000000000000000000000B8
:1088C00000000000000000000000000000000000A8
:1088D000000000000000000000000000001B00007D
:1088E0000000000000000000000E000E00000AC79B
:1088F0000004000000000032FFFFFF9C00000B2B73
:10890000000000020000000100000064FFE500001C
:108910000000000000000000000000000000000156
:1089200000000000000100000000000000018000C5
:108930000001800000018000002426D30000000018
:1089400000000000000600100096003C000000003F
:108950000000000000000000000000000C0A4E684B
:10896000CDCF770950166759C619CE820000000096
:1089700000000000000000000000000000000000F7
:108980000000000017D78400030000000000000072
:1089900000000000C7938F9D1E1B1C1900000000E3
:1089A00000000000000000000000000000000000C7
:1089B00000000000020318850000400000000003D2
:1089C0000000000300000000000000004000000064
:1089D0000000000000000000000000000000000097
:1089E0000000000000000000000000000000000087
:1089F0000000000000000000000000000000000077
:108A0000677DDF7E72902E554CF6E68800000000F0
:108A1000000000000000000000000000D8DCB4B836
:108A2000B0D8B9ABF3F8FAB3B7BB8E9EAEF132F55E
:108A30001BF1B4B8B08097F1A9DFDFDFAADFDFDF79
:108A4000F2AAC5CDC7A90CC92C97F1A989264666FB
:108A5000B28999A92D557DB0B08AA896365676F17F
:108A6000BAA3B4B280C0B8A89711B28398BAA3F0E1
:108A7000240844106418B2B9B49883F1A329557D31
:108A8000BAB5B1A38393F0002850F5B2B6AA839388
:108A900028547CF1B9A3829361BAA2DADEDFDB81CC
:108AA0009AB9AEF5606870F1DABAA2DFD9BAA2FA63
:108AB000B9A38292DB31BAA2D9BAA2F8DF85A4D0D9
:108AC000C1BBAD83C2C5C7B8A2DFDFDFBAA0DFDF9D
:108AD000DFD8D8F1B8AAB38DB4980D355DB2B6BA67
:108AE000AF8C96198F9FA70E161EB49AB8AA872C22
:108AF000547CBAA4B08AB691325676B28494A4C893
:108B000008CDD8B8B4B0F19982A82D557D98A80E9B
:108B1000161EA22C547C92A4F02C5078F184A898B4
:108B2000C4CDFCD80DDBA8FC2DF3D9BAA6F8DABA6F
:108B3000A6DED8BAB2B68696A6D0F3C841DAA6C8E1
:108B4000F8D8B0B4B882A892F52C548898F135D9E9
:108B5000F418D8F1A2D0F8F9A884D9C7DFF8F883BF
:108B6000C5DADF69DF83C1D8F40114F1A8824EA809
:108B700084F311D182F5D992289788F109F41C1C4D
:108B8000D884A8F3C0F9D1D99782F129F40DD8F38C
:108B9000F9F9D1D982F4C203D8DEDF1AD8F1A2FAEA
:108BA000F9A88498D9C7DFF8F8F883C7DADF69DF56
:108BB000F883C3D8F40114F198A8822EA884F31185
:108BC000D182F5D992509788F109F41CD884A8F382
:108BD000C0F8F9D1D99782F149F40DD8F3F9F9D158
:108BE000D982F4C403D8DEDFD8F1AD8898CCA809C7
:108BF000F9D98292A8F57CF1883ACF944A6E98DB35
:108C00006931DAADF2DEF9D88795A8F221D1DAA57B
:108C1000F9F417D9F1AE8ED0C0C3AE82C684C3A812
:108C20008595C8A588F2C0F1F4010EF18E9EA8C604
:108C30003E56F554F18872F40115F19845856EF5AC
:108C40008E9E0488F142985A8E9E068869F4011C13
:108C5000F1981E1108D0F504F11E970202983625EE
:108C6000DBF9D985A5F3C1DA85A5F3DFD88595A809
:108C7000F309DAA5FAD88292A8F578F1881A849FC8
:108C800026889821DAF41DF3D8879F39D1AFD9DF30
:108C9000DFFBF9F40CF3D8FAD0F8DAF9F9D0DFD920
:108CA000F9D8F40BD8F3879F39D1AFD9DFDFF41DA2
:108CB000F3D8FAFCA869F9F9AFD0DADEFAD9F88F5F
:108CC0009FA8F1CCF398DB45D9AFDFD0F8D8F18F6E
:108CD0009FA8CAF38809DAAF8FCBF8D8F2AD978D89
:108CE0000CD9A5DFF9BAA6F3FAF412F2D8950DD192
:108CF000D9BAA6F3FADAA5F2C1BAA6F3DFD8F1BA67
:108D0000B2B68696A6D0CAF349DAA6CBF8D8B0B4E4
:108D1000B8D8AD84F2C0DFF18FCBC3A8B2B68696C7
:108D2000C8C1CBC3F3B0B48898A821DB718D9D7105
:108D3000859521D9ADF2FAD88597A828D9F408D815
:108D4000F28D29DAF405D9F285A4C2F2D8A88D945F
:108D500001D1D9F411F2D88721D8F40AD8F2849835
:108D6000A8C801D1D9F411D8F3A4C8BBAFD0F2DEA2
:108D7000F8F8F8F8F8F8F8F8D8F1B8F6B5B9B08A14
:108D800095A3DE3CA3D9F8D85CA3D9F8D87CA3D9A5
:108D9000F8D8F8F9D1A5D9DFDAFAD8B18530F7D902
:108DA000DED8F830ADDADED8F2B48C99A32D557D3B
:108DB000A083DFDFDFB591A0F629D9FBD8A0FC297D
:108DC000D9FAD8A0D051D9F8D8FC51D9F9D879D945
:108DD000FBD8A0D0FC79D9FAD8A1F9F9F9F9F9A012
:108DE000DADFDFDFD8A1F8F8F8F8F8ACDEF8ADDEAE
:108DF0008393AC2C547CF1A8DFDFDFF69D2CDAA046
:108E0000DFD9FADB2DF8D8A850DAA0D0DED9D0F817
:108E1000F8F8DB55F8D8A878DAA0D0DFD9D0FAF87E
:108E2000F8F8F8DB7DF8D89CA88CF530DB38D9D081
:108E3000DEDFA0D0DEDFD8A848DB58D9DFD0DEA047
:108E4000DFD0DED8A868DB70D9DFDFA0DFDFD8F1A4
:108E5000A888902C547C98A8D05C38D1DAF2AE8CDB
:108E6000DFF9D8B087A8C1C1B188A8C6F9F9DA3648
:108E7000D8A8F9DA36D8A8F9DA36D8A8F9DA36D87F
:108E8000A8F9DA36D8F78D9DADF818DAF2AEDFD84A
:108E9000F7ADFA30D9A4DEF9D8F2AEDEFAF983A73D
:108EA000D9C3C5C7F1889BA77AADF7DEDFA4F884E4
:108EB0009408A797F300AEF29819A488C6A39488E3
:108EC000F632DFF28393DB09D9F2AADFD8D8AEF805
:108ED000F9D1DAF3A4DEA7F1889B7AD8F38494AEB3
:108EE00019F9DAAAF1DFD8A881C0C3C5C7A3928354
:108EF000F628ADDED9F8D8A350ADD9F8D8A378AD0F
:108F0000D9F8D8F8F9D1A1DADEC3C5C7D8A18194C0
:108F1000F818F2B089ACC3C5C7F1D8B8B4B0978619
:108F2000A8319B069907AB9728889BF00C2014402A
:108F3000B0B4B8F0A88A9A285078B79BA82951797C
:108F4000247059446938644831F1BBAB88002C5413
:108F50007CF0B38BB8A804285078F1B088B4972679
:108F6000A85998BBABB38B02264666B0B8F08A9C72
:108F7000A82951798B2951798A2470598B205871ED
:108F80008A4469388B3940688A6448318B3049603B
:108F900088F1AC002C547CF08CA804285078F1881F
:108FA0009726A85998AC8C02264666F0899CA82979
:108FB0005179247059446938644831A98809205985
:108FC00070AB11384069A8193148608CA83C415CED
:108FD000207C00F187981986A86E767EA999882D45
:108FE000557DD8B1B5B9A3DFDFDFAED0DFAAD0DEC3
:108FF000F2ABF8F9D9B087C4AAF1DFDFBBAFDFDF8E
:10900000B9D8B1F1A3978E60DFB084F2C8F8F9D96E
:10901000DED89385F14AB183A308B5839A0810B7C7
:109020009F10D8F1B0BAAEB08AC2B2B68E9EF1FB34
:10903000D9F41DD8F9D90CF1D8F8F8AD61D9AEFB47
:10904000D8F40CF1D8F8F8AD19D9AEFBDFD8F41686
:10905000F1D8F8AD8D61D9F4F4ACF59C9C8DDF2B83
:10906000BAB6AEFAF8F40BD8F1AED0F8AD51DAAE2C
:10907000FAF8F1D8B9B1B6A3839C08B9B1839AB50F
:10908000AAC0FD3083B79F10B58B93F20202D1AB1B
:10909000DADED8F1B080BAABC0C3B284C1C3D8B1F4
:1090A000B9F38BA391B609B4D9ABDEB0879CB9A351
:1090B000DDF1B38B8B8B8B8BB087A3A3A3A3B28B78
:1090C000B69BF2A3A3A3A3A3A3A3A3A3A3F1B087D7
:1090D000B59AA3F39BA3A3DCBAACDFB9A3A3A3A364
:1090E000A3A3A3A3A3A3A3A3A3A3A3A3D8D8D8BB99
:1090F000B3B7F1AAF9DAFFD9809AAA28B48098A761
:1091000020B79787A86688F07951F1902C870CA733
:1091100081976293F071716085940129517990A5CE
:10912000F1284C6C870C95188578A38390284C6C9B
:10913000886CD8F3A28200F210A8921980A2F2D90A
:1091400026D8F188A84DD948D896A83980D93CD8D6
:109150009580A839A68698D92CDA87A72CD8A88913
:109160009519A980D938D8A88939A980DA3CD8A816
:109170002EA83990D90CD8A8953198D90CD8A8091F
:10918000D9FFD801DAFFD89539A9DA26FFD890A8F7
:109190000D8999A810809821DA2ED88999A8318054
:1091A000DA2ED8A886963180DA2ED8A8873180DAD0
:1091B0002ED8A88292F34180F1D92ED8A882F31933
:1091C00080F1D92ED882ACF3C0A28022F1A62EA7BE
:1091D0002EA92298A829DAACDEFFD8A2F22AF1A99A
:1091E0002E8292A8F23180A696F1D900AC8C9C0C0C
:1091F00030ACDED0DEFFD88C9CACD010ACDE8092E0
:10920000A2F24C82A8F1CAF235F19688A6D900D80C
:10921000F1FF000000000000555555555555C53F5C
:109220007D6FEB0312D6D4BF5544880E55C1C93F9C
:109230003B8F68B52882A4BF88B20175E0EF493F33
:1092400009F7FD0DE13D023F4B2D8A1C273A03C073
:10925000C88A599CE52A004059018D1B6C06E6BF5F
:1092600082922EB1C5B8B33F4FBB610567ACDD3FFD
:10927000182D4454FB21E93F9BF681D20B73EF3F3D
:10928000182D4454FB21F93FE2652F227F2B7A3CB5
:10929000075C143326A6813CBDCBF07A8807703C6E
:1092A000075C143326A6913CC4EB98999999C9BFE1
:1092B000711623FEC671BCBF6D9A74AFF2B0B3BF16
:1092C0009AFDDE522DDEADBF2F6C6A2C44B4A2BFD6
:1092D0000D5555555555D53FFF8300922449C23F42
:1092E0006E204CC5CD45B73F513DD0A0660DB13F76
:1092F000EB0D76244B7BA93F11DA22E33AAD903F88
:10930000000000000000000050726F64756374205C
:1093100049442072656164206173203020696E6465
:109320006963617465732064657669636520697338
:109330002065697468657220696E636F6D70617411
:1093400069626C65206F7220616E204D505533301C
:1093500035302E0D0A000000789300080000002030
:109360005401000028010008C093000854010020A7
:10937000440B00008401000842013A0106013799BC
:109380003C140605040438040506856666663F132A
:10939000D8851B08CC0401201AF424850AD7A33CE5
:1093A00030096F12833AA69B443B1A3F180A283BA8
:1093B000DA7A807CC90C091624215AFF04E964007A
:04000005080000ED02
:00000001FF
