Product: MDK-ARM Professional 5.10
Component: ARM Compiler 5.04 update 1 (build 49)
Tool: armlink [5040049]

==============================================================================

Section Cross References

    startup_stm32f10x_md.o(STACK) refers (Special) to heapauxi.o(.text) for __use_two_region_memory
    startup_stm32f10x_md.o(HEAP) refers (Special) to heapauxi.o(.text) for __use_two_region_memory
    startup_stm32f10x_md.o(RESET) refers (Special) to heapauxi.o(.text) for __use_two_region_memory
    startup_stm32f10x_md.o(RESET) refers to startup_stm32f10x_md.o(STACK) for __initial_sp
    startup_stm32f10x_md.o(RESET) refers to startup_stm32f10x_md.o(.text) for Reset_Handler
    startup_stm32f10x_md.o(RESET) refers to control.o(.text) for TIM1_UP_IRQHandler
    startup_stm32f10x_md.o(RESET) refers to usart3.o(.text) for USART3_IRQHandler
    startup_stm32f10x_md.o(.text) refers (Special) to heapauxi.o(.text) for __use_two_region_memory
    startup_stm32f10x_md.o(.text) refers to __main.o(!!!main) for __main
    startup_stm32f10x_md.o(.text) refers to startup_stm32f10x_md.o(HEAP) for Heap_Mem
    startup_stm32f10x_md.o(.text) refers to startup_stm32f10x_md.o(STACK) for Stack_Mem
    minibalance.o(.text) refers to sys.o(.text) for Stm32_Clock_Init
    minibalance.o(.text) refers to delay.o(.text) for delay_init
    minibalance.o(.text) refers to led.o(.text) for LED_Init
    minibalance.o(.text) refers to key.o(.text) for KEY_Init
    minibalance.o(.text) refers to oled.o(.text) for OLED_Init
    minibalance.o(.text) refers to usart.o(.text) for uart_init
    minibalance.o(.text) refers to usart3.o(.text) for uart3_init
==============================================================================

Removing Unused input sections from the image.

    Removing minibalance.o(.rev16_text), (4 bytes).
    Removing minibalance.o(.revsh_text), (4 bytes).
    Removing delay.o(.rev16_text), (4 bytes).
    Removing delay.o(.revsh_text), (4 bytes).
    Removing sys.o(.rev16_text), (4 bytes).
    Removing sys.o(.revsh_text), (4 bytes).
    Removing usart.o(.rev16_text), (4 bytes).
    Removing usart.o(.revsh_text), (4 bytes).
    Removing led.o(.rev16_text), (4 bytes).
    Removing led.o(.revsh_text), (4 bytes).
    Removing key.o(.rev16_text), (4 bytes).
    Removing key.o(.revsh_text), (4 bytes).
    Removing oled.o(.rev16_text), (4 bytes).
    Removing oled.o(.revsh_text), (4 bytes).
    Removing usart3.o(.rev16_text), (4 bytes).
    Removing usart3.o(.revsh_text), (4 bytes).
    Removing adc.o(.rev16_text), (4 bytes).
    Removing adc.o(.revsh_text), (4 bytes).
==============================================================================

Image Symbol Table

    Local Symbols

    Symbol Name                              Value     Ov Type        Size  Object(Section)

    ../clib/angel/boardlib.s                 0x00000000   Number         0  boardinit2.o ABSOLUTE
    ../clib/angel/boardlib.s                 0x00000000   Number         0  boardinit3.o ABSOLUTE
    ../clib/angel/boardlib.s                 0x00000000   Number         0  boardshut.o ABSOLUTE
    ../clib/angel/boardlib.s                 0x00000000   Number         0  boardinit1.o ABSOLUTE
    ../clib/angel/dczerorl2.s                0x00000000   Number         0  __dczerorl2.o ABSOLUTE
    ../clib/angel/handlers.s                 0x00000000   Number         0  __scatter_zi.o ABSOLUTE
    ../clib/angel/kernel.s                   0x00000000   Number         0  rtentry.o ABSOLUTE
    ../clib/angel/kernel.s                   0x00000000   Number         0  rtentry4.o ABSOLUTE
    ../clib/angel/kernel.s                   0x00000000   Number         0  rtexit.o ABSOLUTE
    ../clib/angel/kernel.s                   0x00000000   Number         0  rtexit2.o ABSOLUTE
    ../clib/angel/kernel.s                   0x00000000   Number         0  rtentry2.o ABSOLUTE
    ../clib/angel/rt.s                       0x00000000   Number         0  aeabi_ldiv0_sigfpe.o ABSOLUTE
    ../clib/angel/rt.s                       0x00000000   Number         0  rt_div0.o ABSOLUTE
    ../clib/angel/rt.s                       0x00000000   Number         0  rt_errno_addr.o ABSOLUTE
    ../clib/angel/rt.s                       0x00000000   Number         0  rt_errno_addr_intlibspace.o ABSOLUTE
    ../clib/angel/rt.s                       0x00000000   Number         0  aeabi_ldiv0.o ABSOLUTE
    ../clib/angel/rt.s                       0x00000000   Number         0  rt_raise.o ABSOLUTE
    ../clib/angel/scatter.s                  0x00000000   Number         0  __scatter.o ABSOLUTE
    ../clib/angel/startup.s                  0x00000000   Number         0  __main.o ABSOLUTE
    ../clib/angel/sys.s                      0x00000000   Number         0  libspace.o ABSOLUTE
    ../clib/angel/sys.s                      0x00000000   Number         0  indicate_semi.o ABSOLUTE
    ../clib/angel/sys.s                      0x00000000   Number         0  use_no_semi.o ABSOLUTE
    ../clib/angel/sys.s                      0x00000000   Number         0  sys_stackheap_outer.o ABSOLUTE
    ../clib/angel/sys.s                      0x00000000   Number         0  use_no_semi_2.o ABSOLUTE
    ../clib/angel/sysapp.c                   0x00000000   Number         0  sys_wrch.o ABSOLUTE
    ../clib/angel/sysapp.c                   0x00000000   Number         0  sys_command.o ABSOLUTE
    ../clib/armsys.c                         0x00000000   Number         0  argv_veneer.o ABSOLUTE
    ../clib/armsys.c                         0x00000000   Number         0  argv_veneer.o ABSOLUTE
    ../clib/armsys.c                         0x00000000   Number         0  _get_argv_nomalloc.o ABSOLUTE
    ../clib/armsys.c                         0x00000000   Number         0  no_argv.o ABSOLUTE
    ../clib/fenv.c                           0x00000000   Number         0  _rserrno.o ABSOLUTE
    ../clib/heapalloc.c                      0x00000000   Number         0  hrguard.o ABSOLUTE
    ../clib/heapaux.c                        0x00000000   Number         0  heapauxi.o ABSOLUTE
    ../clib/libinit.s                        0x00000000   Number         0  libshutdown.o ABSOLUTE
    ../clib/libinit.s                        0x00000000   Number         0  libinit2.o ABSOLUTE
    ../clib/libinit.s                        0x00000000   Number         0  libshutdown2.o ABSOLUTE
    ../clib/libinit.s                        0x00000000   Number         0  libinit.o ABSOLUTE
    ../clib/longlong.s                       0x00000000   Number         0  lludivv7m.o ABSOLUTE
    ../clib/longlong.s                       0x00000000   Number         0  llsdiv.o ABSOLUTE
    ../clib/memcpset.s                       0x00000000   Number         0  rt_memclr_w.o ABSOLUTE
    ../clib/memcpset.s                       0x00000000   Number         0  rt_memclr.o ABSOLUTE
    ../clib/memcpset.s                       0x00000000   Number         0  aeabi_memset.o ABSOLUTE
    ../clib/printf.c                         0x00000000   Number         0  _printf_char_common.o ABSOLUTE
    ../clib/printf.c                         0x00000000   Number         0  __printf_ss.o ABSOLUTE
    ../clib/printf.c                         0x00000000   Number         0  _printf_dec.o ABSOLUTE
    ../clib/printf.c                         0x00000000   Number         0  __printf.o ABSOLUTE
    ../clib/printf.c                         0x00000000   Number         0  noretval__2printf.o ABSOLUTE
    ../clib/printf.c                         0x00000000   Number         0  __printf_flags_ss.o ABSOLUTE
    ../clib/printf.c                         0x00000000   Number         0  __printf_nopercent.o ABSOLUTE
    ../clib/printf.c                         0x00000000   Number         0  __printf_wp.o ABSOLUTE
    ../clib/printf.c                         0x00000000   Number         0  __printf_flags_wp.o ABSOLUTE
    ../clib/printf.c                         0x00000000   Number         0  __printf_ss_wp.o ABSOLUTE
    ../clib/printf.c                         0x00000000   Number         0  __printf_flags_ss_wp.o ABSOLUTE
    ../clib/printf.c                         0x00000000   Number         0  __2printf.o ABSOLUTE
    ../clib/printf.c                         0x00000000   Number         0  _printf_char_file.o ABSOLUTE
    ../clib/printf.c                         0x00000000   Number         0  _printf_intcommon.o ABSOLUTE
    ../clib/printf.c                         0x00000000   Number         0  __printf_flags.o ABSOLUTE
    ../clib/printf_percent.s                 0x00000000   Number         0  _printf_percent.o ABSOLUTE
    ../clib/printf_percent.s                 0x00000000   Number         0  _printf_d.o ABSOLUTE
    ../clib/printf_percent.s                 0x00000000   Number         0  _printf_percent_end.o ABSOLUTE
    ../clib/signal.c                         0x00000000   Number         0  defsig_rtmem_outer.o ABSOLUTE
    ../clib/signal.c                         0x00000000   Number         0  defsig_rtmem_formal.o ABSOLUTE
    ../clib/signal.c                         0x00000000   Number         0  defsig_fpe_formal.o ABSOLUTE
    ../clib/signal.c                         0x00000000   Number         0  defsig_fpe_outer.o ABSOLUTE
    ../clib/signal.c                         0x00000000   Number         0  defsig_other.o ABSOLUTE
    ../clib/signal.c                         0x00000000   Number         0  defsig_fpe_inner.o ABSOLUTE
    ../clib/signal.c                         0x00000000   Number         0  defsig_general.o ABSOLUTE
    ../clib/signal.c                         0x00000000   Number         0  __raise.o ABSOLUTE
    ../clib/signal.c                         0x00000000   Number         0  defsig_exit.o ABSOLUTE
    ../clib/signal.c                         0x00000000   Number         0  defsig_segv_inner.o ABSOLUTE
    ../clib/signal.c                         0x00000000   Number         0  defsig_cppl_inner.o ABSOLUTE
    ../clib/signal.c                         0x00000000   Number         0  defsig_pvfn_inner.o ABSOLUTE
    ../clib/signal.c                         0x00000000   Number         0  defsig_stak_inner.o ABSOLUTE
    ../clib/signal.c                         0x00000000   Number         0  defsig_rtmem_inner.o ABSOLUTE
    ../clib/signal.c                         0x00000000   Number         0  defsig_rtred_inner.o ABSOLUTE
    ../clib/signal.c                         0x00000000   Number         0  defsig_abrt_inner.o ABSOLUTE
    ../clib/signal.s                         0x00000000   Number         0  defsig.o ABSOLUTE
    ../clib/stdio.c                          0x00000000   Number         0  ferror_locked.o ABSOLUTE
    ../clib/stdio.c                          0x00000000   Number         0  ferror.o ABSOLUTE
    ../clib/stdlib.c                         0x00000000   Number         0  exit.o ABSOLUTE
    ../clib/string.c                         0x00000000   Number         0  memcmp.o ABSOLUTE
    ../fplib/d2f.s                           0x00000000   Number         0  d2f.o ABSOLUTE
    ../fplib/daddsub.s                       0x00000000   Number         0  daddsub_clz.o ABSOLUTE
    ../fplib/dcheck1.s                       0x00000000   Number         0  dcheck1.o ABSOLUTE
    ../fplib/dcmpi.s                         0x00000000   Number         0  dcmpi.o ABSOLUTE
    ../fplib/ddiv.s                          0x00000000   Number         0  ddiv.o ABSOLUTE
    ../fplib/dfix.s                          0x00000000   Number         0  dfix.o ABSOLUTE
    ../fplib/dflt.s                          0x00000000   Number         0  dflt_clz.o ABSOLUTE
    ../fplib/dleqf.s                         0x00000000   Number         0  dleqf.o ABSOLUTE
    ../fplib/dmul.s                          0x00000000   Number         0  dmul.o ABSOLUTE
    ../fplib/dnaninf.s                       0x00000000   Number         0  dnaninf.o ABSOLUTE
    ../fplib/dretinf.s                       0x00000000   Number         0  dretinf.o ABSOLUTE
    ../fplib/dsqrt.s                         0x00000000   Number         0  dsqrt_noumaal.o ABSOLUTE
    ../fplib/f2d.s                           0x00000000   Number         0  f2d.o ABSOLUTE
    ../fplib/faddsub.s                       0x00000000   Number         0  faddsub_clz.o ABSOLUTE
    ../fplib/fcmpi.s                         0x00000000   Number         0  fcmpi.o ABSOLUTE
    ../fplib/fdiv.s                          0x00000000   Number         0  fdiv.o ABSOLUTE
    ../fplib/feqf.s                          0x00000000   Number         0  feqf.o ABSOLUTE
    ../fplib/ffix.s                          0x00000000   Number         0  ffix.o ABSOLUTE
    ../fplib/ffixu.s                         0x00000000   Number         0  ffixu.o ABSOLUTE
    ../fplib/fflt.s                          0x00000000   Number         0  fflt_clz.o ABSOLUTE
    ../fplib/fleqf.s                         0x00000000   Number         0  fleqf.o ABSOLUTE
    ../fplib/fmul.s                          0x00000000   Number         0  fmul.o ABSOLUTE
    ../fplib/fnaninf.s                       0x00000000   Number         0  fnaninf.o ABSOLUTE
    ../fplib/fpinit.s                        0x00000000   Number         0  fpinit.o ABSOLUTE
    ../fplib/fretinf.s                       0x00000000   Number         0  fretinf.o ABSOLUTE
    ../fplib/frleqf.s                        0x00000000   Number         0  frleqf.o ABSOLUTE
    ../fplib/retnan.s                        0x00000000   Number         0  retnan.o ABSOLUTE
    ../fplib/scalbn.s                        0x00000000   Number         0  scalbn.o ABSOLUTE
    ../fplib/trapv.s                         0x00000000   Number         0  trapv.o ABSOLUTE
    ../fplib/usenofp.s                       0x00000000   Number         0  usenofp.o ABSOLUTE
    ../mathlib/asin.c                        0x00000000   Number         0  asin_x.o ABSOLUTE
    ../mathlib/asin.c                        0x00000000   Number         0  asin.o ABSOLUTE
    ../mathlib/atan.c                        0x00000000   Number         0  atan.o ABSOLUTE
    ../mathlib/atan.c                        0x00000000   Number         0  atan_x.o ABSOLUTE
    ../mathlib/atan2.c                       0x00000000   Number         0  atan2_x.o ABSOLUTE
    ../mathlib/atan2.c                       0x00000000   Number         0  atan2.o ABSOLUTE
    ../mathlib/dunder.c                      0x00000000   Number         0  dunder.o ABSOLUTE
    ../mathlib/fpclassify.c                  0x00000000   Number         0  fpclassify.o ABSOLUTE
    ../mathlib/poly.c                        0x00000000   Number         0  poly.o ABSOLUTE
    ../mathlib/qnan.c                        0x00000000   Number         0  qnan.o ABSOLUTE
    ../mathlib/sqrt.c                        0x00000000   Number         0  sqrt_x.o ABSOLUTE
    ../mathlib/sqrt.c                        0x00000000   Number         0  sqrt.o ABSOLUTE
    ..\BALANCE\CONTROL\control.c             0x00000000   Number         0  control.o ABSOLUTE
    ..\BALANCE\DMP\inv_mpu.c                 0x00000000   Number         0  inv_mpu.o ABSOLUTE
    ..\BALANCE\DMP\inv_mpu_dmp_motion_driver.c 0x00000000   Number         0  inv_mpu_dmp_motion_driver.o ABSOLUTE
    ..\BALANCE\DataScope_DP\DataScope_DP.C   0x00000000   Number         0  datascope_dp.o ABSOLUTE
    ..\BALANCE\MPU6050\MPU6050.c             0x00000000   Number         0  mpu6050.o ABSOLUTE
    ..\BALANCE\filter\filter.c               0x00000000   Number         0  filter.o ABSOLUTE
    ..\BALANCE\show\show.c                   0x00000000   Number         0  show.o ABSOLUTE
    ..\HARDWARE\ADC\adc.c                    0x00000000   Number         0  adc.o ABSOLUTE
    ..\HARDWARE\ENCODER\encoder.c            0x00000000   Number         0  encoder.o ABSOLUTE
    ..\HARDWARE\IIC\IOI2C.c                  0x00000000   Number         0  ioi2c.o ABSOLUTE
    ..\HARDWARE\KEY\key.c                    0x00000000   Number         0  key.o ABSOLUTE
    ..\HARDWARE\LED\LED.C                    0x00000000   Number         0  led.o ABSOLUTE
    ..\HARDWARE\MOTOR\motor.c                0x00000000   Number         0  motor.o ABSOLUTE
    ..\HARDWARE\OLED\oled.c                  0x00000000   Number         0  oled.o ABSOLUTE
    ..\HARDWARE\TIMER\timer.c                0x00000000   Number         0  timer.o ABSOLUTE
    ..\HARDWARE\usart3\usart3.c              0x00000000   Number         0  usart3.o ABSOLUTE
    ..\SYSTEM\delay\delay.c                  0x00000000   Number         0  delay.o ABSOLUTE
    ..\SYSTEM\sys\sys.c                      0x00000000   Number         0  sys.o ABSOLUTE
    ..\SYSTEM\usart\usart.c                  0x00000000   Number         0  usart.o ABSOLUTE
    ..\\BALANCE\\CONTROL\\control.c          0x00000000   Number         0  control.o ABSOLUTE
    ..\\BALANCE\\DMP\\inv_mpu.c              0x00000000   Number         0  inv_mpu.o ABSOLUTE
    ..\\BALANCE\\DMP\\inv_mpu_dmp_motion_driver.c 0x00000000   Number         0  inv_mpu_dmp_motion_driver.o ABSOLUTE
    ..\\BALANCE\\MPU6050\\MPU6050.c          0x00000000   Number         0  mpu6050.o ABSOLUTE
    ..\\BALANCE\\show\\show.c                0x00000000   Number         0  show.o ABSOLUTE
    ..\\HARDWARE\\ADC\\adc.c                 0x00000000   Number         0  adc.o ABSOLUTE
    ..\\HARDWARE\\ENCODER\\encoder.c         0x00000000   Number         0  encoder.o ABSOLUTE
    ..\\HARDWARE\\IIC\\IOI2C.c               0x00000000   Number         0  ioi2c.o ABSOLUTE
    ..\\HARDWARE\\KEY\\key.c                 0x00000000   Number         0  key.o ABSOLUTE
    ..\\HARDWARE\\LED\\LED.C                 0x00000000   Number         0  led.o ABSOLUTE
    ..\\HARDWARE\\MOTOR\\motor.c             0x00000000   Number         0  motor.o ABSOLUTE
    ..\\HARDWARE\\OLED\\oled.c               0x00000000   Number         0  oled.o ABSOLUTE
    ..\\HARDWARE\\TIMER\\timer.c             0x00000000   Number         0  timer.o ABSOLUTE
    ..\\HARDWARE\\usart3\\usart3.c           0x00000000   Number         0  usart3.o ABSOLUTE
    ..\\SYSTEM\\delay\\delay.c               0x00000000   Number         0  delay.o ABSOLUTE
    ..\\SYSTEM\\sys\\sys.c                   0x00000000   Number         0  sys.o ABSOLUTE
    ..\\SYSTEM\\usart\\usart.c               0x00000000   Number         0  usart.o ABSOLUTE
    Minibalance.c                            0x00000000   Number         0  minibalance.o ABSOLUTE
    Minibalance.c                            0x00000000   Number         0  minibalance.o ABSOLUTE
    dc.s                                     0x00000000   Number         0  dc.o ABSOLUTE
    startup_stm32f10x_md.s                   0x00000000   Number         0  startup_stm32f10x_md.o ABSOLUTE
    RESET                                    0x08000000   Section      236  startup_stm32f10x_md.o(RESET)
    !!!main                                  0x080000ec   Section        8  __main.o(!!!main)
    !!!scatter                               0x080000f4   Section       52  __scatter.o(!!!scatter)
    !!dczerorl2                              0x08000128   Section       90  __dczerorl2.o(!!dczerorl2)
    !!handler_zi                             0x08000184   Section       28  __scatter_zi.o(!!handler_zi)
    .ARM.Collect$$_printf_percent$$00000000  0x080001a0   Section        0  _printf_percent.o(.ARM.Collect$$_printf_percent$$00000000)
    .ARM.Collect$$_printf_percent$$00000009  0x080001a0   Section        6  _printf_d.o(.ARM.Collect$$_printf_percent$$00000009)
    .ARM.Collect$$_printf_percent$$00000017  0x080001a6   Section        4  _printf_percent_end.o(.ARM.Collect$$_printf_percent$$00000017)
    .ARM.Collect$$libinit$$00000000          0x080001aa   Section        2  libinit.o(.ARM.Collect$$libinit$$00000000)
    .ARM.Collect$$libinit$$00000002          0x080001ac   Section        0  libinit2.o(.ARM.Collect$$libinit$$00000002)
    .ARM.Collect$$libinit$$00000008          0x080001ac   Section        0  libinit2.o(.ARM.Collect$$libinit$$00000008)
    .ARM.Collect$$libinit$$0000000A          0x080001ac   Section        0  libinit2.o(.ARM.Collect$$libinit$$0000000A)
    .ARM.Collect$$libinit$$0000000C          0x080001ac   Section        0  libinit2.o(.ARM.Collect$$libinit$$0000000C)
    .ARM.Collect$$libinit$$0000000F          0x080001ac   Section        0  libinit2.o(.ARM.Collect$$libinit$$0000000F)
    .ARM.Collect$$libinit$$00000011          0x080001ac   Section        0  libinit2.o(.ARM.Collect$$libinit$$00000011)
    .ARM.Collect$$libinit$$00000013          0x080001ac   Section        0  libinit2.o(.ARM.Collect$$libinit$$00000013)
    .ARM.Collect$$libinit$$00000015          0x080001ac   Section        0  libinit2.o(.ARM.Collect$$libinit$$00000015)
    .ARM.Collect$$libinit$$00000017          0x080001ac   Section        0  libinit2.o(.ARM.Collect$$libinit$$00000017)
    .ARM.Collect$$libinit$$00000019          0x080001ac   Section        0  libinit2.o(.ARM.Collect$$libinit$$00000019)
    .ARM.Collect$$libinit$$0000001B          0x080001ac   Section        0  libinit2.o(.ARM.Collect$$libinit$$0000001B)
    .ARM.Collect$$libinit$$0000001D          0x080001ac   Section        0  libinit2.o(.ARM.Collect$$libinit$$0000001D)
    .ARM.Collect$$libinit$$0000001F          0x080001ac   Section        0  libinit2.o(.ARM.Collect$$libinit$$0000001F)
    .ARM.Collect$$libinit$$00000021          0x080001ac   Section        0  libinit2.o(.ARM.Collect$$libinit$$00000021)
    .ARM.Collect$$libinit$$00000023          0x080001ac   Section        0  libinit2.o(.ARM.Collect$$libinit$$00000023)
    .ARM.Collect$$libinit$$0000002A          0x080001ac   Section        0  libinit2.o(.ARM.Collect$$libinit$$0000002A)
    .ARM.Collect$$libinit$$0000002C          0x080001ac   Section        0  libinit2.o(.ARM.Collect$$libinit$$0000002C)
    .ARM.Collect$$libinit$$0000002E          0x080001ac   Section        0  libinit2.o(.ARM.Collect$$libinit$$0000002E)
    .ARM.Collect$$libinit$$00000030          0x080001ac   Section        0  libinit2.o(.ARM.Collect$$libinit$$00000030)
    .ARM.Collect$$libinit$$00000031          0x080001ac   Section        2  libinit2.o(.ARM.Collect$$libinit$$00000031)
    .ARM.Collect$$libshutdown$$00000000      0x080001ae   Section        2  libshutdown.o(.ARM.Collect$$libshutdown$$00000000)
    .ARM.Collect$$libshutdown$$00000003      0x080001b0   Section        0  libshutdown2.o(.ARM.Collect$$libshutdown$$00000003)
    .ARM.Collect$$libshutdown$$00000006      0x080001b0   Section        0  libshutdown2.o(.ARM.Collect$$libshutdown$$00000006)
    .ARM.Collect$$libshutdown$$00000009      0x080001b0   Section        0  libshutdown2.o(.ARM.Collect$$libshutdown$$00000009)
    .ARM.Collect$$libshutdown$$0000000B      0x080001b0   Section        0  libshutdown2.o(.ARM.Collect$$libshutdown$$0000000B)
    .ARM.Collect$$libshutdown$$0000000E      0x080001b0   Section        0  libshutdown2.o(.ARM.Collect$$libshutdown$$0000000E)
    .ARM.Collect$$libshutdown$$0000000F      0x080001b0   Section        2  libshutdown2.o(.ARM.Collect$$libshutdown$$0000000F)
    .ARM.Collect$$rtentry$$00000000          0x080001b2   Section        0  rtentry.o(.ARM.Collect$$rtentry$$00000000)
    .ARM.Collect$$rtentry$$00000002          0x080001b2   Section        0  rtentry2.o(.ARM.Collect$$rtentry$$00000002)
    .ARM.Collect$$rtentry$$00000004          0x080001b2   Section        6  rtentry4.o(.ARM.Collect$$rtentry$$00000004)
    .ARM.Collect$$rtentry$$00000009          0x080001b8   Section        0  rtentry2.o(.ARM.Collect$$rtentry$$00000009)
    .ARM.Collect$$rtentry$$0000000A          0x080001b8   Section        4  rtentry2.o(.ARM.Collect$$rtentry$$0000000A)
    .ARM.Collect$$rtentry$$0000000C          0x080001bc   Section        0  rtentry2.o(.ARM.Collect$$rtentry$$0000000C)
    .ARM.Collect$$rtentry$$0000000D          0x080001bc   Section        8  rtentry2.o(.ARM.Collect$$rtentry$$0000000D)
    .ARM.Collect$$rtexit$$00000000           0x080001c4   Section        2  rtexit.o(.ARM.Collect$$rtexit$$00000000)
    .ARM.Collect$$rtexit$$00000002           0x080001c6   Section        0  rtexit2.o(.ARM.Collect$$rtexit$$00000002)
    .ARM.Collect$$rtexit$$00000003           0x080001c6   Section        4  rtexit2.o(.ARM.Collect$$rtexit$$00000003)
    .ARM.Collect$$rtexit$$00000004           0x080001ca   Section        6  rtexit2.o(.ARM.Collect$$rtexit$$00000004)
    .emb_text                                0x080001d0   Section       12  sys.o(.emb_text)
    .text                                    0x080001dc   Section       56  startup_stm32f10x_md.o(.text)
    .text                                    0x08000214   Section        0  minibalance.o(.text)
    .text                                    0x080002fc   Section        0  delay.o(.text)
    .text                                    0x080003ac   Section        0  sys.o(.text)
    .text                                    0x08000668   Section        0  usart.o(.text)
    .text                                    0x0800074c   Section        0  led.o(.text)
    .text                                    0x080007b8   Section        0  key.o(.text)
    .text                                    0x080008b8   Section        0  oled.o(.text)
    .text                                    0x08000d38   Section        0  usart3.o(.text)
    .text                                    0x08000fd4   Section        0  adc.o(.text)
    .text                                    0x080011b0   Section        0  timer.o(.text)
    .text                                    0x0800120c   Section        0  motor.o(.text)
    .text                                    0x080012dc   Section        0  encoder.o(.text)
    .text                                    0x08001430   Section        0  ioi2c.o(.text)
    .text                                    0x08001944   Section        0  control.o(.text)
    .text                                    0x08002080   Section        0  datascope_dp.o(.text)
    .text                                    0x080021d4   Section        0  inv_mpu.o(.text)
    set_int_enable                           0x080021d5   Thumb Code   138  inv_mpu.o(.text)
    get_accel_prod_shift                     0x0800341d   Thumb Code   168  inv_mpu.o(.text)
    accel_self_test                          0x080034c5   Thumb Code   164  inv_mpu.o(.text)
    gyro_self_test                           0x08003569   Thumb Code   280  inv_mpu.o(.text)
    get_st_biases                            0x08003681   Thumb Code  1136  inv_mpu.o(.text)
    .text                                    0x08004064   Section        0  inv_mpu_dmp_motion_driver.o(.text)
    decode_gesture                           0x08004b19   Thumb Code    94  inv_mpu_dmp_motion_driver.o(.text)
    .text                                    0x08004dd4   Section        0  filter.o(.text)
    .text                                    0x080050dc   Section        0  mpu6050.o(.text)
    inv_row_2_scale                          0x080050dd   Thumb Code    78  mpu6050.o(.text)
    inv_orientation_matrix_to_scalar         0x0800512b   Thumb Code    40  mpu6050.o(.text)
    run_self_test                            0x08005153   Thumb Code   150  mpu6050.o(.text)
    .text                                    0x08005864   Section        0  show.o(.text)
    .text                                    0x08005bdc   Section        2  use_no_semi_2.o(.text)
    .text                                    0x08005bde   Section       72  llsdiv.o(.text)
    .text                                    0x08005c28   Section        0  noretval__2printf.o(.text)
    .text                                    0x08005c40   Section        0  __printf.o(.text)
    .text                                    0x08005ca8   Section        0  _printf_dec.o(.text)
    .text                                    0x08005d1c   Section        0  memcmp.o(.text)
    .text                                    0x08005d74   Section       16  aeabi_memset.o(.text)
    .text                                    0x08005d84   Section        0  heapauxi.o(.text)
    .text                                    0x08005d8a   Section        2  use_no_semi.o(.text)
    .text                                    0x08005d8c   Section      238  lludivv7m.o(.text)
    .text                                    0x08005e7a   Section        0  _rserrno.o(.text)
    .text                                    0x08005e90   Section        0  _printf_intcommon.o(.text)
    .text                                    0x08005f44   Section        0  _printf_char_file.o(.text)
    .text                                    0x08005f68   Section       68  rt_memclr.o(.text)
    .text                                    0x08005fac   Section        8  rt_errno_addr_intlibspace.o(.text)
    .text                                    0x08005fb4   Section        0  _printf_char_common.o(.text)
    _printf_input_char                       0x08005fb5   Thumb Code    10  _printf_char_common.o(.text)
    .text                                    0x08005fe4   Section        0  ferror.o(.text)
    .text                                    0x08005fec   Section       78  rt_memclr_w.o(.text)
    .text                                    0x0800603c   Section        8  libspace.o(.text)
    .text                                    0x08006044   Section       74  sys_stackheap_outer.o(.text)
    .text                                    0x0800608e   Section        0  exit.o(.text)
    i.__ARM_fpclassify                       0x0800609a   Section        0  fpclassify.o(i.__ARM_fpclassify)
    i.__kernel_poly                          0x080060c2   Section        0  poly.o(i.__kernel_poly)
    i.__mathlib_dbl_underflow                0x0800616c   Section        0  dunder.o(i.__mathlib_dbl_underflow)
    i.asin                                   0x0800617c   Section        0  asin.o(i.asin)
    i.atan                                   0x080063f8   Section        0  atan.o(i.atan)
    i.atan2                                  0x0800661c   Section        0  atan2.o(i.atan2)
    i.sqrt                                   0x0800679c   Section        0  sqrt.o(i.sqrt)
    x$fpl$d2f                                0x080067e8   Section       98  d2f.o(x$fpl$d2f)
    x$fpl$dadd                               0x0800684c   Section      336  daddsub_clz.o(x$fpl$dadd)
    _dadd1                                   0x0800685d   Thumb Code     0  daddsub_clz.o(x$fpl$dadd)
    x$fpl$dcheck1                            0x0800699c   Section       16  dcheck1.o(x$fpl$dcheck1)
    x$fpl$dcmpinf                            0x080069ac   Section       24  dcmpi.o(x$fpl$dcmpinf)
    x$fpl$ddiv                               0x080069c4   Section      688  ddiv.o(x$fpl$ddiv)
    ddiv_entry                               0x080069cb   Thumb Code     0  ddiv.o(x$fpl$ddiv)
    x$fpl$dfix                               0x08006c74   Section       94  dfix.o(x$fpl$dfix)
    x$fpl$dfltu                              0x08006cd2   Section       38  dflt_clz.o(x$fpl$dfltu)
    x$fpl$dleqf                              0x08006cf8   Section      120  dleqf.o(x$fpl$dleqf)
    x$fpl$dmul                               0x08006d70   Section      340  dmul.o(x$fpl$dmul)
    x$fpl$dnaninf                            0x08006ec4   Section      156  dnaninf.o(x$fpl$dnaninf)
    x$fpl$dretinf                            0x08006f60   Section       12  dretinf.o(x$fpl$dretinf)
    x$fpl$drsb                               0x08006f6c   Section       22  daddsub_clz.o(x$fpl$drsb)
    x$fpl$dsqrt                              0x08006f84   Section      460  dsqrt_noumaal.o(x$fpl$dsqrt)
    x$fpl$dsub                               0x08007150   Section      468  daddsub_clz.o(x$fpl$dsub)
    _dsub1                                   0x08007161   Thumb Code     0  daddsub_clz.o(x$fpl$dsub)
    x$fpl$f2d                                0x08007324   Section       86  f2d.o(x$fpl$f2d)
    x$fpl$fadd                               0x0800737c   Section      196  faddsub_clz.o(x$fpl$fadd)
    _fadd1                                   0x0800738b   Thumb Code     0  faddsub_clz.o(x$fpl$fadd)
    x$fpl$fcmpinf                            0x08007440   Section       24  fcmpi.o(x$fpl$fcmpinf)
    x$fpl$fdiv                               0x08007458   Section      388  fdiv.o(x$fpl$fdiv)
    _fdiv1                                   0x08007459   Thumb Code     0  fdiv.o(x$fpl$fdiv)
    x$fpl$feqf                               0x080075dc   Section      104  feqf.o(x$fpl$feqf)
    x$fpl$ffix                               0x08007644   Section       54  ffix.o(x$fpl$ffix)
    x$fpl$ffixu                              0x0800767c   Section       62  ffixu.o(x$fpl$ffixu)
    x$fpl$fflt                               0x080076bc   Section       48  fflt_clz.o(x$fpl$fflt)
    x$fpl$ffltu                              0x080076ec   Section       38  fflt_clz.o(x$fpl$ffltu)
    x$fpl$fleqf                              0x08007714   Section      104  fleqf.o(x$fpl$fleqf)
    x$fpl$fmul                               0x0800777c   Section      258  fmul.o(x$fpl$fmul)
    x$fpl$fnaninf                            0x0800787e   Section      140  fnaninf.o(x$fpl$fnaninf)
    x$fpl$fretinf                            0x0800790a   Section       10  fretinf.o(x$fpl$fretinf)
    x$fpl$frleqf                             0x08007914   Section       98  frleqf.o(x$fpl$frleqf)
    x$fpl$frsb                               0x08007976   Section       20  faddsub_clz.o(x$fpl$frsb)
    x$fpl$fsub                               0x0800798c   Section      234  faddsub_clz.o(x$fpl$fsub)
    _fsub1                                   0x0800799b   Thumb Code     0  faddsub_clz.o(x$fpl$fsub)
    x$fpl$retnan                             0x08007a76   Section      100  retnan.o(x$fpl$retnan)
    x$fpl$scalbn                             0x08007ada   Section       92  scalbn.o(x$fpl$scalbn)
    x$fpl$trapveneer                         0x08007b36   Section       48  trapv.o(x$fpl$trapveneer)
    .constdata                               0x08007b66   Section     2660  oled.o(.constdata)
    x$fpl$usenofp                            0x08007b66   Section        0  usenofp.o(x$fpl$usenofp)
    .constdata                               0x080085cc   Section       80  inv_mpu.o(.constdata)
    .constdata                               0x0800861c   Section     3062  inv_mpu_dmp_motion_driver.o(.constdata)
    dmp_memory                               0x0800861c   Data        3062  inv_mpu_dmp_motion_driver.o(.constdata)
    .constdata                               0x08009218   Section       80  asin.o(.constdata)
    pS                                       0x08009218   Data          48  asin.o(.constdata)
    qS                                       0x08009248   Data          32  asin.o(.constdata)
    .constdata                               0x08009268   Section      152  atan.o(.constdata)
    atanhi                                   0x08009268   Data          32  atan.o(.constdata)
    atanlo                                   0x08009288   Data          32  atan.o(.constdata)
    aTodd                                    0x080092a8   Data          40  atan.o(.constdata)
    aTeven                                   0x080092d0   Data          48  atan.o(.constdata)
    .constdata                               0x08009300   Section        8  qnan.o(.constdata)
    .conststring                             0x08009308   Section       78  inv_mpu.o(.conststring)
    .data                                    0x20000000   Section       48  minibalance.o(.data)
    .data                                    0x20000030   Section        4  delay.o(.data)
    fac_us                                   0x20000030   Data           1  delay.o(.data)
    fac_ms                                   0x20000032   Data           2  delay.o(.data)
    .data                                    0x20000034   Section        4  usart.o(.data)
    .data                                    0x20000038   Section        4  led.o(.data)
    temp                                     0x20000038   Data           4  led.o(.data)
    .data                                    0x2000003c   Section        7  key.o(.data)
    flag_key                                 0x2000003c   Data           1  key.o(.data)
    count_key                                0x2000003d   Data           1  key.o(.data)
    double_key                               0x2000003e   Data           1  key.o(.data)
    count_single                             0x20000040   Data           2  key.o(.data)
    flag_key                                 0x20000042   Data           1  key.o(.data)
    .data                                    0x20000044   Section       24  usart3.o(.data)
    uart_receive                             0x20000058   Data           4  usart3.o(.data)
    .data                                    0x2000005c   Section       60  control.o(.data)
    Velocity                                 0x2000006c   Data           4  control.o(.data)
    Encoder_Least                            0x20000070   Data           4  control.o(.data)
    Encoder                                  0x20000074   Data           4  control.o(.data)
    Movement                                 0x20000078   Data           4  control.o(.data)
    Encoder_Integral                         0x2000007c   Data           4  control.o(.data)
    Turn_Target                              0x20000080   Data           4  control.o(.data)
    Turn                                     0x20000084   Data           4  control.o(.data)
    Encoder_temp                             0x20000088   Data           4  control.o(.data)
    Turn_Convert                             0x2000008c   Data           4  control.o(.data)
    Turn_Count                               0x20000090   Data           4  control.o(.data)
    Turn_Bias_Integral                       0x20000094   Data           4  control.o(.data)
    .data                                    0x20000098   Section       44  inv_mpu.o(.data)
    st                                       0x20000098   Data          44  inv_mpu.o(.data)
    .data                                    0x200000c4   Section       84  filter.o(.data)
    .data                                    0x20000118   Section       52  mpu6050.o(.data)
    gyro_orientation                         0x2000013c   Data           9  mpu6050.o(.data)
    .data                                    0x2000014c   Section        8  show.o(.data)
    Count                                    0x20000150   Data           4  show.o(.data)
    .bss                                     0x20000154   Section     1024  oled.o(.bss)
    .bss                                     0x20000554   Section       42  datascope_dp.o(.bss)
    .bss                                     0x20000580   Section       16  inv_mpu_dmp_motion_driver.o(.bss)
    dmp                                      0x20000580   Data          16  inv_mpu_dmp_motion_driver.o(.bss)
    .bss                                     0x20000590   Section       16  filter.o(.bss)
    .bss                                     0x200005a0   Section      146  mpu6050.o(.bss)
    .bss                                     0x20000634   Section       96  libspace.o(.bss)
    HEAP                                     0x20000698   Section      512  startup_stm32f10x_md.o(HEAP)
    Heap_Mem                                 0x20000698   Data         512  startup_stm32f10x_md.o(HEAP)
    STACK                                    0x20000898   Section     1024  startup_stm32f10x_md.o(STACK)
    Stack_Mem                                0x20000898   Data        1024  startup_stm32f10x_md.o(STACK)
    __initial_sp                             0x20000c98   Data           0  startup_stm32f10x_md.o(STACK)

    Global Symbols

    Symbol Name                              Value     Ov Type        Size  Object(Section)

    BuildAttributes$$THM_ISAv4$P$D$K$B$S$PE$A:L22UL41UL21$X:L11$S22US41US21$IEEE1$IW$USESV6$~STKCKD$USESV7$~SHL$OTIME$ROPI$IEEEX$EBA8$UX$STANDARDLIB$REQ8$PRES8$EABIv2 0x00000000   Number         0  anon$$obj.o ABSOLUTE
    __ARM_use_no_argv                        0x00000000   Number         0  minibalance.o ABSOLUTE
    __ARM_exceptions_init                     - Undefined Weak Reference
    __alloca_initialize                       - Undefined Weak Reference
    __cpp_initialize__aeabi_                  - Undefined Weak Reference
    __cxa_finalize                            - Undefined Weak Reference
    __rt_locale                               - Undefined Weak Reference
    __sigvec_lookup                           - Undefined Weak Reference
    _atexit_init                              - Undefined Weak Reference
    _call_atexit_fns                          - Undefined Weak Reference
    _clock_init                               - Undefined Weak Reference
    _fp_trap_init                             - Undefined Weak Reference
    _fp_trap_shutdown                         - Undefined Weak Reference
    _get_lc_collate                           - Undefined Weak Reference
    _get_lc_ctype                             - Undefined Weak Reference
    _get_lc_monetary                          - Undefined Weak Reference
    _get_lc_numeric                           - Undefined Weak Reference
    _get_lc_time                              - Undefined Weak Reference
    _getenv_init                              - Undefined Weak Reference
    _handle_redirection                       - Undefined Weak Reference
    _init_alloc                               - Undefined Weak Reference
    _init_user_alloc                          - Undefined Weak Reference
    _initio                                   - Undefined Weak Reference
    _mutex_acquire                            - Undefined Weak Reference
    _mutex_release                            - Undefined Weak Reference
    _printf_post_padding                      - Undefined Weak Reference
    _printf_pre_padding                       - Undefined Weak Reference
    _printf_truncate_signed                   - Undefined Weak Reference
    _printf_truncate_unsigned                 - Undefined Weak Reference
    _rand_init                                - Undefined Weak Reference
    _signal_finish                            - Undefined Weak Reference
    _signal_init                              - Undefined Weak Reference
    _terminate_alloc                          - Undefined Weak Reference
    _terminate_user_alloc                     - Undefined Weak Reference
    _terminateio                              - Undefined Weak Reference
    __Vectors_Size                           0x000000ec   Number         0  startup_stm32f10x_md.o ABSOLUTE
    __Vectors                                0x08000000   Data           4  startup_stm32f10x_md.o(RESET)
    __Vectors_End                            0x080000ec   Data           0  startup_stm32f10x_md.o(RESET)
    __main                                   0x080000ed   Thumb Code     8  __main.o(!!!main)
    __scatterload                            0x080000f5   Thumb Code     0  __scatter.o(!!!scatter)
    __scatterload_rt2                        0x080000f5   Thumb Code    44  __scatter.o(!!!scatter)
    __scatterload_rt2_thumb_only             0x080000f5   Thumb Code     0  __scatter.o(!!!scatter)
    __scatterload_null                       0x08000103   Thumb Code     0  __scatter.o(!!!scatter)
    __decompress                             0x08000129   Thumb Code    90  __dczerorl2.o(!!dczerorl2)
    __decompress1                            0x08000129   Thumb Code     0  __dczerorl2.o(!!dczerorl2)
    __scatterload_zeroinit                   0x08000185   Thumb Code    28  __scatter_zi.o(!!handler_zi)
    _printf_d                                0x080001a1   Thumb Code     0  _printf_d.o(.ARM.Collect$$_printf_percent$$00000009)
    _printf_percent                          0x080001a1   Thumb Code     0  _printf_percent.o(.ARM.Collect$$_printf_percent$$00000000)
    _printf_percent_end                      0x080001a7   Thumb Code     0  _printf_percent_end.o(.ARM.Collect$$_printf_percent$$00000017)
    __rt_lib_init                            0x080001ab   Thumb Code     0  libinit.o(.ARM.Collect$$libinit$$00000000)
    __rt_lib_init_alloca_1                   0x080001ad   Thumb Code     0  libinit2.o(.ARM.Collect$$libinit$$0000002C)
    __rt_lib_init_argv_1                     0x080001ad   Thumb Code     0  libinit2.o(.ARM.Collect$$libinit$$0000002A)
    __rt_lib_init_atexit_1                   0x080001ad   Thumb Code     0  libinit2.o(.ARM.Collect$$libinit$$00000019)
    __rt_lib_init_clock_1                    0x080001ad   Thumb Code     0  libinit2.o(.ARM.Collect$$libinit$$0000001F)
    __rt_lib_init_cpp_1                      0x080001ad   Thumb Code     0  libinit2.o(.ARM.Collect$$libinit$$00000030)
    __rt_lib_init_exceptions_1               0x080001ad   Thumb Code     0  libinit2.o(.ARM.Collect$$libinit$$0000002E)
    __rt_lib_init_fp_1                       0x080001ad   Thumb Code     0  libinit2.o(.ARM.Collect$$libinit$$00000002)
    __rt_lib_init_fp_trap_1                  0x080001ad   Thumb Code     0  libinit2.o(.ARM.Collect$$libinit$$0000001D)
    __rt_lib_init_getenv_1                   0x080001ad   Thumb Code     0  libinit2.o(.ARM.Collect$$libinit$$00000021)
    __rt_lib_init_heap_1                     0x080001ad   Thumb Code     0  libinit2.o(.ARM.Collect$$libinit$$00000008)
    __rt_lib_init_lc_collate_1               0x080001ad   Thumb Code     0  libinit2.o(.ARM.Collect$$libinit$$0000000F)
    __rt_lib_init_lc_ctype_1                 0x080001ad   Thumb Code     0  libinit2.o(.ARM.Collect$$libinit$$00000011)
    __rt_lib_init_lc_monetary_1              0x080001ad   Thumb Code     0  libinit2.o(.ARM.Collect$$libinit$$00000013)
    __rt_lib_init_lc_numeric_1               0x080001ad   Thumb Code     0  libinit2.o(.ARM.Collect$$libinit$$00000015)
    __rt_lib_init_lc_time_1                  0x080001ad   Thumb Code     0  libinit2.o(.ARM.Collect$$libinit$$00000017)
    __rt_lib_init_rand_1                     0x080001ad   Thumb Code     0  libinit2.o(.ARM.Collect$$libinit$$0000000C)
    __rt_lib_init_return                     0x080001ad   Thumb Code     0  libinit2.o(.ARM.Collect$$libinit$$00000031)
    __rt_lib_init_signal_1                   0x080001ad   Thumb Code     0  libinit2.o(.ARM.Collect$$libinit$$0000001B)
    __rt_lib_init_stdio_1                    0x080001ad   Thumb Code     0  libinit2.o(.ARM.Collect$$libinit$$00000023)
    __rt_lib_init_user_alloc_1               0x080001ad   Thumb Code     0  libinit2.o(.ARM.Collect$$libinit$$0000000A)
    __rt_lib_shutdown                        0x080001af   Thumb Code     0  libshutdown.o(.ARM.Collect$$libshutdown$$00000000)
    __rt_lib_shutdown_fp_trap_1              0x080001b1   Thumb Code     0  libshutdown2.o(.ARM.Collect$$libshutdown$$00000006)
    __rt_lib_shutdown_heap_1                 0x080001b1   Thumb Code     0  libshutdown2.o(.ARM.Collect$$libshutdown$$0000000E)
    __rt_lib_shutdown_return                 0x080001b1   Thumb Code     0  libshutdown2.o(.ARM.Collect$$libshutdown$$0000000F)
    __rt_lib_shutdown_signal_1               0x080001b1   Thumb Code     0  libshutdown2.o(.ARM.Collect$$libshutdown$$00000009)
    __rt_lib_shutdown_stdio_1                0x080001b1   Thumb Code     0  libshutdown2.o(.ARM.Collect$$libshutdown$$00000003)
    __rt_lib_shutdown_user_alloc_1           0x080001b1   Thumb Code     0  libshutdown2.o(.ARM.Collect$$libshutdown$$0000000B)
    __rt_entry                               0x080001b3   Thumb Code     0  rtentry.o(.ARM.Collect$$rtentry$$00000000)
    __rt_entry_presh_1                       0x080001b3   Thumb Code     0  rtentry2.o(.ARM.Collect$$rtentry$$00000002)
    __rt_entry_sh                            0x080001b3   Thumb Code     0  rtentry4.o(.ARM.Collect$$rtentry$$00000004)
    __rt_entry_li                            0x080001b9   Thumb Code     0  rtentry2.o(.ARM.Collect$$rtentry$$0000000A)
    __rt_entry_postsh_1                      0x080001b9   Thumb Code     0  rtentry2.o(.ARM.Collect$$rtentry$$00000009)
    __rt_entry_main                          0x080001bd   Thumb Code     0  rtentry2.o(.ARM.Collect$$rtentry$$0000000D)
    __rt_entry_postli_1                      0x080001bd   Thumb Code     0  rtentry2.o(.ARM.Collect$$rtentry$$0000000C)
    __rt_exit                                0x080001c5   Thumb Code     0  rtexit.o(.ARM.Collect$$rtexit$$00000000)
    __rt_exit_ls                             0x080001c7   Thumb Code     0  rtexit2.o(.ARM.Collect$$rtexit$$00000003)
    __rt_exit_prels_1                        0x080001c7   Thumb Code     0  rtexit2.o(.ARM.Collect$$rtexit$$00000002)
    __rt_exit_exit                           0x080001cb   Thumb Code     0  rtexit2.o(.ARM.Collect$$rtexit$$00000004)
    WFI_SET                                  0x080001d1   Thumb Code     2  sys.o(.emb_text)
    INTX_DISABLE                             0x080001d3   Thumb Code     2  sys.o(.emb_text)
    INTX_ENABLE                              0x080001d5   Thumb Code     2  sys.o(.emb_text)
    MSR_MSP                                  0x080001d7   Thumb Code     6  sys.o(.emb_text)
    Reset_Handler                            0x080001dd   Thumb Code     4  startup_stm32f10x_md.o(.text)
    NMI_Handler                              0x080001e1   Thumb Code     2  startup_stm32f10x_md.o(.text)
    HardFault_Handler                        0x080001e3   Thumb Code     2  startup_stm32f10x_md.o(.text)
    MemManage_Handler                        0x080001e5   Thumb Code     2  startup_stm32f10x_md.o(.text)
    BusFault_Handler                         0x080001e7   Thumb Code     2  startup_stm32f10x_md.o(.text)
    UsageFault_Handler                       0x080001e9   Thumb Code     2  startup_stm32f10x_md.o(.text)
    SVC_Handler                              0x080001eb   Thumb Code     2  startup_stm32f10x_md.o(.text)
    DebugMon_Handler                         0x080001ed   Thumb Code     2  startup_stm32f10x_md.o(.text)
    PendSV_Handler                           0x080001ef   Thumb Code     2  startup_stm32f10x_md.o(.text)
    SysTick_Handler                          0x080001f1   Thumb Code     2  startup_stm32f10x_md.o(.text)
    ADC1_2_IRQHandler                        0x080001f3   Thumb Code     0  startup_stm32f10x_md.o(.text)
    CAN1_RX1_IRQHandler                      0x080001f3   Thumb Code     0  startup_stm32f10x_md.o(.text)
    CAN1_SCE_IRQHandler                      0x080001f3   Thumb Code     0  startup_stm32f10x_md.o(.text)
    DMA1_Channel1_IRQHandler                 0x080001f3   Thumb Code     0  startup_stm32f10x_md.o(.text)
    DMA1_Channel2_IRQHandler                 0x080001f3   Thumb Code     0  startup_stm32f10x_md.o(.text)
    DMA1_Channel3_IRQHandler                 0x080001f3   Thumb Code     0  startup_stm32f10x_md.o(.text)
    DMA1_Channel4_IRQHandler                 0x080001f3   Thumb Code     0  startup_stm32f10x_md.o(.text)
    DMA1_Channel5_IRQHandler                 0x080001f3   Thumb Code     0  startup_stm32f10x_md.o(.text)
    DMA1_Channel6_IRQHandler                 0x080001f3   Thumb Code     0  startup_stm32f10x_md.o(.text)
    DMA1_Channel7_IRQHandler                 0x080001f3   Thumb Code     0  startup_stm32f10x_md.o(.text)
    EXTI0_IRQHandler                         0x080001f3   Thumb Code     0  startup_stm32f10x_md.o(.text)
    EXTI15_10_IRQHandler                     0x080001f3   Thumb Code     0  startup_stm32f10x_md.o(.text)
    EXTI1_IRQHandler                         0x080001f3   Thumb Code     0  startup_stm32f10x_md.o(.text)
    EXTI2_IRQHandler                         0x080001f3   Thumb Code     0  startup_stm32f10x_md.o(.text)
    EXTI3_IRQHandler                         0x080001f3   Thumb Code     0  startup_stm32f10x_md.o(.text)
    EXTI4_IRQHandler                         0x080001f3   Thumb Code     0  startup_stm32f10x_md.o(.text)
    EXTI9_5_IRQHandler                       0x080001f3   Thumb Code     0  startup_stm32f10x_md.o(.text)
    FLASH_IRQHandler                         0x080001f3   Thumb Code     0  startup_stm32f10x_md.o(.text)
    I2C1_ER_IRQHandler                       0x080001f3   Thumb Code     0  startup_stm32f10x_md.o(.text)
    I2C1_EV_IRQHandler                       0x080001f3   Thumb Code     0  startup_stm32f10x_md.o(.text)
    I2C2_ER_IRQHandler                       0x080001f3   Thumb Code     0  startup_stm32f10x_md.o(.text)
    I2C2_EV_IRQHandler                       0x080001f3   Thumb Code     0  startup_stm32f10x_md.o(.text)
    PVD_IRQHandler                           0x080001f3   Thumb Code     0  startup_stm32f10x_md.o(.text)
    RCC_IRQHandler                           0x080001f3   Thumb Code     0  startup_stm32f10x_md.o(.text)
    RTCAlarm_IRQHandler                      0x080001f3   Thumb Code     0  startup_stm32f10x_md.o(.text)
    RTC_IRQHandler                           0x080001f3   Thumb Code     0  startup_stm32f10x_md.o(.text)
    SPI1_IRQHandler                          0x080001f3   Thumb Code     0  startup_stm32f10x_md.o(.text)
    SPI2_IRQHandler                          0x080001f3   Thumb Code     0  startup_stm32f10x_md.o(.text)
    TAMPER_IRQHandler                        0x080001f3   Thumb Code     0  startup_stm32f10x_md.o(.text)
    TIM1_BRK_IRQHandler                      0x080001f3   Thumb Code     0  startup_stm32f10x_md.o(.text)
    TIM1_CC_IRQHandler                       0x080001f3   Thumb Code     0  startup_stm32f10x_md.o(.text)
    TIM1_TRG_COM_IRQHandler                  0x080001f3   Thumb Code     0  startup_stm32f10x_md.o(.text)
    TIM2_IRQHandler                          0x080001f3   Thumb Code     0  startup_stm32f10x_md.o(.text)
    TIM3_IRQHandler                          0x080001f3   Thumb Code     0  startup_stm32f10x_md.o(.text)
    TIM4_IRQHandler                          0x080001f3   Thumb Code     0  startup_stm32f10x_md.o(.text)
    USART1_IRQHandler                        0x080001f3   Thumb Code     0  startup_stm32f10x_md.o(.text)
    USART2_IRQHandler                        0x080001f3   Thumb Code     0  startup_stm32f10x_md.o(.text)
    USBWakeUp_IRQHandler                     0x080001f3   Thumb Code     0  startup_stm32f10x_md.o(.text)
    USB_HP_CAN1_TX_IRQHandler                0x080001f3   Thumb Code     0  startup_stm32f10x_md.o(.text)
    USB_LP_CAN1_RX0_IRQHandler               0x080001f3   Thumb Code     0  startup_stm32f10x_md.o(.text)
    WWDG_IRQHandler                          0x080001f3   Thumb Code     0  startup_stm32f10x_md.o(.text)
    __user_initial_stackheap                 0x080001f5   Thumb Code     0  startup_stm32f10x_md.o(.text)
    main                                     0x08000215   Thumb Code   194  minibalance.o(.text)
    delay_init                               0x080002fd   Thumb Code    56  delay.o(.text)
    delay_us                                 0x08000335   Thumb Code    56  delay.o(.text)
    delay_ms                                 0x0800036d   Thumb Code    56  delay.o(.text)
    MY_NVIC_SetVectorTable                   0x080003ad   Thumb Code    12  sys.o(.text)
    MY_NVIC_PriorityGroupConfig              0x080003b9   Thumb Code    36  sys.o(.text)
    MY_NVIC_Init                             0x080003dd   Thumb Code   116  sys.o(.text)
    Ex_NVIC_Config                           0x08000451   Thumb Code   146  sys.o(.text)
    MYRCC_DeInit                             0x080004e3   Thumb Code    90  sys.o(.text)
    Sys_Standby                              0x0800053d   Thumb Code    68  sys.o(.text)
    Sys_Soft_Reset                           0x08000581   Thumb Code    12  sys.o(.text)
    JTAG_Set                                 0x0800058d   Thumb Code    42  sys.o(.text)
    Stm32_Clock_Init                         0x080005b7   Thumb Code   134  sys.o(.text)
    _sys_exit                                0x08000669   Thumb Code     6  usart.o(.text)
    fputc                                    0x0800066f   Thumb Code    24  usart.o(.text)
    uart_init                                0x08000687   Thumb Code   182  usart.o(.text)
    LED_Init                                 0x0800074d   Thumb Code    52  led.o(.text)
    Led_Flash                                0x08000781   Thumb Code    34  led.o(.text)
    KEY_Init                                 0x080007b9   Thumb Code    52  key.o(.text)
    click_N_Double                           0x080007ed   Thumb Code   132  key.o(.text)
    click                                    0x08000871   Thumb Code    38  key.o(.text)
    OLED_WR_Byte                             0x080008b9   Thumb Code    78  oled.o(.text)
    OLED_Refresh_Gram                        0x08000907   Thumb Code    70  oled.o(.text)
    OLED_Display_On                          0x0800094d   Thumb Code    28  oled.o(.text)
    OLED_Display_Off                         0x08000969   Thumb Code    28  oled.o(.text)
    OLED_Clear                               0x08000985   Thumb Code    42  oled.o(.text)
    OLED_DrawPoint                           0x080009af   Thumb Code   100  oled.o(.text)
    OLED_ShowChar                            0x08000a13   Thumb Code   158  oled.o(.text)
    oled_pow                                 0x08000ab1   Thumb Code    22  oled.o(.text)
    OLED_ShowNumber                          0x08000ac7   Thumb Code   148  oled.o(.text)
    OLED_ShowString                          0x08000b5b   Thumb Code    68  oled.o(.text)
    OLED_Init                                0x08000b9f   Thumb Code   408  oled.o(.text)
    uart3_init                               0x08000d39   Thumb Code   228  usart3.o(.text)
    USART3_IRQHandler                        0x08000e1d   Thumb Code   388  usart3.o(.text)
    Adc_Init                                 0x08000fd5   Thumb Code   282  adc.o(.text)
    Get_Adc                                  0x080010ef   Thumb Code    68  adc.o(.text)
    Get_battery_volt                         0x08001133   Thumb Code    90  adc.o(.text)
    Timer1_Init                              0x080011b1   Thumb Code    82  timer.o(.text)
    MiniBalance_Motor_Init                   0x0800120d   Thumb Code    36  motor.o(.text)
    MiniBalance_PWM_Init                     0x08001231   Thumb Code   154  motor.o(.text)
    Encoder_Init_TIM2                        0x080012dd   Thumb Code   110  encoder.o(.text)
    Encoder_Init_TIM4                        0x0800134b   Thumb Code   136  encoder.o(.text)
    Read_Encoder                             0x080013d3   Thumb Code    74  encoder.o(.text)
    IIC_Init                                 0x08001431   Thumb Code    42  ioi2c.o(.text)
    IIC_Start                                0x0800145b   Thumb Code    92  ioi2c.o(.text)
    IIC_Stop                                 0x080014b7   Thumb Code    64  ioi2c.o(.text)
    IIC_Wait_Ack                             0x080014f7   Thumb Code    92  ioi2c.o(.text)
    IIC_Ack                                  0x08001553   Thumb Code    68  ioi2c.o(.text)
    IIC_NAck                                 0x08001597   Thumb Code    66  ioi2c.o(.text)
    IIC_Send_Byte                            0x080015d9   Thumb Code    90  ioi2c.o(.text)
    i2cWrite                                 0x08001633   Thumb Code    96  ioi2c.o(.text)
    IIC_Read_Byte                            0x08001693   Thumb Code   100  ioi2c.o(.text)
    i2cRead                                  0x080016f7   Thumb Code   118  ioi2c.o(.text)
    I2C_ReadOneByte                          0x0800176d   Thumb Code    70  ioi2c.o(.text)
    IICreadBytes                             0x080017b3   Thumb Code   118  ioi2c.o(.text)
    IICwriteBytes                            0x08001829   Thumb Code    70  ioi2c.o(.text)
    IICreadByte                              0x0800186f   Thumb Code    22  ioi2c.o(.text)
    IICwriteByte                             0x08001885   Thumb Code    20  ioi2c.o(.text)
    IICwriteBits                             0x08001899   Thumb Code   106  ioi2c.o(.text)
    IICwriteBit                              0x08001903   Thumb Code    64  ioi2c.o(.text)
    myabs                                    0x08001945   Thumb Code    14  control.o(.text)
    Set_Pwm                                  0x08001953   Thumb Code   102  control.o(.text)
    Turn_Off                                 0x080019b9   Thumb Code    82  control.o(.text)
    Xianfu_Pwm                               0x08001a0b   Thumb Code    62  control.o(.text)
    turn                                     0x08001a49   Thumb Code   328  control.o(.text)
    velocity                                 0x08001b91   Thumb Code   288  control.o(.text)
    balance                                  0x08001cb1   Thumb Code    64  control.o(.text)
    Key                                      0x08001cf1   Thumb Code    40  control.o(.text)
    Get_Angle                                0x08001d19   Thumb Code   560  control.o(.text)
    TIM1_UP_IRQHandler                       0x08001f49   Thumb Code   236  control.o(.text)
    Float2Byte                               0x08002081   Thumb Code    28  datascope_dp.o(.text)
    DataScope_Get_Channel_Data               0x0800209d   Thumb Code   158  datascope_dp.o(.text)
    DataScope_Data_Generate                  0x0800213b   Thumb Code   148  datascope_dp.o(.text)
    mpu_reg_dump                             0x0800225f   Thumb Code    72  inv_mpu.o(.text)
    mpu_read_reg                             0x080022a7   Thumb Code    66  inv_mpu.o(.text)
    mpu_set_int_latched                      0x080022e9   Thumb Code   102  inv_mpu.o(.text)
    mpu_set_sensors                          0x0800234f   Thumb Code   202  inv_mpu.o(.text)
    mpu_set_bypass                           0x08002419   Thumb Code   328  inv_mpu.o(.text)
    mpu_reset_fifo                           0x08002561   Thumb Code   444  inv_mpu.o(.text)
    mpu_configure_fifo                       0x0800271d   Thumb Code   106  inv_mpu.o(.text)
    mpu_set_lpf                              0x08002787   Thumb Code   126  inv_mpu.o(.text)
    mpu_lp_accel_mode                        0x08002805   Thumb Code   218  inv_mpu.o(.text)
    mpu_set_sample_rate                      0x080028df   Thumb Code   152  inv_mpu.o(.text)
    mpu_set_accel_fsr                        0x08002977   Thumb Code   132  inv_mpu.o(.text)
    mpu_set_gyro_fsr                         0x080029fb   Thumb Code   132  inv_mpu.o(.text)
    mpu_init                                 0x08002a7f   Thumb Code   416  inv_mpu.o(.text)
    myget_ms                                 0x08002c1f   Thumb Code     2  inv_mpu.o(.text)
    mpu_get_gyro_reg                         0x08002c21   Thumb Code   110  inv_mpu.o(.text)
    mpu_get_accel_reg                        0x08002c8f   Thumb Code   110  inv_mpu.o(.text)
    mpu_get_temperature                      0x08002cfd   Thumb Code   150  inv_mpu.o(.text)
    mpu_set_accel_bias                       0x08002d93   Thumb Code   468  inv_mpu.o(.text)
    mpu_get_gyro_fsr                         0x08002f67   Thumb Code    64  inv_mpu.o(.text)
    mpu_get_accel_fsr                        0x08002fa7   Thumb Code    72  inv_mpu.o(.text)
    mpu_get_lpf                              0x08002fef   Thumb Code    74  inv_mpu.o(.text)
    mpu_get_sample_rate                      0x08003039   Thumb Code    26  inv_mpu.o(.text)
    mpu_get_compass_sample_rate              0x08003053   Thumb Code    10  inv_mpu.o(.text)
    mpu_set_compass_sample_rate              0x0800305d   Thumb Code     8  inv_mpu.o(.text)
    mpu_get_gyro_sens                        0x08003065   Thumb Code    58  inv_mpu.o(.text)
    mpu_get_accel_sens                       0x0800309f   Thumb Code    78  inv_mpu.o(.text)
    mpu_get_fifo_config                      0x080030ed   Thumb Code    12  inv_mpu.o(.text)
    mpu_get_power_state                      0x080030f9   Thumb Code    22  inv_mpu.o(.text)
    mpu_get_int_status                       0x0800310f   Thumb Code    64  inv_mpu.o(.text)
    mpu_read_fifo                            0x0800314f   Thumb Code   520  inv_mpu.o(.text)
    mpu_read_fifo_stream                     0x08003357   Thumb Code   186  inv_mpu.o(.text)
    mpu_set_int_level                        0x08003411   Thumb Code    12  inv_mpu.o(.text)
    mpu_set_dmp_state                        0x08003af1   Thumb Code   138  inv_mpu.o(.text)
    mpu_run_self_test                        0x08003b7b   Thumb Code   278  inv_mpu.o(.text)
    mpu_write_mem                            0x08003c91   Thumb Code   122  inv_mpu.o(.text)
    mpu_read_mem                             0x08003d0b   Thumb Code   122  inv_mpu.o(.text)
    mpu_load_firmware                        0x08003d85   Thumb Code   190  inv_mpu.o(.text)
    mpu_get_dmp_state                        0x08003e43   Thumb Code    14  inv_mpu.o(.text)
    mpu_get_compass_reg                      0x08003e51   Thumb Code     8  inv_mpu.o(.text)
    mpu_get_compass_fsr                      0x08003e59   Thumb Code     8  inv_mpu.o(.text)
    mpu_lp_motion_interrupt                  0x08003e61   Thumb Code   512  inv_mpu.o(.text)
    dmp_load_motion_driver_firmware          0x08004065   Thumb Code    20  inv_mpu_dmp_motion_driver.o(.text)
    dmp_set_orientation                      0x08004079   Thumb Code   290  inv_mpu_dmp_motion_driver.o(.text)
    dmp_set_gyro_bias                        0x0800419b   Thumb Code   294  inv_mpu_dmp_motion_driver.o(.text)
    dmp_set_accel_bias                       0x080042c1   Thumb Code   300  inv_mpu_dmp_motion_driver.o(.text)
    dmp_set_fifo_rate                        0x080043ed   Thumb Code   136  inv_mpu_dmp_motion_driver.o(.text)
    dmp_get_fifo_rate                        0x08004475   Thumb Code    12  inv_mpu_dmp_motion_driver.o(.text)
    dmp_set_tap_thresh                       0x08004481   Thumb Code   396  inv_mpu_dmp_motion_driver.o(.text)
    dmp_set_tap_axes                         0x0800460d   Thumb Code    70  inv_mpu_dmp_motion_driver.o(.text)
    dmp_set_tap_count                        0x08004653   Thumb Code    38  inv_mpu_dmp_motion_driver.o(.text)
    dmp_set_tap_time                         0x08004679   Thumb Code    38  inv_mpu_dmp_motion_driver.o(.text)
    dmp_set_tap_time_multi                   0x0800469f   Thumb Code    38  inv_mpu_dmp_motion_driver.o(.text)
    dmp_set_shake_reject_thresh              0x080046c5   Thumb Code    56  inv_mpu_dmp_motion_driver.o(.text)
    dmp_set_shake_reject_time                0x080046fd   Thumb Code    38  inv_mpu_dmp_motion_driver.o(.text)
    dmp_set_shake_reject_timeout             0x08004723   Thumb Code    38  inv_mpu_dmp_motion_driver.o(.text)
    dmp_get_pedometer_step_count             0x08004749   Thumb Code    66  inv_mpu_dmp_motion_driver.o(.text)
    dmp_set_pedometer_step_count             0x0800478b   Thumb Code    42  inv_mpu_dmp_motion_driver.o(.text)
    dmp_get_pedometer_walk_time              0x080047b5   Thumb Code    72  inv_mpu_dmp_motion_driver.o(.text)
    dmp_set_pedometer_walk_time              0x080047fd   Thumb Code    48  inv_mpu_dmp_motion_driver.o(.text)
    dmp_enable_6x_lp_quat                    0x0800482d   Thumb Code    84  inv_mpu_dmp_motion_driver.o(.text)
    dmp_enable_lp_quat                       0x08004881   Thumb Code    60  inv_mpu_dmp_motion_driver.o(.text)
    dmp_enable_gyro_cal                      0x080048bd   Thumb Code    62  inv_mpu_dmp_motion_driver.o(.text)
    dmp_enable_feature                       0x080048fb   Thumb Code   530  inv_mpu_dmp_motion_driver.o(.text)
    dmp_get_enabled_features                 0x08004b0d   Thumb Code    12  inv_mpu_dmp_motion_driver.o(.text)
    dmp_set_interrupt_mode                   0x08004b77   Thumb Code    66  inv_mpu_dmp_motion_driver.o(.text)
    dmp_read_fifo                            0x08004bb9   Thumb Code   514  inv_mpu_dmp_motion_driver.o(.text)
    dmp_register_tap_cb                      0x08004dbb   Thumb Code    10  inv_mpu_dmp_motion_driver.o(.text)
    dmp_register_android_orient_cb           0x08004dc5   Thumb Code    10  inv_mpu_dmp_motion_driver.o(.text)
    Kalman_Filter                            0x08004dd5   Thumb Code   558  filter.o(.text)
    Yijielvbo                                0x08005003   Thumb Code   132  filter.o(.text)
    MPU6050_newValues                        0x080051e9   Thumb Code   494  mpu6050.o(.text)
    MPU6050_setClockSource                   0x080053d7   Thumb Code    20  mpu6050.o(.text)
    MPU6050_setFullScaleGyroRange            0x080053eb   Thumb Code    20  mpu6050.o(.text)
    MPU6050_setFullScaleAccelRange           0x080053ff   Thumb Code    20  mpu6050.o(.text)
    MPU6050_setSleepEnabled                  0x08005413   Thumb Code    18  mpu6050.o(.text)
    MPU6050_getDeviceID                      0x08005425   Thumb Code    20  mpu6050.o(.text)
    MPU6050_testConnection                   0x08005439   Thumb Code    18  mpu6050.o(.text)
    MPU6050_setI2CMasterModeEnabled          0x0800544b   Thumb Code    18  mpu6050.o(.text)
    MPU6050_setI2CBypassEnabled              0x0800545d   Thumb Code    18  mpu6050.o(.text)
    MPU6050_initialize                       0x0800546f   Thumb Code    40  mpu6050.o(.text)
    DMP_Init                                 0x08005497   Thumb Code   198  mpu6050.o(.text)
    Read_DMP                                 0x0800555d   Thumb Code   626  mpu6050.o(.text)
    Read_Temperature                         0x080057cf   Thumb Code   110  mpu6050.o(.text)
    oled_show                                0x08005865   Thumb Code   546  show.o(.text)
    DataScope                                0x08005a87   Thumb Code   206  show.o(.text)
    __use_no_semihosting                     0x08005bdd   Thumb Code     2  use_no_semi_2.o(.text)
    __aeabi_ldivmod                          0x08005bdf   Thumb Code     0  llsdiv.o(.text)
    _ll_sdiv                                 0x08005bdf   Thumb Code    72  llsdiv.o(.text)
    __2printf                                0x08005c29   Thumb Code    20  noretval__2printf.o(.text)
    __printf                                 0x08005c41   Thumb Code   104  __printf.o(.text)
    _printf_int_dec                          0x08005ca9   Thumb Code   100  _printf_dec.o(.text)
    memcmp                                   0x08005d1d   Thumb Code    88  memcmp.o(.text)
    __aeabi_memset                           0x08005d75   Thumb Code    16  aeabi_memset.o(.text)
    __use_two_region_memory                  0x08005d85   Thumb Code     2  heapauxi.o(.text)
    __rt_heap_escrow$2region                 0x08005d87   Thumb Code     2  heapauxi.o(.text)
    __rt_heap_expand$2region                 0x08005d89   Thumb Code     2  heapauxi.o(.text)
    __I$use$semihosting                      0x08005d8b   Thumb Code     0  use_no_semi.o(.text)
    __use_no_semihosting_swi                 0x08005d8b   Thumb Code     2  use_no_semi.o(.text)
    __aeabi_uldivmod                         0x08005d8d   Thumb Code     0  lludivv7m.o(.text)
    _ll_udiv                                 0x08005d8d   Thumb Code   238  lludivv7m.o(.text)
    __read_errno                             0x08005e7b   Thumb Code    10  _rserrno.o(.text)
    __set_errno                              0x08005e85   Thumb Code    12  _rserrno.o(.text)
    _printf_int_common                       0x08005e91   Thumb Code   178  _printf_intcommon.o(.text)
    _printf_char_file                        0x08005f45   Thumb Code    32  _printf_char_file.o(.text)
    __aeabi_memclr                           0x08005f69   Thumb Code     0  rt_memclr.o(.text)
    __rt_memclr                              0x08005f69   Thumb Code    68  rt_memclr.o(.text)
    _memset                                  0x08005f6d   Thumb Code     0  rt_memclr.o(.text)
    __aeabi_errno_addr                       0x08005fad   Thumb Code     8  rt_errno_addr_intlibspace.o(.text)
    __errno$intlibspace                      0x08005fad   Thumb Code     0  rt_errno_addr_intlibspace.o(.text)
    __rt_errno_addr$intlibspace              0x08005fad   Thumb Code     0  rt_errno_addr_intlibspace.o(.text)
    _printf_char_common                      0x08005fbf   Thumb Code    32  _printf_char_common.o(.text)
    ferror                                   0x08005fe5   Thumb Code     8  ferror.o(.text)
    __aeabi_memclr4                          0x08005fed   Thumb Code     0  rt_memclr_w.o(.text)
    __aeabi_memclr8                          0x08005fed   Thumb Code     0  rt_memclr_w.o(.text)
    __rt_memclr_w                            0x08005fed   Thumb Code    78  rt_memclr_w.o(.text)
    _memset_w                                0x08005ff1   Thumb Code     0  rt_memclr_w.o(.text)
    __user_libspace                          0x0800603d   Thumb Code     8  libspace.o(.text)
    __user_perproc_libspace                  0x0800603d   Thumb Code     0  libspace.o(.text)
    __user_perthread_libspace                0x0800603d   Thumb Code     0  libspace.o(.text)
    __user_setup_stackheap                   0x08006045   Thumb Code    74  sys_stackheap_outer.o(.text)
    exit                                     0x0800608f   Thumb Code    12  exit.o(.text)
    __ARM_fpclassify                         0x0800609b   Thumb Code    40  fpclassify.o(i.__ARM_fpclassify)
    __kernel_poly                            0x080060c3   Thumb Code   170  poly.o(i.__kernel_poly)
    __mathlib_dbl_underflow                  0x0800616d   Thumb Code    10  dunder.o(i.__mathlib_dbl_underflow)
    asin                                     0x0800617d   Thumb Code   584  asin.o(i.asin)
    atan                                     0x080063f9   Thumb Code   478  atan.o(i.atan)
    atan2                                    0x0800661d   Thumb Code   346  atan2.o(i.atan2)
    sqrt                                     0x0800679d   Thumb Code    76  sqrt.o(i.sqrt)
    __aeabi_d2f                              0x080067e9   Thumb Code     0  d2f.o(x$fpl$d2f)
    _d2f                                     0x080067e9   Thumb Code    98  d2f.o(x$fpl$d2f)
    __aeabi_dadd                             0x0800684d   Thumb Code     0  daddsub_clz.o(x$fpl$dadd)
    _dadd                                    0x0800684d   Thumb Code   332  daddsub_clz.o(x$fpl$dadd)
    __fpl_dcheck_NaN1                        0x0800699d   Thumb Code    10  dcheck1.o(x$fpl$dcheck1)
    __fpl_dcmp_Inf                           0x080069ad   Thumb Code    24  dcmpi.o(x$fpl$dcmpinf)
    __aeabi_ddiv                             0x080069c5   Thumb Code     0  ddiv.o(x$fpl$ddiv)
    _ddiv                                    0x080069c5   Thumb Code   552  ddiv.o(x$fpl$ddiv)
    __aeabi_d2iz                             0x08006c75   Thumb Code     0  dfix.o(x$fpl$dfix)
    _dfix                                    0x08006c75   Thumb Code    94  dfix.o(x$fpl$dfix)
    __aeabi_ui2d                             0x08006cd3   Thumb Code     0  dflt_clz.o(x$fpl$dfltu)
    _dfltu                                   0x08006cd3   Thumb Code    38  dflt_clz.o(x$fpl$dfltu)
    __aeabi_cdcmple                          0x08006cf9   Thumb Code     0  dleqf.o(x$fpl$dleqf)
    _dcmple                                  0x08006cf9   Thumb Code   120  dleqf.o(x$fpl$dleqf)
    __fpl_dcmple_InfNaN                      0x08006d5b   Thumb Code     0  dleqf.o(x$fpl$dleqf)
    __aeabi_dmul                             0x08006d71   Thumb Code     0  dmul.o(x$fpl$dmul)
    _dmul                                    0x08006d71   Thumb Code   332  dmul.o(x$fpl$dmul)
    __fpl_dnaninf                            0x08006ec5   Thumb Code   156  dnaninf.o(x$fpl$dnaninf)
    __fpl_dretinf                            0x08006f61   Thumb Code    12  dretinf.o(x$fpl$dretinf)
    __aeabi_drsub                            0x08006f6d   Thumb Code     0  daddsub_clz.o(x$fpl$drsb)
    _drsb                                    0x08006f6d   Thumb Code    22  daddsub_clz.o(x$fpl$drsb)
    _dsqrt                                   0x08006f85   Thumb Code   456  dsqrt_noumaal.o(x$fpl$dsqrt)
    __aeabi_dsub                             0x08007151   Thumb Code     0  daddsub_clz.o(x$fpl$dsub)
    _dsub                                    0x08007151   Thumb Code   464  daddsub_clz.o(x$fpl$dsub)
    __aeabi_f2d                              0x08007325   Thumb Code     0  f2d.o(x$fpl$f2d)
    _f2d                                     0x08007325   Thumb Code    86  f2d.o(x$fpl$f2d)
    __aeabi_fadd                             0x0800737d   Thumb Code     0  faddsub_clz.o(x$fpl$fadd)
    _fadd                                    0x0800737d   Thumb Code   196  faddsub_clz.o(x$fpl$fadd)
    __fpl_fcmp_Inf                           0x08007441   Thumb Code    24  fcmpi.o(x$fpl$fcmpinf)
    __aeabi_fdiv                             0x08007459   Thumb Code     0  fdiv.o(x$fpl$fdiv)
    _fdiv                                    0x08007459   Thumb Code   384  fdiv.o(x$fpl$fdiv)
    __aeabi_cfcmpeq                          0x080075dd   Thumb Code     0  feqf.o(x$fpl$feqf)
    _fcmpeq                                  0x080075dd   Thumb Code   104  feqf.o(x$fpl$feqf)
    __aeabi_f2iz                             0x08007645   Thumb Code     0  ffix.o(x$fpl$ffix)
    _ffix                                    0x08007645   Thumb Code    54  ffix.o(x$fpl$ffix)
    __aeabi_f2uiz                            0x0800767d   Thumb Code     0  ffixu.o(x$fpl$ffixu)
    _ffixu                                   0x0800767d   Thumb Code    62  ffixu.o(x$fpl$ffixu)
    __aeabi_i2f                              0x080076bd   Thumb Code     0  fflt_clz.o(x$fpl$fflt)
    _fflt                                    0x080076bd   Thumb Code    48  fflt_clz.o(x$fpl$fflt)
    __aeabi_ui2f                             0x080076ed   Thumb Code     0  fflt_clz.o(x$fpl$ffltu)
    _ffltu                                   0x080076ed   Thumb Code    38  fflt_clz.o(x$fpl$ffltu)
    __aeabi_cfcmple                          0x08007715   Thumb Code     0  fleqf.o(x$fpl$fleqf)
    _fcmple                                  0x08007715   Thumb Code   104  fleqf.o(x$fpl$fleqf)
    __fpl_fcmple_InfNaN                      0x08007767   Thumb Code     0  fleqf.o(x$fpl$fleqf)
    __aeabi_fmul                             0x0800777d   Thumb Code     0  fmul.o(x$fpl$fmul)
    _fmul                                    0x0800777d   Thumb Code   258  fmul.o(x$fpl$fmul)
    __fpl_fnaninf                            0x0800787f   Thumb Code   140  fnaninf.o(x$fpl$fnaninf)
    __fpl_fretinf                            0x0800790b   Thumb Code    10  fretinf.o(x$fpl$fretinf)
    __aeabi_cfrcmple                         0x08007915   Thumb Code     0  frleqf.o(x$fpl$frleqf)
    _frcmple                                 0x08007915   Thumb Code    98  frleqf.o(x$fpl$frleqf)
    __aeabi_frsub                            0x08007977   Thumb Code     0  faddsub_clz.o(x$fpl$frsb)
    _frsb                                    0x08007977   Thumb Code    20  faddsub_clz.o(x$fpl$frsb)
    __aeabi_fsub                             0x0800798d   Thumb Code     0  faddsub_clz.o(x$fpl$fsub)
    _fsub                                    0x0800798d   Thumb Code   234  faddsub_clz.o(x$fpl$fsub)
    __fpl_return_NaN                         0x08007a77   Thumb Code   100  retnan.o(x$fpl$retnan)
    __ARM_scalbn                             0x08007adb   Thumb Code    92  scalbn.o(x$fpl$scalbn)
    __fpl_cmpreturn                          0x08007b37   Thumb Code    48  trapv.o(x$fpl$trapveneer)
    __I$use$fp                               0x08007b66   Number         0  usenofp.o(x$fpl$usenofp)
    oled_asc2_1206                           0x08007b66   Data        1140  oled.o(.constdata)
    oled_asc2_1608                           0x08007fda   Data        1520  oled.o(.constdata)
    hw                                       0x080085cc   Data          12  inv_mpu.o(.constdata)
    reg                                      0x080085d8   Data          27  inv_mpu.o(.constdata)
    test                                     0x080085f4   Data          40  inv_mpu.o(.constdata)
    __mathlib_zero                           0x08009300   Data           8  qnan.o(.constdata)
    Region$$Table$$Base                      0x08009358   Number         0  anon$$obj.o(Region$$Table)
    Region$$Table$$Limit                     0x08009378   Number         0  anon$$obj.o(Region$$Table)
    Way_Angle                                0x20000000   Data           1  minibalance.o(.data)
    Flag_Qian                                0x20000001   Data           1  minibalance.o(.data)
    Flag_Hou                                 0x20000002   Data           1  minibalance.o(.data)
    Flag_Left                                0x20000003   Data           1  minibalance.o(.data)
    Flag_Right                               0x20000004   Data           1  minibalance.o(.data)
    Flag_Stop                                0x20000005   Data           1  minibalance.o(.data)
    Flag_Show                                0x20000006   Data           1  minibalance.o(.data)
    Encoder_Left                             0x20000008   Data           4  minibalance.o(.data)
    Encoder_Right                            0x2000000c   Data           4  minibalance.o(.data)
    Moto1                                    0x20000010   Data           4  minibalance.o(.data)
    Moto2                                    0x20000014   Data           4  minibalance.o(.data)
    Temperature                              0x20000018   Data           4  minibalance.o(.data)
    Voltage                                  0x2000001c   Data           4  minibalance.o(.data)
    Angle_Balance                            0x20000020   Data           4  minibalance.o(.data)
    Gyro_Balance                             0x20000024   Data           4  minibalance.o(.data)
    Gyro_Turn                                0x20000028   Data           4  minibalance.o(.data)
    Show_Data_Mb                             0x2000002c   Data           4  minibalance.o(.data)
    __stdout                                 0x20000034   Data           4  usart.o(.data)
    Usart3_Receive                           0x20000044   Data           1  usart3.o(.data)
    mode_data                                0x20000045   Data           8  usart3.o(.data)
    six_data_1                               0x2000004d   Data           4  usart3.o(.data)
    six_data_2                               0x20000051   Data           4  usart3.o(.data)
    Balance_Pwm                              0x2000005c   Data           4  control.o(.data)
    Velocity_Pwm                             0x20000060   Data           4  control.o(.data)
    Turn_Pwm                                 0x20000064   Data           4  control.o(.data)
    Flag_Target                              0x20000068   Data           1  control.o(.data)
    K1                                       0x200000c4   Data           4  filter.o(.data)
    angle                                    0x200000c8   Data           4  filter.o(.data)
    angle_dot                                0x200000cc   Data           4  filter.o(.data)
    Q_angle                                  0x200000d0   Data           4  filter.o(.data)
    Q_gyro                                   0x200000d4   Data           4  filter.o(.data)
    R_angle                                  0x200000d8   Data           4  filter.o(.data)
    dt                                       0x200000dc   Data           4  filter.o(.data)
    C_0                                      0x200000e0   Data           1  filter.o(.data)
    Q_bias                                   0x200000e4   Data           4  filter.o(.data)
    Angle_err                                0x200000e8   Data           4  filter.o(.data)
    PCt_0                                    0x200000ec   Data           4  filter.o(.data)
    PCt_1                                    0x200000f0   Data           4  filter.o(.data)
    E                                        0x200000f4   Data           4  filter.o(.data)
    K_0                                      0x200000f8   Data           4  filter.o(.data)
    K_1                                      0x200000fc   Data           4  filter.o(.data)
    t_0                                      0x20000100   Data           4  filter.o(.data)
    t_1                                      0x20000104   Data           4  filter.o(.data)
    PP                                       0x20000108   Data          16  filter.o(.data)
    gyro                                     0x20000118   Data           6  mpu6050.o(.data)
    accel                                    0x2000011e   Data           6  mpu6050.o(.data)
    sensors                                  0x20000124   Data           2  mpu6050.o(.data)
    Pitch                                    0x20000128   Data           4  mpu6050.o(.data)
    q0                                       0x2000012c   Data           4  mpu6050.o(.data)
    q1                                       0x20000130   Data           4  mpu6050.o(.data)
    q2                                       0x20000134   Data           4  mpu6050.o(.data)
    q3                                       0x20000138   Data           4  mpu6050.o(.data)
    Gx_offset                                0x20000146   Data           2  mpu6050.o(.data)
    Gy_offset                                0x20000148   Data           2  mpu6050.o(.data)
    Gz_offset                                0x2000014a   Data           2  mpu6050.o(.data)
    i                                        0x2000014c   Data           1  show.o(.data)
    Send_Count                               0x2000014d   Data           1  show.o(.data)
    OLED_GRAM                                0x20000154   Data        1024  oled.o(.bss)
    DataScope_OutPut_Buffer                  0x20000554   Data          42  datascope_dp.o(.bss)
    Pdot                                     0x20000590   Data          16  filter.o(.bss)
    buffer                                   0x200005a0   Data          14  mpu6050.o(.bss)
    MPU6050_FIFO                             0x200005ae   Data         132  mpu6050.o(.bss)
    __libspace_start                         0x20000634   Data          96  libspace.o(.bss)
    __temporary_stack_top$libspace           0x20000694   Data           0  libspace.o(.bss)



==============================================================================

Memory Map of the image

  Image Entry point : 0x080000ed

  Load Region LR_IROM1 (Base: 0x08000000, Size: 0x000094cc, Max: 0x00010000, ABSOLUTE, COMPRESSED[0x000093c0])

    Execution Region ER_IROM1 (Base: 0x08000000, Size: 0x00009378, Max: 0x00010000, ABSOLUTE)

    Base Addr    Size         Type   Attr      Idx    E Section Name        Object

    0x08000000   0x000000ec   Data   RO            3    RESET               startup_stm32f10x_md.o
    0x080000ec   0x00000008   Code   RO          766  * !!!main             c_w.l(__main.o)
    0x080000f4   0x00000034   Code   RO         1082    !!!scatter          c_w.l(__scatter.o)
    0x08000128   0x0000005a   Code   RO         1080    !!dczerorl2         c_w.l(__dczerorl2.o)
    0x08000182   0x00000002   PAD
    0x08000184   0x0000001c   Code   RO         1084    !!handler_zi        c_w.l(__scatter_zi.o)
    0x080001a0   0x00000000   Code   RO          759    .ARM.Collect$$_printf_percent$$00000000  c_w.l(_printf_percent.o)
    0x080001a0   0x00000006   Code   RO          758    .ARM.Collect$$_printf_percent$$00000009  c_w.l(_printf_d.o)
    0x080001a6   0x00000004   Code   RO          857    .ARM.Collect$$_printf_percent$$00000017  c_w.l(_printf_percent_end.o)
    0x080001aa   0x00000002   Code   RO          952    .ARM.Collect$$libinit$$00000000  c_w.l(libinit.o)
    0x080001ac   0x00000000   Code   RO          962    .ARM.Collect$$libinit$$00000002  c_w.l(libinit2.o)
    0x080001ac   0x00000000   Code   RO          965    .ARM.Collect$$libinit$$00000008  c_w.l(libinit2.o)
    0x080001ac   0x00000000   Code   RO          967    .ARM.Collect$$libinit$$0000000A  c_w.l(libinit2.o)
    0x080001ac   0x00000000   Code   RO          969    .ARM.Collect$$libinit$$0000000C  c_w.l(libinit2.o)
    0x080001ac   0x00000000   Code   RO          972    .ARM.Collect$$libinit$$0000000F  c_w.l(libinit2.o)
    0x080001ac   0x00000000   Code   RO          974    .ARM.Collect$$libinit$$00000011  c_w.l(libinit2.o)
    0x080001ac   0x00000000   Code   RO          976    .ARM.Collect$$libinit$$00000013  c_w.l(libinit2.o)
    0x080001ac   0x00000000   Code   RO          978    .ARM.Collect$$libinit$$00000015  c_w.l(libinit2.o)
    0x080001ac   0x00000000   Code   RO          980    .ARM.Collect$$libinit$$00000017  c_w.l(libinit2.o)
    0x080001ac   0x00000000   Code   RO          982    .ARM.Collect$$libinit$$00000019  c_w.l(libinit2.o)
    0x080001ac   0x00000000   Code   RO          984    .ARM.Collect$$libinit$$0000001B  c_w.l(libinit2.o)
    0x080001ac   0x00000000   Code   RO          986    .ARM.Collect$$libinit$$0000001D  c_w.l(libinit2.o)
    0x080001ac   0x00000000   Code   RO          988    .ARM.Collect$$libinit$$0000001F  c_w.l(libinit2.o)
    0x080001ac   0x00000000   Code   RO          990    .ARM.Collect$$libinit$$00000021  c_w.l(libinit2.o)
    0x080001ac   0x00000000   Code   RO          992    .ARM.Collect$$libinit$$00000023  c_w.l(libinit2.o)
    0x080001ac   0x00000000   Code   RO          996    .ARM.Collect$$libinit$$0000002A  c_w.l(libinit2.o)
    0x080001ac   0x00000000   Code   RO          998    .ARM.Collect$$libinit$$0000002C  c_w.l(libinit2.o)
    0x080001ac   0x00000000   Code   RO         1000    .ARM.Collect$$libinit$$0000002E  c_w.l(libinit2.o)
    0x080001ac   0x00000000   Code   RO         1002    .ARM.Collect$$libinit$$00000030  c_w.l(libinit2.o)
    0x080001ac   0x00000002   Code   RO         1003    .ARM.Collect$$libinit$$00000031  c_w.l(libinit2.o)
    0x080001ae   0x00000002   Code   RO         1033    .ARM.Collect$$libshutdown$$00000000  c_w.l(libshutdown.o)
    0x080001b0   0x00000000   Code   RO         1048    .ARM.Collect$$libshutdown$$00000003  c_w.l(libshutdown2.o)
    0x080001b0   0x00000000   Code   RO         1051    .ARM.Collect$$libshutdown$$00000006  c_w.l(libshutdown2.o)
    0x080001b0   0x00000000   Code   RO         1054    .ARM.Collect$$libshutdown$$00000009  c_w.l(libshutdown2.o)
    0x080001b0   0x00000000   Code   RO         1056    .ARM.Collect$$libshutdown$$0000000B  c_w.l(libshutdown2.o)
    0x080001b0   0x00000000   Code   RO         1059    .ARM.Collect$$libshutdown$$0000000E  c_w.l(libshutdown2.o)
    0x080001b0   0x00000002   Code   RO         1060    .ARM.Collect$$libshutdown$$0000000F  c_w.l(libshutdown2.o)
    0x080001b2   0x00000000   Code   RO          848    .ARM.Collect$$rtentry$$00000000  c_w.l(rtentry.o)
    0x080001b2   0x00000000   Code   RO          901    .ARM.Collect$$rtentry$$00000002  c_w.l(rtentry2.o)
    0x080001b2   0x00000006   Code   RO          913    .ARM.Collect$$rtentry$$00000004  c_w.l(rtentry4.o)
    0x080001b8   0x00000000   Code   RO          903    .ARM.Collect$$rtentry$$00000009  c_w.l(rtentry2.o)
    0x080001b8   0x00000004   Code   RO          904    .ARM.Collect$$rtentry$$0000000A  c_w.l(rtentry2.o)
    0x080001bc   0x00000000   Code   RO          906    .ARM.Collect$$rtentry$$0000000C  c_w.l(rtentry2.o)
    0x080001bc   0x00000008   Code   RO          907    .ARM.Collect$$rtentry$$0000000D  c_w.l(rtentry2.o)
    0x080001c4   0x00000002   Code   RO          955    .ARM.Collect$$rtexit$$00000000  c_w.l(rtexit.o)
    0x080001c6   0x00000000   Code   RO         1007    .ARM.Collect$$rtexit$$00000002  c_w.l(rtexit2.o)
    0x080001c6   0x00000004   Code   RO         1008    .ARM.Collect$$rtexit$$00000003  c_w.l(rtexit2.o)
    0x080001ca   0x00000006   Code   RO         1009    .ARM.Collect$$rtexit$$00000004  c_w.l(rtexit2.o)
    0x080001d0   0x0000000c   Code   RO          225    .emb_text           sys.o
    0x080001dc   0x00000038   Code   RO            4    .text               startup_stm32f10x_md.o
    0x08000214   0x000000e8   Code   RO           12    .text               minibalance.o
    0x080002fc   0x000000b0   Code   RO          131    .text               delay.o
    0x080003ac   0x000002bc   Code   RO          226    .text               sys.o
    0x08000668   0x000000e4   Code   RO          249    .text               usart.o
    0x0800074c   0x0000006c   Code   RO          282    .text               led.o
    0x080007b8   0x00000100   Code   RO          303    .text               key.o
    0x080008b8   0x0000047e   Code   RO          324    .text               oled.o
    0x08000d36   0x00000002   PAD
    0x08000d38   0x0000029c   Code   RO          351    .text               usart3.o
    0x08000fd4   0x000001dc   Code   RO          377    .text               adc.o
    0x080011b0   0x0000005c   Code   RO          397    .text               timer.o
    0x0800120c   0x000000d0   Code   RO          417    .text               motor.o
    0x080012dc   0x00000154   Code   RO          437    .text               encoder.o
    0x08001430   0x00000512   Code   RO          457    .text               ioi2c.o
    0x08001942   0x00000002   PAD
    0x08001944   0x0000073c   Code   RO          477    .text               control.o
    0x08002080   0x00000154   Code   RO          577    .text               datascope_dp.o
    0x080021d4   0x00001e90   Code   RO          597    .text               inv_mpu.o
    0x08004064   0x00000d70   Code   RO          629    .text               inv_mpu_dmp_motion_driver.o
    0x08004dd4   0x00000308   Code   RO          650    .text               filter.o
    0x080050dc   0x00000788   Code   RO          671    .text               mpu6050.o
    0x08005864   0x00000378   Code   RO          703    .text               show.o
    0x08005bdc   0x00000002   Code   RO          726    .text               c_w.l(use_no_semi_2.o)
    0x08005bde   0x00000048   Code   RO          728    .text               c_w.l(llsdiv.o)
    0x08005c26   0x00000002   PAD
    0x08005c28   0x00000018   Code   RO          732    .text               c_w.l(noretval__2printf.o)
    0x08005c40   0x00000068   Code   RO          734    .text               c_w.l(__printf.o)
    0x08005ca8   0x00000074   Code   RO          736    .text               c_w.l(_printf_dec.o)
    0x08005d1c   0x00000058   Code   RO          760    .text               c_w.l(memcmp.o)
    0x08005d74   0x00000010   Code   RO          762    .text               c_w.l(aeabi_memset.o)
    0x08005d84   0x00000006   Code   RO          764    .text               c_w.l(heapauxi.o)
    0x08005d8a   0x00000002   Code   RO          846    .text               c_w.l(use_no_semi.o)
    0x08005d8c   0x000000ee   Code   RO          849    .text               c_w.l(lludivv7m.o)
    0x08005e7a   0x00000016   Code   RO          851    .text               c_w.l(_rserrno.o)
    0x08005e90   0x000000b2   Code   RO          853    .text               c_w.l(_printf_intcommon.o)
    0x08005f42   0x00000002   PAD
    0x08005f44   0x00000024   Code   RO          855    .text               c_w.l(_printf_char_file.o)
    0x08005f68   0x00000044   Code   RO          858    .text               c_w.l(rt_memclr.o)
    0x08005fac   0x00000008   Code   RO          922    .text               c_w.l(rt_errno_addr_intlibspace.o)
    0x08005fb4   0x00000030   Code   RO          924    .text               c_w.l(_printf_char_common.o)
    0x08005fe4   0x00000008   Code   RO          926    .text               c_w.l(ferror.o)
    0x08005fec   0x0000004e   Code   RO          930    .text               c_w.l(rt_memclr_w.o)
    0x0800603a   0x00000002   PAD
    0x0800603c   0x00000008   Code   RO          936    .text               c_w.l(libspace.o)
    0x08006044   0x0000004a   Code   RO          939    .text               c_w.l(sys_stackheap_outer.o)
    0x0800608e   0x0000000c   Code   RO          945    .text               c_w.l(exit.o)
    0x0800609a   0x00000028   Code   RO          887    i.__ARM_fpclassify  m_ws.l(fpclassify.o)
    0x080060c2   0x000000aa   Code   RO          889    i.__kernel_poly     m_ws.l(poly.o)
    0x0800616c   0x00000010   Code   RO          885    i.__mathlib_dbl_underflow  m_ws.l(dunder.o)
    0x0800617c   0x0000027c   Code   RO          829    i.asin              m_ws.l(asin.o)
    0x080063f8   0x00000224   Code   RO          876    i.atan              m_ws.l(atan.o)
    0x0800661c   0x00000180   Code   RO          839    i.atan2             m_ws.l(atan2.o)
    0x0800679c   0x0000004c   Code   RO          893    i.sqrt              m_ws.l(sqrt.o)
    0x080067e8   0x00000062   Code   RO          768    x$fpl$d2f           fz_ws.l(d2f.o)
    0x0800684a   0x00000002   PAD
    0x0800684c   0x00000150   Code   RO          770    x$fpl$dadd          fz_ws.l(daddsub_clz.o)
    0x0800699c   0x00000010   Code   RO          932    x$fpl$dcheck1       fz_ws.l(dcheck1.o)
    0x080069ac   0x00000018   Code   RO          860    x$fpl$dcmpinf       fz_ws.l(dcmpi.o)
    0x080069c4   0x000002b0   Code   RO          777    x$fpl$ddiv          fz_ws.l(ddiv.o)
    0x08006c74   0x0000005e   Code   RO          780    x$fpl$dfix          fz_ws.l(dfix.o)
    0x08006cd2   0x00000026   Code   RO          784    x$fpl$dfltu         fz_ws.l(dflt_clz.o)
    0x08006cf8   0x00000078   Code   RO          790    x$fpl$dleqf         fz_ws.l(dleqf.o)
    0x08006d70   0x00000154   Code   RO          792    x$fpl$dmul          fz_ws.l(dmul.o)
    0x08006ec4   0x0000009c   Code   RO          862    x$fpl$dnaninf       fz_ws.l(dnaninf.o)
    0x08006f60   0x0000000c   Code   RO          864    x$fpl$dretinf       fz_ws.l(dretinf.o)
    0x08006f6c   0x00000016   Code   RO          771    x$fpl$drsb          fz_ws.l(daddsub_clz.o)
    0x08006f82   0x00000002   PAD
    0x08006f84   0x000001cc   Code   RO          934    x$fpl$dsqrt         fz_ws.l(dsqrt_noumaal.o)
    0x08007150   0x000001d4   Code   RO          772    x$fpl$dsub          fz_ws.l(daddsub_clz.o)
    0x08007324   0x00000056   Code   RO          794    x$fpl$f2d           fz_ws.l(f2d.o)
    0x0800737a   0x00000002   PAD
    0x0800737c   0x000000c4   Code   RO          796    x$fpl$fadd          fz_ws.l(faddsub_clz.o)
    0x08007440   0x00000018   Code   RO          866    x$fpl$fcmpinf       fz_ws.l(fcmpi.o)
    0x08007458   0x00000184   Code   RO          803    x$fpl$fdiv          fz_ws.l(fdiv.o)
    0x080075dc   0x00000068   Code   RO          806    x$fpl$feqf          fz_ws.l(feqf.o)
    0x08007644   0x00000036   Code   RO          808    x$fpl$ffix          fz_ws.l(ffix.o)
    0x0800767a   0x00000002   PAD
    0x0800767c   0x0000003e   Code   RO          812    x$fpl$ffixu         fz_ws.l(ffixu.o)
    0x080076ba   0x00000002   PAD
    0x080076bc   0x00000030   Code   RO          817    x$fpl$fflt          fz_ws.l(fflt_clz.o)
    0x080076ec   0x00000026   Code   RO          816    x$fpl$ffltu         fz_ws.l(fflt_clz.o)
    0x08007712   0x00000002   PAD
    0x08007714   0x00000068   Code   RO          822    x$fpl$fleqf         fz_ws.l(fleqf.o)
    0x0800777c   0x00000102   Code   RO          824    x$fpl$fmul          fz_ws.l(fmul.o)
    0x0800787e   0x0000008c   Code   RO          868    x$fpl$fnaninf       fz_ws.l(fnaninf.o)
    0x0800790a   0x0000000a   Code   RO          870    x$fpl$fretinf       fz_ws.l(fretinf.o)
    0x08007914   0x00000062   Code   RO          826    x$fpl$frleqf        fz_ws.l(frleqf.o)
    0x08007976   0x00000014   Code   RO          797    x$fpl$frsb          fz_ws.l(faddsub_clz.o)
    0x0800798a   0x00000002   PAD
    0x0800798c   0x000000ea   Code   RO          798    x$fpl$fsub          fz_ws.l(faddsub_clz.o)
    0x08007a76   0x00000064   Code   RO          953    x$fpl$retnan        fz_ws.l(retnan.o)
    0x08007ada   0x0000005c   Code   RO          872    x$fpl$scalbn        fz_ws.l(scalbn.o)
    0x08007b36   0x00000030   Code   RO         1004    x$fpl$trapveneer    fz_ws.l(trapv.o)
    0x08007b66   0x00000000   Code   RO          874    x$fpl$usenofp       fz_ws.l(usenofp.o)
    0x08007b66   0x00000a64   Data   RO          326    .constdata          oled.o
    0x080085ca   0x00000002   PAD
    0x080085cc   0x00000050   Data   RO          598    .constdata          inv_mpu.o
    0x0800861c   0x00000bf6   Data   RO          631    .constdata          inv_mpu_dmp_motion_driver.o
    0x08009212   0x00000006   PAD
    0x08009218   0x00000050   Data   RO          830    .constdata          m_ws.l(asin.o)
    0x08009268   0x00000098   Data   RO          877    .constdata          m_ws.l(atan.o)
    0x08009300   0x00000008   Data   RO          891    .constdata          m_ws.l(qnan.o)
    0x08009308   0x0000004e   Data   RO          599    .conststring        inv_mpu.o
    0x08009356   0x00000002   PAD
    0x08009358   0x00000020   Data   RO         1078    Region$$Table       anon$$obj.o


    Execution Region RW_IRAM1 (Base: 0x20000000, Size: 0x00000c98, Max: 0x00005000, ABSOLUTE, COMPRESSED[0x00000048])

    Base Addr    Size         Type   Attr      Idx    E Section Name        Object

    0x20000000   0x00000030   Data   RW           13    .data               minibalance.o
    0x20000030   0x00000004   Data   RW          132    .data               delay.o
    0x20000034   0x00000004   Data   RW          250    .data               usart.o
    0x20000038   0x00000004   Data   RW          283    .data               led.o
    0x2000003c   0x00000007   Data   RW          304    .data               key.o
    0x20000043   0x00000001   PAD
    0x20000044   0x00000018   Data   RW          352    .data               usart3.o
    0x2000005c   0x0000003c   Data   RW          478    .data               control.o
    0x20000098   0x0000002c   Data   RW          600    .data               inv_mpu.o
    0x200000c4   0x00000054   Data   RW          652    .data               filter.o
    0x20000118   0x00000034   Data   RW          673    .data               mpu6050.o
    0x2000014c   0x00000008   Data   RW          704    .data               show.o
    0x20000154   0x00000400   Zero   RW          325    .bss                oled.o
    0x20000554   0x0000002a   Zero   RW          578    .bss                datascope_dp.o
    0x2000057e   0x00000002   PAD
    0x20000580   0x00000010   Zero   RW          630    .bss                inv_mpu_dmp_motion_driver.o
    0x20000590   0x00000010   Zero   RW          651    .bss                filter.o
    0x200005a0   0x00000092   Zero   RW          672    .bss                mpu6050.o
    0x20000632   0x00000002   PAD
    0x20000634   0x00000060   Zero   RW          937    .bss                c_w.l(libspace.o)
    0x20000694   0x00000004   PAD
    0x20000698   0x00000200   Zero   RW            2    HEAP                startup_stm32f10x_md.o
    0x20000898   0x00000400   Zero   RW            1    STACK               startup_stm32f10x_md.o


==============================================================================

Image component sizes


      Code (inc. data)   RO Data    RW Data    ZI Data      Debug   Object Name

       476         36          0          0          0        992   adc.o
      1852        248          0         60          0     205719   control.o
       340         30          0          0         42       1970   datascope_dp.o
       176          8          0          4          0     202723   delay.o
       340         20          0          0          0        971   encoder.o
       776         86          0         84         16       1892   filter.o
      7824        172        158         44          0      20855   inv_mpu.o
      3440        126       3062          0         16      14731   inv_mpu_dmp_motion_driver.o
      1298         18          0          0          0       5402   ioi2c.o
       256         34          0          7          0       1028   key.o
       108         22          0          4          0        625   led.o
       232         38          0         48          0     207500   minibalance.o
       208         18          0          0          0        758   motor.o
      1928        446          0         52        146      27757   mpu6050.o
      1150         48       2660          0       1024       4391   oled.o
       888        136          0          8          0       1197   show.o
        56         22        236          0       1536        800   startup_stm32f10x_md.o
       712         44          0          0          0       2735   sys.o
        92         10          0          0          0        546   timer.o
       228         16          0          4          0       2750   usart.o
       668         52          0         24          0       1836   usart3.o

    ----------------------------------------------------------------------
     23052       1630       6158        340       2784     707178   Object Totals
         0          0         32          0          0          0   (incl. Generated)
         4          0         10          1          4          0   (incl. Padding)

    ----------------------------------------------------------------------

      Code (inc. data)   RO Data    RW Data    ZI Data      Debug   Library Member Name

        90          0          0          0          0          0   __dczerorl2.o
         8          0          0          0          0         68   __main.o
       104          0          0          0          0         84   __printf.o
        52          8          0          0          0          0   __scatter.o
        28          0          0          0          0          0   __scatter_zi.o
        48          6          0          0          0         96   _printf_char_common.o
        36          4          0          0          0         80   _printf_char_file.o
         6          0          0          0          0          0   _printf_d.o
       116         16          0          0          0         92   _printf_dec.o
       178          0          0          0          0         88   _printf_intcommon.o
         0          0          0          0          0          0   _printf_percent.o
         4          0          0          0          0          0   _printf_percent_end.o
        22          0          0          0          0        100   _rserrno.o
        16          0          0          0          0         68   aeabi_memset.o
        12          0          0          0          0         72   exit.o
         8          0          0          0          0         68   ferror.o
         6          0          0          0          0        152   heapauxi.o
         2          0          0          0          0          0   libinit.o
         2          0          0          0          0          0   libinit2.o
         2          0          0          0          0          0   libshutdown.o
         2          0          0          0          0          0   libshutdown2.o
         8          4          0          0         96         68   libspace.o
        72          0          0          0          0         76   llsdiv.o
       238          0          0          0          0        100   lludivv7m.o
        88          0          0          0          0         76   memcmp.o
        24          4          0          0          0         84   noretval__2printf.o
         8          4          0          0          0         68   rt_errno_addr_intlibspace.o
        68          0          0          0          0         68   rt_memclr.o
        78          0          0          0          0         80   rt_memclr_w.o
         0          0          0          0          0          0   rtentry.o
        12          0          0          0          0          0   rtentry2.o
         6          0          0          0          0          0   rtentry4.o
         2          0          0          0          0          0   rtexit.o
        10          0          0          0          0          0   rtexit2.o
        74          0          0          0          0         80   sys_stackheap_outer.o
         2          0          0          0          0         68   use_no_semi.o
         2          0          0          0          0         68   use_no_semi_2.o
        98          4          0          0          0         92   d2f.o
       826         16          0          0          0        348   daddsub_clz.o
        16          4          0          0          0         68   dcheck1.o
        24          0          0          0          0         68   dcmpi.o
       688        140          0          0          0        208   ddiv.o
        94          4          0          0          0         92   dfix.o
        38          0          0          0          0         68   dflt_clz.o
       120          4          0          0          0         92   dleqf.o
       340         12          0          0          0        104   dmul.o
       156          4          0          0          0         92   dnaninf.o
        12          0          0          0          0         68   dretinf.o
       460         56          0          0          0        120   dsqrt_noumaal.o
        86          4          0          0          0         84   f2d.o
       450          8          0          0          0        236   faddsub_clz.o
        24          0          0          0          0         68   fcmpi.o
       388         76          0          0          0         96   fdiv.o
       104          4          0          0          0         84   feqf.o
        54          4          0          0          0         84   ffix.o
        62          4          0          0          0         84   ffixu.o
        86          0          0          0          0        136   fflt_clz.o
       104          4          0          0          0         84   fleqf.o
       258          4          0          0          0         84   fmul.o
       140          4          0          0          0         84   fnaninf.o
        10          0          0          0          0         68   fretinf.o
        98          0          0          0          0         68   frleqf.o
       100          0          0          0          0         68   retnan.o
        92          0          0          0          0         68   scalbn.o
        48          0          0          0          0         68   trapv.o
         0          0          0          0          0          0   usenofp.o
       636         52         80          0          0        168   asin.o
       548         70        152          0          0        124   atan.o
       384         38          0          0          0        144   atan2.o
        16          6          0          0          0         68   dunder.o
        40          0          0          0          0         68   fpclassify.o
       170          0          0          0          0         96   poly.o
         0          0          8          0          0          0   qnan.o
        76          0          0          0          0         84   sqrt.o

    ----------------------------------------------------------------------
      8302        568        240          0        100       5440   Library Totals
        22          0          0          0          4          0   (incl. Padding)

    ----------------------------------------------------------------------

      Code (inc. data)   RO Data    RW Data    ZI Data      Debug   Library Name

      1434         46          0          0         96       1804   c_w.l
      4976        356          0          0          0       2884   fz_ws.l
      1870        166        240          0          0        752   m_ws.l

    ----------------------------------------------------------------------
      8302        568        240          0        100       5440   Library Totals

    ----------------------------------------------------------------------

==============================================================================


      Code (inc. data)   RO Data    RW Data    ZI Data      Debug   

     31354       2198       6398        340       2884     707830   Grand Totals
     31354       2198       6398         72       2884     707830   ELF Image Totals (compressed)
     31354       2198       6398         72          0          0   ROM Totals

==============================================================================

    Total RO  Size (Code + RO Data)                37752 (  36.87kB)
    Total RW  Size (RW Data + ZI Data)              3224 (   3.15kB)
    Total ROM Size (Code + RO Data + RW Data)      37824 (  36.94kB)

==============================================================================

