ARM Linker, 5.03 [Build 24] [MDK-ARM Standard]

==============================================================================

Section Cross References

    main.o(i.main) refers to system_stm32f10x.o(i.SystemInit) for SystemInit
    main.o(i.main) refers to delay.o(i.delay_init) for delay_init
    main.o(i.main) refers to usart1.o(i.usart1_init) for usart1_init
    main.o(i.main) refers to usart3.o(i.uart3_init) for uart3_init
    main.o(i.main) refers to oled.o(i.JTAG_Set) for JTAG_Set
    main.o(i.main) refers to led.o(i.led_init) for led_init
    main.o(i.main) refers to key.o(i.KEY_Init) for KEY_Init
    main.o(i.main) refers to timer.o(i.MiniBalance_PWM_Init) for MiniBalance_PWM_Init
    main.o(i.main) refers to oled.o(i.OLED_Init) for OLED_Init
    main.o(i.main) refers to timer.o(i.TIM3_Cap_Init) for TIM3_Cap_Init
    main.o(i.main) refers to delay.o(i.delay_ms) for delay_ms
    main.o(i.main) refers to ioi2c.o(i.IIC_Init) for IIC_Init
    main.o(i.main) refers to mpu6050.o(i.MPU6050_initialize) for MPU6050_initialize
    main.o(i.main) refers to mpu6050.o(i.DMP_Init) for DMP_Init
    main.o(i.main) refers to timer.o(i.Timer1_Init) for Timer1_Init
    main.o(i.main) refers to mpu6050.o(i.Read_DMP) for Read_DMP
    main.o(i.main) refers to mpu6050.o(i.Read_Temperature) for Read_Temperature
    main.o(i.main) refers to show.o(i.DataScope) for DataScope
==============================================================================

Removing Unused input sections from the image.

    Removing stm32f10x_rcc.o(i.RCC_ADCCLKConfig), (20 bytes).
    Removing stm32f10x_rcc.o(i.RCC_AHBPeriphClockCmd), (24 bytes).
    Removing stm32f10x_rcc.o(i.RCC_APB1PeriphClockCmd), (24 bytes).
    Removing stm32f10x_rcc.o(i.RCC_APB1PeriphResetCmd), (24 bytes).
    Removing stm32f10x_rcc.o(i.RCC_APB2PeriphResetCmd), (24 bytes).
    Removing stm32f10x_rcc.o(i.RCC_AdjustHSICalibrationValue), (20 bytes).
    Removing stm32f10x_rcc.o(i.RCC_BackupResetCmd), (12 bytes).
    Removing stm32f10x_rcc.o(i.RCC_ClearFlag), (16 bytes).
    Removing stm32f10x_rcc.o(i.RCC_ClearITPendingBit), (12 bytes).
    Removing stm32f10x_rcc.o(i.RCC_ClockSecuritySystemCmd), (12 bytes).
    Removing stm32f10x_rcc.o(i.RCC_DeInit), (64 bytes).
    Removing stm32f10x_rcc.o(i.RCC_GetFlagStatus), (48 bytes).
    Removing stm32f10x_rcc.o(i.RCC_GetITStatus), (20 bytes).
    Removing stm32f10x_rcc.o(i.RCC_GetSYSCLKSource), (16 bytes).
    Removing stm32f10x_rcc.o(i.RCC_HCLKConfig), (20 bytes).
    Removing stm32f10x_rcc.o(i.RCC_HSEConfig), (52 bytes).
    Removing stm32f10x_rcc.o(i.RCC_HSICmd), (12 bytes).
    Removing stm32f10x_rcc.o(i.RCC_ITConfig), (24 bytes).
==============================================================================

Image Symbol Table

    Local Symbols

    Symbol Name                              Value     Ov Type        Size  Object(Section)

    ../clib/microlib/division.c              0x00000000   Number         0  uldiv.o ABSOLUTE
    ../clib/microlib/division.c              0x00000000   Number         0  uidiv.o ABSOLUTE
    ../clib/microlib/division.c              0x00000000   Number         0  ldiv.o ABSOLUTE
    ../clib/microlib/errno.c                 0x00000000   Number         0  errno.o ABSOLUTE
    ../clib/microlib/init/entry.s            0x00000000   Number         0  entry7b.o ABSOLUTE
    ../clib/microlib/init/entry.s            0x00000000   Number         0  entry7a.o ABSOLUTE
    ../clib/microlib/init/entry.s            0x00000000   Number         0  entry2.o ABSOLUTE
    ../clib/microlib/init/entry.s            0x00000000   Number         0  entry5.o ABSOLUTE
    ../clib/microlib/init/entry.s            0x00000000   Number         0  entry10a.o ABSOLUTE
    ../clib/microlib/init/entry.s            0x00000000   Number         0  entry11a.o ABSOLUTE
    ../clib/microlib/init/entry.s            0x00000000   Number         0  entry11b.o ABSOLUTE
    ../clib/microlib/init/entry.s            0x00000000   Number         0  entry10b.o ABSOLUTE
    ../clib/microlib/init/entry.s            0x00000000   Number         0  entry.o ABSOLUTE
    ../clib/microlib/init/entry.s            0x00000000   Number         0  entry8a.o ABSOLUTE
    ../clib/microlib/init/entry.s            0x00000000   Number         0  entry8b.o ABSOLUTE
    ../clib/microlib/init/entry.s            0x00000000   Number         0  entry9a.o ABSOLUTE
    ../clib/microlib/init/entry.s            0x00000000   Number         0  entry9b.o ABSOLUTE
    ../clib/microlib/longlong.c              0x00000000   Number         0  llshl.o ABSOLUTE
    ../clib/microlib/longlong.c              0x00000000   Number         0  llsshr.o ABSOLUTE
    ../clib/microlib/longlong.c              0x00000000   Number         0  llushr.o ABSOLUTE
    ../clib/microlib/printf/printf.c         0x00000000   Number         0  printf2.o ABSOLUTE
    ../clib/microlib/printf/printf.c         0x00000000   Number         0  printf3.o ABSOLUTE
    ../clib/microlib/printf/printf.c         0x00000000   Number         0  printf4.o ABSOLUTE
    ../clib/microlib/printf/printf.c         0x00000000   Number         0  printf6.o ABSOLUTE
    ../clib/microlib/printf/printf.c         0x00000000   Number         0  printf7.o ABSOLUTE
    ../clib/microlib/printf/printf.c         0x00000000   Number         0  printf8.o ABSOLUTE
    ../clib/microlib/printf/printf.c         0x00000000   Number         0  printf0.o ABSOLUTE
    ../clib/microlib/printf/printf.c         0x00000000   Number         0  printfa.o ABSOLUTE
    ../clib/microlib/printf/printf.c         0x00000000   Number         0  printf5.o ABSOLUTE
    ../clib/microlib/printf/printf.c         0x00000000   Number         0  printfb.o ABSOLUTE
    ../clib/microlib/printf/printf.c         0x00000000   Number         0  printf1.o ABSOLUTE
    ../clib/microlib/printf/stubs.s          0x00000000   Number         0  stubs.o ABSOLUTE
    ../clib/microlib/stdio/streams.c         0x00000000   Number         0  stdout.o ABSOLUTE
    ../clib/microlib/string/memcmp.c         0x00000000   Number         0  memcmp.o ABSOLUTE
    ../clib/microlib/string/memset.c         0x00000000   Number         0  memseta.o ABSOLUTE
    ../clib/microlib/stubs.s                 0x00000000   Number         0  iusefp.o ABSOLUTE
    ../fplib/microlib/d2f.c                  0x00000000   Number         0  d2f.o ABSOLUTE
    ../fplib/microlib/f2d.c                  0x00000000   Number         0  f2d.o ABSOLUTE
    ../fplib/microlib/fpadd.c                0x00000000   Number         0  fadd.o ABSOLUTE
    ../fplib/microlib/fpadd.c                0x00000000   Number         0  dadd.o ABSOLUTE
    ../fplib/microlib/fpdiv.c                0x00000000   Number         0  ddiv.o ABSOLUTE
    ../fplib/microlib/fpdiv.c                0x00000000   Number         0  fdiv.o ABSOLUTE
    ../fplib/microlib/fpepilogue.c           0x00000000   Number         0  fepilogue.o ABSOLUTE
    ../fplib/microlib/fpepilogue.c           0x00000000   Number         0  depilogue.o ABSOLUTE
    ../fplib/microlib/fpfix.c                0x00000000   Number         0  ffixui.o ABSOLUTE
    ../fplib/microlib/fpfix.c                0x00000000   Number         0  dfixul.o ABSOLUTE
    ../fplib/microlib/fpfix.c                0x00000000   Number         0  ffixi.o ABSOLUTE
    ../fplib/microlib/fpflt.c                0x00000000   Number         0  fflti.o ABSOLUTE
    ../fplib/microlib/fpflt.c                0x00000000   Number         0  ffltui.o ABSOLUTE
    ../fplib/microlib/fpmul.c                0x00000000   Number         0  fmul.o ABSOLUTE
    ../fplib/microlib/fpmul.c                0x00000000   Number         0  dmul.o ABSOLUTE
    ../fplib/microlib/fpscalb.c              0x00000000   Number         0  dscalb.o ABSOLUTE
    ../fplib/microlib/fpscalb.c              0x00000000   Number         0  fscalb.o ABSOLUTE
    ../fplib/microlib/fpsqrt.c               0x00000000   Number         0  dsqrt.o ABSOLUTE
    ../mathlib/asin.c                        0x00000000   Number         0  asin.o ABSOLUTE
    ../mathlib/asin.c                        0x00000000   Number         0  asin_x.o ABSOLUTE
    ../mathlib/atan.c                        0x00000000   Number         0  atan.o ABSOLUTE
    ../mathlib/atan.c                        0x00000000   Number         0  atan_x.o ABSOLUTE
    ../mathlib/atan2.c                       0x00000000   Number         0  atan2_x.o ABSOLUTE
    ../mathlib/atan2.c                       0x00000000   Number         0  atan2.o ABSOLUTE
    ../mathlib/dunder.c                      0x00000000   Number         0  dunder.o ABSOLUTE
    ../mathlib/fpclassify.c                  0x00000000   Number         0  fpclassify.o ABSOLUTE
    ../mathlib/poly.c                        0x00000000   Number         0  poly.o ABSOLUTE
    ../mathlib/qnan.c                        0x00000000   Number         0  qnan.o ABSOLUTE
    ../mathlib/sqrt.c                        0x00000000   Number         0  sqrt_x.o ABSOLUTE
    ../mathlib/sqrt.c                        0x00000000   Number         0  sqrt.o ABSOLUTE
    ..\..\..\Libraries\CMSIS\CM3\CoreSupport\core_cm3.c 0x00000000   Number         0  core_cm3.o ABSOLUTE
    ..\..\..\Libraries\CMSIS\CM3\DeviceSupport\ST\STM32F10x\startup\arm\startup_stm32f10x_hd_vl.s 0x00000000   Number         0  startup_stm32f10x_hd_vl.o ABSOLUTE
    ..\..\..\Libraries\STM32F10x_StdPeriph_Driver\src\misc.c 0x00000000   Number         0  misc.o ABSOLUTE
    ..\..\..\Libraries\STM32F10x_StdPeriph_Driver\src\stm32f10x_exti.c 0x00000000   Number         0  stm32f10x_exti.o ABSOLUTE
    ..\..\..\Libraries\STM32F10x_StdPeriph_Driver\src\stm32f10x_gpio.c 0x00000000   Number         0  stm32f10x_gpio.o ABSOLUTE
    ..\..\..\Libraries\STM32F10x_StdPeriph_Driver\src\stm32f10x_rcc.c 0x00000000   Number         0  stm32f10x_rcc.o ABSOLUTE
    ..\..\..\Libraries\STM32F10x_StdPeriph_Driver\src\stm32f10x_usart.c 0x00000000   Number         0  stm32f10x_usart.o ABSOLUTE
    ..\..\..\drivers\ADC\adc.c               0x00000000   Number         0  adc.o ABSOLUTE
    ..\..\..\drivers\DMP\inv_mpu.c           0x00000000   Number         0  inv_mpu.o ABSOLUTE
    ..\..\..\drivers\DMP\inv_mpu_dmp_motion_driver.c 0x00000000   Number         0  inv_mpu_dmp_motion_driver.o ABSOLUTE
    ..\..\..\drivers\DataScope_DP\DataScope_DP.C 0x00000000   Number         0  datascope_dp.o ABSOLUTE
    ..\..\..\drivers\IIC\IOI2C.c             0x00000000   Number         0  ioi2c.o ABSOLUTE
    ..\..\..\drivers\KEY\key.c               0x00000000   Number         0  key.o ABSOLUTE
    ..\..\..\drivers\MPU6050\MPU6050.c       0x00000000   Number         0  mpu6050.o ABSOLUTE
    ..\..\..\drivers\MiniBalance\MiniBalance.c 0x00000000   Number         0  minibalance.o ABSOLUTE
    ..\..\..\drivers\OLED\oled.c             0x00000000   Number         0  oled.o ABSOLUTE
    ..\..\..\drivers\TIMER\timer.c           0x00000000   Number         0  timer.o ABSOLUTE
    ..\..\..\drivers\delay\delay.c           0x00000000   Number         0  delay.o ABSOLUTE
    ..\..\..\drivers\filter\filter.c         0x00000000   Number         0  filter.o ABSOLUTE
    ..\..\..\drivers\led\led.c               0x00000000   Number         0  led.o ABSOLUTE
    ..\..\..\drivers\show\show.c             0x00000000   Number         0  show.o ABSOLUTE
    ..\..\..\drivers\usart1\usart1.c         0x00000000   Number         0  usart1.o ABSOLUTE
    ..\..\..\drivers\usart3\usart3.c         0x00000000   Number         0  usart3.o ABSOLUTE
    ..\\..\\..\\Libraries\\CMSIS\\CM3\\CoreSupport\\core_cm3.c 0x00000000   Number         0  core_cm3.o ABSOLUTE
    ..\main.c                                0x00000000   Number         0  main.o ABSOLUTE
    ..\stm32f10x_it.c                        0x00000000   Number         0  stm32f10x_it.o ABSOLUTE
    ..\system_stm32f10x.c                    0x00000000   Number         0  system_stm32f10x.o ABSOLUTE
    cdcmple.s                                0x00000000   Number         0  cdcmple.o ABSOLUTE
    cdrcmple.s                               0x00000000   Number         0  cdrcmple.o ABSOLUTE
    dc.s                                     0x00000000   Number         0  dc.o ABSOLUTE
    handlers.s                               0x00000000   Number         0  handlers.o ABSOLUTE
    init.s                                   0x00000000   Number         0  init.o ABSOLUTE
    RESET                                    0x08000000   Section      308  startup_stm32f10x_hd_vl.o(RESET)
    .ARM.Collect$$$$00000000                 0x08000134   Section        0  entry.o(.ARM.Collect$$$$00000000)
    .ARM.Collect$$$$00000001                 0x08000134   Section        4  entry2.o(.ARM.Collect$$$$00000001)
    .ARM.Collect$$$$00000004                 0x08000138   Section        4  entry5.o(.ARM.Collect$$$$00000004)
    .ARM.Collect$$$$00000008                 0x0800013c   Section        0  entry7b.o(.ARM.Collect$$$$00000008)
    .ARM.Collect$$$$0000000A                 0x0800013c   Section        0  entry8b.o(.ARM.Collect$$$$0000000A)
    .ARM.Collect$$$$0000000B                 0x0800013c   Section        8  entry9a.o(.ARM.Collect$$$$0000000B)
    .ARM.Collect$$$$0000000D                 0x08000144   Section        0  entry10a.o(.ARM.Collect$$$$0000000D)
    .ARM.Collect$$$$0000000F                 0x08000144   Section        0  entry11a.o(.ARM.Collect$$$$0000000F)
    .ARM.Collect$$$$00002712                 0x08000144   Section        4  entry2.o(.ARM.Collect$$$$00002712)
    __lit__00000000                          0x08000144   Data           4  entry2.o(.ARM.Collect$$$$00002712)
    .text                                    0x08000148   Section       36  startup_stm32f10x_hd_vl.o(.text)
    .text                                    0x0800016c   Section        0  ldiv.o(.text)
    .text                                    0x080001c6   Section        0  memseta.o(.text)
    .text                                    0x080001ea   Section        0  memcmp.o(.text)
    .text                                    0x08000204   Section        0  fadd.o(.text)
    .text                                    0x080002b4   Section        0  fmul.o(.text)
    .text                                    0x08000320   Section        0  fdiv.o(.text)
    .text                                    0x080003a0   Section        0  fscalb.o(.text)
    .text                                    0x080003b8   Section        0  dadd.o(.text)
    .text                                    0x08000506   Section        0  dmul.o(.text)
    .text                                    0x080005ea   Section        0  fflti.o(.text)
    .text                                    0x080005fc   Section        0  ffltui.o(.text)
    .text                                    0x08000606   Section        0  ffixi.o(.text)
    .text                                    0x08000638   Section        0  ffixui.o(.text)
    .text                                    0x08000660   Section        0  f2d.o(.text)
    .text                                    0x08000686   Section        0  d2f.o(.text)
    .text                                    0x080006be   Section        0  uidiv.o(.text)
    .text                                    0x080006ea   Section        0  uldiv.o(.text)
    .text                                    0x0800074c   Section        0  llshl.o(.text)
    .text                                    0x0800076a   Section        0  llsshr.o(.text)
    .text                                    0x0800078e   Section        0  iusefp.o(.text)
    .text                                    0x0800078e   Section        0  fepilogue.o(.text)
    .text                                    0x080007fa   Section        0  depilogue.o(.text)
    .text                                    0x080008b8   Section        0  ddiv.o(.text)
    .text                                    0x08000996   Section        0  dscalb.o(.text)
    .text                                    0x080009c4   Section       36  init.o(.text)
    .text                                    0x080009e8   Section        0  llushr.o(.text)
    .text                                    0x08000a08   Section        0  dsqrt.o(.text)
    i.BusFault_Handler                       0x08000aaa   Section        0  stm32f10x_it.o(i.BusFault_Handler)
    i.DMP_Init                               0x08000aac   Section        0  mpu6050.o(i.DMP_Init)
    i.DataScope                              0x08000ccc   Section        0  show.o(i.DataScope)
    i.DataScope_Data_Generate                0x08000d7c   Section        0  datascope_dp.o(i.DataScope_Data_Generate)
    i.DataScope_Get_Channel_Data             0x08000dfc   Section        0  datascope_dp.o(i.DataScope_Get_Channel_Data)
    i.DebugMon_Handler                       0x08000e50   Section        0  stm32f10x_it.o(i.DebugMon_Handler)
    i.Float2Byte                             0x08000e52   Section        0  datascope_dp.o(i.Float2Byte)
    i.GPIO_Init                              0x08000e68   Section        0  stm32f10x_gpio.o(i.GPIO_Init)
    i.GPIO_ResetBits                         0x08000f06   Section        0  stm32f10x_gpio.o(i.GPIO_ResetBits)
    i.GPIO_SetBits                           0x08000f0a   Section        0  stm32f10x_gpio.o(i.GPIO_SetBits)
    i.HardFault_Handler                      0x08000f0e   Section        0  stm32f10x_it.o(i.HardFault_Handler)
    i.I2C_ReadOneByte                        0x08000f10   Section        0  ioi2c.o(i.I2C_ReadOneByte)
    i.IIC_Ack                                0x08000f50   Section        0  ioi2c.o(i.IIC_Ack)
    i.IIC_Init                               0x08000f88   Section        0  ioi2c.o(i.IIC_Init)
    i.IIC_NAck                               0x08000fb4   Section        0  ioi2c.o(i.IIC_NAck)
    i.IIC_Read_Byte                          0x08000fec   Section        0  ioi2c.o(i.IIC_Read_Byte)
    i.IIC_Send_Byte                          0x08001058   Section        0  ioi2c.o(i.IIC_Send_Byte)
    i.IIC_Start                              0x080010b8   Section        0  ioi2c.o(i.IIC_Start)
    i.IIC_Stop                               0x08001108   Section        0  ioi2c.o(i.IIC_Stop)
    i.IIC_Wait_Ack                           0x08001140   Section        0  ioi2c.o(i.IIC_Wait_Ack)
    i.IICreadByte                            0x08001198   Section        0  ioi2c.o(i.IICreadByte)
    i.IICwriteBit                            0x080011a6   Section        0  ioi2c.o(i.IICwriteBit)
    i.IICwriteBits                           0x080011d8   Section        0  ioi2c.o(i.IICwriteBits)
    i.IICwriteByte                           0x0800122c   Section        0  ioi2c.o(i.IICwriteByte)
    i.IICwriteBytes                          0x08001238   Section        0  ioi2c.o(i.IICwriteBytes)
    i.JTAG_Set                               0x0800127c   Section        0  oled.o(i.JTAG_Set)
    i.KEY_Init                               0x080012a4   Section        0  key.o(i.KEY_Init)
    i.Led_Flash                              0x080012cc   Section        0  led.o(i.Led_Flash)
    i.MPU6050_initialize                     0x080012f0   Section        0  mpu6050.o(i.MPU6050_initialize)
    i.MPU6050_setClockSource                 0x0800131a   Section        0  mpu6050.o(i.MPU6050_setClockSource)
    i.MPU6050_setFullScaleAccelRange         0x0800132c   Section        0  mpu6050.o(i.MPU6050_setFullScaleAccelRange)
    i.MPU6050_setFullScaleGyroRange          0x0800133e   Section        0  mpu6050.o(i.MPU6050_setFullScaleGyroRange)
    i.MPU6050_setI2CBypassEnabled            0x08001350   Section        0  mpu6050.o(i.MPU6050_setI2CBypassEnabled)
    i.MPU6050_setI2CMasterModeEnabled        0x0800135c   Section        0  mpu6050.o(i.MPU6050_setI2CMasterModeEnabled)
    i.MPU6050_setSleepEnabled                0x08001368   Section        0  mpu6050.o(i.MPU6050_setSleepEnabled)
    i.MY_NVIC_Init                           0x08001374   Section        0  timer.o(i.MY_NVIC_Init)
    i.MY_NVIC_PriorityGroupConfig            0x080013a8   Section        0  timer.o(i.MY_NVIC_PriorityGroupConfig)
    i.MemManage_Handler                      0x080013cc   Section        0  stm32f10x_it.o(i.MemManage_Handler)
    i.MiniBalance_PWM_Init                   0x080013d0   Section        0  timer.o(i.MiniBalance_PWM_Init)
    i.NMI_Handler                            0x08001474   Section        0  stm32f10x_it.o(i.NMI_Handler)
    i.NVIC_Init                              0x08001478   Section        0  misc.o(i.NVIC_Init)
    i.OLED_Clear                             0x080014dc   Section        0  oled.o(i.OLED_Clear)
    i.OLED_Display_Off                       0x08001508   Section        0  oled.o(i.OLED_Display_Off)
    i.OLED_Display_On                        0x08001526   Section        0  oled.o(i.OLED_Display_On)
    i.OLED_DrawPoint                         0x08001544   Section        0  oled.o(i.OLED_DrawPoint)
    i.OLED_Init                              0x08001580   Section        0  oled.o(i.OLED_Init)
    i.OLED_Refresh_Gram                      0x080016e0   Section        0  oled.o(i.OLED_Refresh_Gram)
    i.OLED_ShowChar                          0x0800172c   Section        0  oled.o(i.OLED_ShowChar)
    i.OLED_ShowNumber                        0x080017bc   Section        0  oled.o(i.OLED_ShowNumber)
    i.OLED_ShowString                        0x08001834   Section        0  oled.o(i.OLED_ShowString)
    i.OLED_WR_Byte                           0x08001874   Section        0  oled.o(i.OLED_WR_Byte)
    i.PendSV_Handler                         0x080018dc   Section        0  stm32f10x_it.o(i.PendSV_Handler)
    i.RCC_APB2PeriphClockCmd                 0x080018e0   Section        0  stm32f10x_rcc.o(i.RCC_APB2PeriphClockCmd)
    i.RCC_GetClocksFreq                      0x080018f8   Section        0  stm32f10x_rcc.o(i.RCC_GetClocksFreq)
    i.Read_DMP                               0x0800198c   Section        0  mpu6050.o(i.Read_DMP)
    i.Read_Temperature                       0x08001b3c   Section        0  mpu6050.o(i.Read_Temperature)
    i.SVC_Handler                            0x08001b9c   Section        0  stm32f10x_it.o(i.SVC_Handler)
    i.SetSysClockTo72                        0x08001ba0   Section        0  system_stm32f10x.o(i.SetSysClockTo72)
    SetSysClockTo72                          0x08001ba1   Thumb Code   160  system_stm32f10x.o(i.SetSysClockTo72)
    i.Set_Pwm                                0x08001c48   Section        0  minibalance.o(i.Set_Pwm)
    i.SysTick_Handler                        0x08001c7c   Section        0  stm32f10x_it.o(i.SysTick_Handler)
    i.SystemInit                             0x08001c80   Section        0  system_stm32f10x.o(i.SystemInit)
    i.TIM1_UP_TIM16_IRQHandler               0x08001cd0   Section        0  minibalance.o(i.TIM1_UP_TIM16_IRQHandler)
    i.TIM3_Cap_Init                          0x08001dec   Section        0  timer.o(i.TIM3_Cap_Init)
    i.TIM3_IRQHandler                        0x08001eb8   Section        0  timer.o(i.TIM3_IRQHandler)
    i.Timer1_Init                            0x08001f34   Section        0  timer.o(i.Timer1_Init)
    i.Turn_Off                               0x08001f7c   Section        0  minibalance.o(i.Turn_Off)
    i.USART1_IRQHandler                      0x08001fbc   Section        0  usart1.o(i.USART1_IRQHandler)
    i.USART3_IRQHandler                      0x08001fec   Section        0  usart3.o(i.USART3_IRQHandler)
    i.USART_ClearFlag                        0x080020f8   Section        0  stm32f10x_usart.o(i.USART_ClearFlag)
    i.USART_Cmd                              0x080020fe   Section        0  stm32f10x_usart.o(i.USART_Cmd)
    i.USART_GetITStatus                      0x08002112   Section        0  stm32f10x_usart.o(i.USART_GetITStatus)
    i.USART_ITConfig                         0x08002150   Section        0  stm32f10x_usart.o(i.USART_ITConfig)
    i.USART_Init                             0x08002180   Section        0  stm32f10x_usart.o(i.USART_Init)
    i.UsageFault_Handler                     0x08002234   Section        0  stm32f10x_it.o(i.UsageFault_Handler)
    i.Xianfu_Pwm                             0x08002238   Section        0  minibalance.o(i.Xianfu_Pwm)
    i.__0printf$1                            0x08002298   Section        0  printf1.o(i.__0printf$1)
    i.__ARM_fpclassify                       0x080022b8   Section        0  fpclassify.o(i.__ARM_fpclassify)
    i.__kernel_poly                          0x080022e0   Section        0  poly.o(i.__kernel_poly)
    i.__mathlib_dbl_underflow                0x0800238c   Section        0  dunder.o(i.__mathlib_dbl_underflow)
    i.__scatterload_copy                     0x0800239c   Section       14  handlers.o(i.__scatterload_copy)
    i.__scatterload_null                     0x080023aa   Section        2  handlers.o(i.__scatterload_null)
    i.__scatterload_zeroinit                 0x080023ac   Section       14  handlers.o(i.__scatterload_zeroinit)
    i.__set_errno                            0x080023bc   Section        0  errno.o(i.__set_errno)
    i._printf_core                           0x080023c8   Section        0  printf1.o(i._printf_core)
    _printf_core                             0x080023c9   Thumb Code   334  printf1.o(i._printf_core)
    i.accel_self_test                        0x0800251c   Section        0  inv_mpu.o(i.accel_self_test)
    accel_self_test                          0x0800251d   Thumb Code   114  inv_mpu.o(i.accel_self_test)
    i.asin                                   0x0800259c   Section        0  asin.o(i.asin)
    i.atan                                   0x08002818   Section        0  atan.o(i.atan)
    i.atan2                                  0x08002a3c   Section        0  atan2.o(i.atan2)
    i.delay_init                             0x08002bbc   Section        0  delay.o(i.delay_init)
    i.delay_ms                               0x08002be8   Section        0  delay.o(i.delay_ms)
    i.delay_us                               0x08002c10   Section        0  delay.o(i.delay_us)
    i.dmp_enable_6x_lp_quat                  0x08002c38   Section        0  inv_mpu_dmp_motion_driver.o(i.dmp_enable_6x_lp_quat)
    i.dmp_enable_feature                     0x08002c74   Section        0  inv_mpu_dmp_motion_driver.o(i.dmp_enable_feature)
    i.dmp_enable_gyro_cal                    0x08002e4c   Section        0  inv_mpu_dmp_motion_driver.o(i.dmp_enable_gyro_cal)
    i.dmp_enable_lp_quat                     0x08002e90   Section        0  inv_mpu_dmp_motion_driver.o(i.dmp_enable_lp_quat)
    i.dmp_load_motion_driver_firmware        0x08002ecc   Section        0  inv_mpu_dmp_motion_driver.o(i.dmp_load_motion_driver_firmware)
    i.dmp_read_fifo                          0x08002ee0   Section        0  inv_mpu_dmp_motion_driver.o(i.dmp_read_fifo)
    i.dmp_set_accel_bias                     0x08003024   Section        0  inv_mpu_dmp_motion_driver.o(i.dmp_set_accel_bias)
    i.dmp_set_fifo_rate                      0x08003104   Section        0  inv_mpu_dmp_motion_driver.o(i.dmp_set_fifo_rate)
    i.dmp_set_gyro_bias                      0x08003168   Section        0  inv_mpu_dmp_motion_driver.o(i.dmp_set_gyro_bias)
    i.dmp_set_orientation                    0x08003238   Section        0  inv_mpu_dmp_motion_driver.o(i.dmp_set_orientation)
    i.dmp_set_shake_reject_thresh            0x08003344   Section        0  inv_mpu_dmp_motion_driver.o(i.dmp_set_shake_reject_thresh)
    i.dmp_set_shake_reject_time              0x08003374   Section        0  inv_mpu_dmp_motion_driver.o(i.dmp_set_shake_reject_time)
    i.dmp_set_shake_reject_timeout           0x08003394   Section        0  inv_mpu_dmp_motion_driver.o(i.dmp_set_shake_reject_timeout)
    i.dmp_set_tap_axes                       0x080033b4   Section        0  inv_mpu_dmp_motion_driver.o(i.dmp_set_tap_axes)
    i.dmp_set_tap_count                      0x080033f4   Section        0  inv_mpu_dmp_motion_driver.o(i.dmp_set_tap_count)
    i.dmp_set_tap_thresh                     0x08003418   Section        0  inv_mpu_dmp_motion_driver.o(i.dmp_set_tap_thresh)
    i.dmp_set_tap_time                       0x08003540   Section        0  inv_mpu_dmp_motion_driver.o(i.dmp_set_tap_time)
    i.dmp_set_tap_time_multi                 0x08003560   Section        0  inv_mpu_dmp_motion_driver.o(i.dmp_set_tap_time_multi)
    i.fputc                                  0x08003580   Section        0  usart1.o(i.fputc)
    i.get_accel_prod_shift                   0x08003594   Section        0  inv_mpu.o(i.get_accel_prod_shift)
    get_accel_prod_shift                     0x08003595   Thumb Code   158  inv_mpu.o(i.get_accel_prod_shift)
    i.get_ms                                 0x08003640   Section        0  delay.o(i.get_ms)
    i.get_st_biases                          0x08003644   Section        0  inv_mpu.o(i.get_st_biases)
    get_st_biases                            0x08003645   Thumb Code   784  inv_mpu.o(i.get_st_biases)
    i.gyro_self_test                         0x08003958   Section        0  inv_mpu.o(i.gyro_self_test)
    gyro_self_test                           0x08003959   Thumb Code   190  inv_mpu.o(i.gyro_self_test)
    i.i2cRead                                0x08003a2c   Section        0  ioi2c.o(i.i2cRead)
    i.i2cWrite                               0x08003a9c   Section        0  ioi2c.o(i.i2cWrite)
    i.inv_row_2_scale                        0x08003af0   Section        0  mpu6050.o(i.inv_row_2_scale)
    inv_row_2_scale                          0x08003af1   Thumb Code    72  mpu6050.o(i.inv_row_2_scale)
    i.key                                    0x08003b38   Section        0  key.o(i.key)
    i.led_init                               0x08003bc0   Section        0  led.o(i.led_init)
    i.main                                   0x08003be8   Section        0  main.o(i.main)
    i.mpu_configure_fifo                     0x08003c74   Section        0  inv_mpu.o(i.mpu_configure_fifo)
    i.mpu_get_accel_fsr                      0x08003cc8   Section        0  inv_mpu.o(i.mpu_get_accel_fsr)
    i.mpu_get_accel_sens                     0x08003d04   Section        0  inv_mpu.o(i.mpu_get_accel_sens)
    i.mpu_get_gyro_fsr                       0x08003d48   Section        0  inv_mpu.o(i.mpu_get_gyro_fsr)
    i.mpu_get_gyro_sens                      0x08003d7c   Section        0  inv_mpu.o(i.mpu_get_gyro_sens)
    i.mpu_get_lpf                            0x08003dbc   Section        0  inv_mpu.o(i.mpu_get_lpf)
    i.mpu_get_sample_rate                    0x08003df4   Section        0  inv_mpu.o(i.mpu_get_sample_rate)
    i.mpu_init                               0x08003e10   Section        0  inv_mpu.o(i.mpu_init)
    i.mpu_load_firmware                      0x08003f98   Section        0  inv_mpu.o(i.mpu_load_firmware)
    i.mpu_lp_accel_mode                      0x08004038   Section        0  inv_mpu.o(i.mpu_lp_accel_mode)
    i.mpu_read_fifo_stream                   0x080040f0   Section        0  inv_mpu.o(i.mpu_read_fifo_stream)
    i.mpu_read_mem                           0x08004180   Section        0  inv_mpu.o(i.mpu_read_mem)
    i.mpu_reset_fifo                         0x080041d4   Section        0  inv_mpu.o(i.mpu_reset_fifo)
    i.mpu_run_self_test                      0x08004324   Section        0  inv_mpu.o(i.mpu_run_self_test)
    i.mpu_set_accel_fsr                      0x08004414   Section        0  inv_mpu.o(i.mpu_set_accel_fsr)
    i.mpu_set_bypass                         0x0800447c   Section        0  inv_mpu.o(i.mpu_set_bypass)
    i.mpu_set_dmp_state                      0x08004558   Section        0  inv_mpu.o(i.mpu_set_dmp_state)
    i.mpu_set_gyro_fsr                       0x080045d0   Section        0  inv_mpu.o(i.mpu_set_gyro_fsr)
    i.mpu_set_int_latched                    0x0800463c   Section        0  inv_mpu.o(i.mpu_set_int_latched)
    i.mpu_set_lpf                            0x080046a0   Section        0  inv_mpu.o(i.mpu_set_lpf)
    i.mpu_set_sample_rate                    0x0800470c   Section        0  inv_mpu.o(i.mpu_set_sample_rate)
    i.mpu_set_sensors                        0x0800478c   Section        0  inv_mpu.o(i.mpu_set_sensors)
    i.mpu_write_mem                          0x08004844   Section        0  inv_mpu.o(i.mpu_write_mem)
    i.myabs                                  0x08004898   Section        0  timer.o(i.myabs)
    i.oled_pow                               0x080048a0   Section        0  oled.o(i.oled_pow)
    i.oled_show                              0x080048b4   Section        0  show.o(i.oled_show)
    i.run_self_test                          0x08004940   Section        0  mpu6050.o(i.run_self_test)
    run_self_test                            0x08004941   Thumb Code   128  mpu6050.o(i.run_self_test)
    i.set_int_enable                         0x080049e4   Section        0  inv_mpu.o(i.set_int_enable)
    set_int_enable                           0x080049e5   Thumb Code    84  inv_mpu.o(i.set_int_enable)
    i.sqrt                                   0x08004a3c   Section        0  sqrt.o(i.sqrt)
    i.uart3_init                             0x08004a8c   Section        0  usart3.o(i.uart3_init)
    i.usart1_init                            0x08004b50   Section        0  usart1.o(i.usart1_init)
    i.usart1_receive                         0x08004bfc   Section        0  usart1.o(i.usart1_receive)
    .constdata                               0x08004c14   Section       12  inv_mpu.o(.constdata)
    .constdata                               0x08004c20   Section       27  inv_mpu.o(.constdata)
    .constdata                               0x08004c3c   Section       40  inv_mpu.o(.constdata)
    .constdata                               0x08004c64   Section       78  inv_mpu.o(.constdata)
    .constdata                               0x08004cb2   Section     3062  inv_mpu_dmp_motion_driver.o(.constdata)
    dmp_memory                               0x08004cb2   Data        3062  inv_mpu_dmp_motion_driver.o(.constdata)
    .constdata                               0x080058a8   Section     2660  oled.o(.constdata)
    .constdata                               0x08006310   Section       80  asin.o(.constdata)
    pS                                       0x08006310   Data          48  asin.o(.constdata)
    qS                                       0x08006340   Data          32  asin.o(.constdata)
    .constdata                               0x08006360   Section      152  atan.o(.constdata)
    atanhi                                   0x08006360   Data          32  atan.o(.constdata)
    atanlo                                   0x08006380   Data          32  atan.o(.constdata)
    aTodd                                    0x080063a0   Data          40  atan.o(.constdata)
    aTeven                                   0x080063c8   Data          48  atan.o(.constdata)
    .constdata                               0x080063f8   Section        8  qnan.o(.constdata)
    .data                                    0x20000000   Section        8  main.o(.data)
    .data                                    0x20000008   Section        1  main.o(.data)
    .data                                    0x20000009   Section        1  main.o(.data)
    .data                                    0x2000000a   Section        1  main.o(.data)
    .data                                    0x2000000b   Section        1  main.o(.data)
    .data                                    0x2000000c   Section        4  main.o(.data)
    .data                                    0x20000010   Section        4  main.o(.data)
    .data                                    0x20000014   Section        4  main.o(.data)
    .data                                    0x20000018   Section        4  main.o(.data)
    .data                                    0x2000001c   Section       20  stm32f10x_rcc.o(.data)
    ADCPrescTable                            0x2000001c   Data           4  stm32f10x_rcc.o(.data)
    APBAHBPrescTable                         0x20000020   Data          16  stm32f10x_rcc.o(.data)
    .data                                    0x20000030   Section        4  led.o(.data)
    temp                                     0x20000030   Data           4  led.o(.data)
    .data                                    0x20000034   Section        4  delay.o(.data)
    fac_us                                   0x20000034   Data           1  delay.o(.data)
    fac_ms                                   0x20000036   Data           2  delay.o(.data)
    .data                                    0x20000038   Section       44  inv_mpu.o(.data)
    st                                       0x20000038   Data          44  inv_mpu.o(.data)
    .data                                    0x20000064   Section        4  timer.o(.data)
    .data                                    0x20000068   Section       53  mpu6050.o(.data)
    gyro_orientation                         0x20000094   Data           9  mpu6050.o(.data)
    .data                                    0x200000a0   Section       20  usart3.o(.data)
    uart_receive                             0x200000a8   Data           4  usart3.o(.data)
    .data                                    0x200000b4   Section        6  key.o(.data)
    flag_key                                 0x200000b4   Data           1  key.o(.data)
    count_key                                0x200000b5   Data           1  key.o(.data)
    double_key                               0x200000b6   Data           1  key.o(.data)
    count_single                             0x200000b8   Data           2  key.o(.data)
    .data                                    0x200000bc   Section        8  show.o(.data)
    Count                                    0x200000c0   Data           4  show.o(.data)
    .data                                    0x200000c4   Section        4  stdout.o(.data)
    .data                                    0x200000c8   Section        4  errno.o(.data)
    _errno                                   0x200000c8   Data           4  errno.o(.data)
    .bss                                     0x200000cc   Section       16  inv_mpu_dmp_motion_driver.o(.bss)
    dmp                                      0x200000cc   Data          16  inv_mpu_dmp_motion_driver.o(.bss)
    .bss                                     0x200000dc   Section     1024  oled.o(.bss)
    .bss                                     0x200004dc   Section       42  datascope_dp.o(.bss)
    STACK                                    0x20000508   Section     1024  startup_stm32f10x_hd_vl.o(STACK)

    Global Symbols

    Symbol Name                              Value     Ov Type        Size  Object(Section)

    BuildAttributes$$THM_ISAv4$P$D$K$B$S$PE$A:L22UL41UL21$X:L11$S22US41US21$IEEE1$IW$USESV6$~STKCKD$USESV7$~SHL$OTIME$ROPI$IEEEX$EBA8$MICROLIB$REQ8$PRES8$EABIv2 0x00000000   Number         0  anon$$obj.o ABSOLUTE
    __ARM_use_no_argv                        0x00000000   Number         0  main.o ABSOLUTE
    _printf_a                                0x00000000   Number         0  stubs.o ABSOLUTE
    _printf_c                                0x00000000   Number         0  stubs.o ABSOLUTE
    _printf_charcount                        0x00000000   Number         0  stubs.o ABSOLUTE
    _printf_d                                0x00000000   Number         0  stubs.o ABSOLUTE
    _printf_e                                0x00000000   Number         0  stubs.o ABSOLUTE
    _printf_f                                0x00000000   Number         0  stubs.o ABSOLUTE
    _printf_flags                            0x00000000   Number         0  stubs.o ABSOLUTE
    _printf_fp_dec                           0x00000000   Number         0  stubs.o ABSOLUTE
    _printf_fp_hex                           0x00000000   Number         0  stubs.o ABSOLUTE
    _printf_g                                0x00000000   Number         0  stubs.o ABSOLUTE
    _printf_i                                0x00000000   Number         0  stubs.o ABSOLUTE
    _printf_int_dec                          0x00000000   Number         0  stubs.o ABSOLUTE
    _printf_l                                0x00000000   Number         0  stubs.o ABSOLUTE
    _printf_lc                               0x00000000   Number         0  stubs.o ABSOLUTE
    _printf_ll                               0x00000000   Number         0  stubs.o ABSOLUTE
    _printf_lld                              0x00000000   Number         0  stubs.o ABSOLUTE
    _printf_lli                              0x00000000   Number         0  stubs.o ABSOLUTE
    _printf_llo                              0x00000000   Number         0  stubs.o ABSOLUTE
    _printf_llu                              0x00000000   Number         0  stubs.o ABSOLUTE
    _printf_llx                              0x00000000   Number         0  stubs.o ABSOLUTE
    _printf_longlong_dec                     0x00000000   Number         0  stubs.o ABSOLUTE
    _printf_longlong_hex                     0x00000000   Number         0  stubs.o ABSOLUTE
    _printf_longlong_oct                     0x00000000   Number         0  stubs.o ABSOLUTE
    _printf_ls                               0x00000000   Number         0  stubs.o ABSOLUTE
    _printf_mbtowc                           0x00000000   Number         0  stubs.o ABSOLUTE
    _printf_n                                0x00000000   Number         0  stubs.o ABSOLUTE
    _printf_o                                0x00000000   Number         0  stubs.o ABSOLUTE
    _printf_p                                0x00000000   Number         0  stubs.o ABSOLUTE
    _printf_percent                          0x00000000   Number         0  stubs.o ABSOLUTE
    _printf_pre_padding                      0x00000000   Number         0  stubs.o ABSOLUTE
    _printf_return_value                     0x00000000   Number         0  stubs.o ABSOLUTE
    _printf_s                                0x00000000   Number         0  stubs.o ABSOLUTE
    _printf_sizespec                         0x00000000   Number         0  stubs.o ABSOLUTE
    _printf_str                              0x00000000   Number         0  stubs.o ABSOLUTE
    _printf_truncate_signed                  0x00000000   Number         0  stubs.o ABSOLUTE
    _printf_truncate_unsigned                0x00000000   Number         0  stubs.o ABSOLUTE
    _printf_u                                0x00000000   Number         0  stubs.o ABSOLUTE
    _printf_wc                               0x00000000   Number         0  stubs.o ABSOLUTE
    _printf_wctomb                           0x00000000   Number         0  stubs.o ABSOLUTE
    _printf_widthprec                        0x00000000   Number         0  stubs.o ABSOLUTE
    _printf_x                                0x00000000   Number         0  stubs.o ABSOLUTE
    __cpp_initialize__aeabi_                  - Undefined Weak Reference
    __cxa_finalize                            - Undefined Weak Reference
    __decompress                              - Undefined Weak Reference
    _clock_init                               - Undefined Weak Reference
    _microlib_exit                            - Undefined Weak Reference
    __Vectors_Size                           0x00000134   Number         0  startup_stm32f10x_hd_vl.o ABSOLUTE
    __Vectors                                0x08000000   Data           4  startup_stm32f10x_hd_vl.o(RESET)
    __Vectors_End                            0x08000134   Data           0  startup_stm32f10x_hd_vl.o(RESET)
    __main                                   0x08000135   Thumb Code     0  entry.o(.ARM.Collect$$$$00000000)
    _main_stk                                0x08000135   Thumb Code     0  entry2.o(.ARM.Collect$$$$00000001)
    _main_scatterload                        0x08000139   Thumb Code     0  entry5.o(.ARM.Collect$$$$00000004)
    __main_after_scatterload                 0x0800013d   Thumb Code     0  entry5.o(.ARM.Collect$$$$00000004)
    _main_clock                              0x0800013d   Thumb Code     0  entry7b.o(.ARM.Collect$$$$00000008)
    _main_cpp_init                           0x0800013d   Thumb Code     0  entry8b.o(.ARM.Collect$$$$0000000A)
    _main_init                               0x0800013d   Thumb Code     0  entry9a.o(.ARM.Collect$$$$0000000B)
    __rt_final_cpp                           0x08000145   Thumb Code     0  entry10a.o(.ARM.Collect$$$$0000000D)
    __rt_final_exit                          0x08000145   Thumb Code     0  entry11a.o(.ARM.Collect$$$$0000000F)
    Reset_Handler                            0x08000149   Thumb Code     8  startup_stm32f10x_hd_vl.o(.text)
    ADC1_IRQHandler                          0x08000163   Thumb Code     0  startup_stm32f10x_hd_vl.o(.text)
    CEC_IRQHandler                           0x08000163   Thumb Code     0  startup_stm32f10x_hd_vl.o(.text)
    DMA1_Channel1_IRQHandler                 0x08000163   Thumb Code     0  startup_stm32f10x_hd_vl.o(.text)
    DMA1_Channel2_IRQHandler                 0x08000163   Thumb Code     0  startup_stm32f10x_hd_vl.o(.text)
    DMA1_Channel3_IRQHandler                 0x08000163   Thumb Code     0  startup_stm32f10x_hd_vl.o(.text)
    DMA1_Channel4_IRQHandler                 0x08000163   Thumb Code     0  startup_stm32f10x_hd_vl.o(.text)
    DMA1_Channel5_IRQHandler                 0x08000163   Thumb Code     0  startup_stm32f10x_hd_vl.o(.text)
    DMA1_Channel6_IRQHandler                 0x08000163   Thumb Code     0  startup_stm32f10x_hd_vl.o(.text)
    DMA1_Channel7_IRQHandler                 0x08000163   Thumb Code     0  startup_stm32f10x_hd_vl.o(.text)
    DMA2_Channel1_IRQHandler                 0x08000163   Thumb Code     0  startup_stm32f10x_hd_vl.o(.text)
    DMA2_Channel2_IRQHandler                 0x08000163   Thumb Code     0  startup_stm32f10x_hd_vl.o(.text)
    DMA2_Channel3_IRQHandler                 0x08000163   Thumb Code     0  startup_stm32f10x_hd_vl.o(.text)
    DMA2_Channel4_5_IRQHandler               0x08000163   Thumb Code     0  startup_stm32f10x_hd_vl.o(.text)
    DMA2_Channel5_IRQHandler                 0x08000163   Thumb Code     0  startup_stm32f10x_hd_vl.o(.text)
    EXTI0_IRQHandler                         0x08000163   Thumb Code     0  startup_stm32f10x_hd_vl.o(.text)
    EXTI15_10_IRQHandler                     0x08000163   Thumb Code     0  startup_stm32f10x_hd_vl.o(.text)
    EXTI1_IRQHandler                         0x08000163   Thumb Code     0  startup_stm32f10x_hd_vl.o(.text)
    EXTI2_IRQHandler                         0x08000163   Thumb Code     0  startup_stm32f10x_hd_vl.o(.text)
    EXTI3_IRQHandler                         0x08000163   Thumb Code     0  startup_stm32f10x_hd_vl.o(.text)
    EXTI4_IRQHandler                         0x08000163   Thumb Code     0  startup_stm32f10x_hd_vl.o(.text)
    EXTI9_5_IRQHandler                       0x08000163   Thumb Code     0  startup_stm32f10x_hd_vl.o(.text)
    FLASH_IRQHandler                         0x08000163   Thumb Code     0  startup_stm32f10x_hd_vl.o(.text)
    I2C1_ER_IRQHandler                       0x08000163   Thumb Code     0  startup_stm32f10x_hd_vl.o(.text)
    I2C1_EV_IRQHandler                       0x08000163   Thumb Code     0  startup_stm32f10x_hd_vl.o(.text)
    I2C2_ER_IRQHandler                       0x08000163   Thumb Code     0  startup_stm32f10x_hd_vl.o(.text)
    I2C2_EV_IRQHandler                       0x08000163   Thumb Code     0  startup_stm32f10x_hd_vl.o(.text)
    PVD_IRQHandler                           0x08000163   Thumb Code     0  startup_stm32f10x_hd_vl.o(.text)
    RCC_IRQHandler                           0x08000163   Thumb Code     0  startup_stm32f10x_hd_vl.o(.text)
    RTCAlarm_IRQHandler                      0x08000163   Thumb Code     0  startup_stm32f10x_hd_vl.o(.text)
    RTC_IRQHandler                           0x08000163   Thumb Code     0  startup_stm32f10x_hd_vl.o(.text)
    SPI1_IRQHandler                          0x08000163   Thumb Code     0  startup_stm32f10x_hd_vl.o(.text)
    SPI2_IRQHandler                          0x08000163   Thumb Code     0  startup_stm32f10x_hd_vl.o(.text)
    SPI3_IRQHandler                          0x08000163   Thumb Code     0  startup_stm32f10x_hd_vl.o(.text)
    TAMPER_IRQHandler                        0x08000163   Thumb Code     0  startup_stm32f10x_hd_vl.o(.text)
    TIM12_IRQHandler                         0x08000163   Thumb Code     0  startup_stm32f10x_hd_vl.o(.text)
    TIM13_IRQHandler                         0x08000163   Thumb Code     0  startup_stm32f10x_hd_vl.o(.text)
    TIM14_IRQHandler                         0x08000163   Thumb Code     0  startup_stm32f10x_hd_vl.o(.text)
    TIM1_BRK_TIM15_IRQHandler                0x08000163   Thumb Code     0  startup_stm32f10x_hd_vl.o(.text)
    TIM1_CC_IRQHandler                       0x08000163   Thumb Code     0  startup_stm32f10x_hd_vl.o(.text)
    TIM1_TRG_COM_TIM17_IRQHandler            0x08000163   Thumb Code     0  startup_stm32f10x_hd_vl.o(.text)
    TIM2_IRQHandler                          0x08000163   Thumb Code     0  startup_stm32f10x_hd_vl.o(.text)
    TIM4_IRQHandler                          0x08000163   Thumb Code     0  startup_stm32f10x_hd_vl.o(.text)
    TIM5_IRQHandler                          0x08000163   Thumb Code     0  startup_stm32f10x_hd_vl.o(.text)
    TIM6_DAC_IRQHandler                      0x08000163   Thumb Code     0  startup_stm32f10x_hd_vl.o(.text)
    TIM7_IRQHandler                          0x08000163   Thumb Code     0  startup_stm32f10x_hd_vl.o(.text)
    UART4_IRQHandler                         0x08000163   Thumb Code     0  startup_stm32f10x_hd_vl.o(.text)
    UART5_IRQHandler                         0x08000163   Thumb Code     0  startup_stm32f10x_hd_vl.o(.text)
    USART2_IRQHandler                        0x08000163   Thumb Code     0  startup_stm32f10x_hd_vl.o(.text)
    WWDG_IRQHandler                          0x08000163   Thumb Code     0  startup_stm32f10x_hd_vl.o(.text)
    __aeabi_ldivmod                          0x0800016d   Thumb Code    90  ldiv.o(.text)
    __aeabi_memset                           0x080001c7   Thumb Code    14  memseta.o(.text)
    __aeabi_memset4                          0x080001c7   Thumb Code     0  memseta.o(.text)
    __aeabi_memset8                          0x080001c7   Thumb Code     0  memseta.o(.text)
    __aeabi_memclr                           0x080001d5   Thumb Code     4  memseta.o(.text)
    __aeabi_memclr4                          0x080001d5   Thumb Code     0  memseta.o(.text)
    __aeabi_memclr8                          0x080001d5   Thumb Code     0  memseta.o(.text)
    _memset$wrapper                          0x080001d9   Thumb Code    18  memseta.o(.text)
    memcmp                                   0x080001eb   Thumb Code    26  memcmp.o(.text)
    __aeabi_fadd                             0x08000205   Thumb Code   164  fadd.o(.text)
    __aeabi_fsub                             0x080002a9   Thumb Code     6  fadd.o(.text)
    __aeabi_frsub                            0x080002af   Thumb Code     6  fadd.o(.text)
    __aeabi_fmul                             0x080002b5   Thumb Code   108  fmul.o(.text)
    __aeabi_fdiv                             0x08000321   Thumb Code   128  fdiv.o(.text)
    __ARM_scalbnf                            0x080003a1   Thumb Code    24  fscalb.o(.text)
    scalbnf                                  0x080003a1   Thumb Code     0  fscalb.o(.text)
    __aeabi_dadd                             0x080003b9   Thumb Code   322  dadd.o(.text)
    __aeabi_dsub                             0x080004fb   Thumb Code     6  dadd.o(.text)
    __aeabi_drsub                            0x08000501   Thumb Code     6  dadd.o(.text)
    __aeabi_dmul                             0x08000507   Thumb Code   228  dmul.o(.text)
    __aeabi_i2f                              0x080005eb   Thumb Code    18  fflti.o(.text)
    __aeabi_ui2f                             0x080005fd   Thumb Code    10  ffltui.o(.text)
    __aeabi_f2iz                             0x08000607   Thumb Code    50  ffixi.o(.text)
    __aeabi_f2uiz                            0x08000639   Thumb Code    40  ffixui.o(.text)
    __aeabi_f2d                              0x08000661   Thumb Code    38  f2d.o(.text)
    __aeabi_d2f                              0x08000687   Thumb Code    56  d2f.o(.text)
    __aeabi_uidiv                            0x080006bf   Thumb Code     0  uidiv.o(.text)
    __aeabi_uidivmod                         0x080006bf   Thumb Code    44  uidiv.o(.text)
    __aeabi_uldivmod                         0x080006eb   Thumb Code    98  uldiv.o(.text)
    __aeabi_llsl                             0x0800074d   Thumb Code    30  llshl.o(.text)
    _ll_shift_l                              0x0800074d   Thumb Code     0  llshl.o(.text)
    __aeabi_lasr                             0x0800076b   Thumb Code    36  llsshr.o(.text)
    _ll_sshift_r                             0x0800076b   Thumb Code     0  llsshr.o(.text)
    __I$use$fp                               0x0800078f   Thumb Code     0  iusefp.o(.text)
    _float_round                             0x0800078f   Thumb Code    18  fepilogue.o(.text)
    _float_epilogue                          0x080007a1   Thumb Code    90  fepilogue.o(.text)
    _double_round                            0x080007fb   Thumb Code    26  depilogue.o(.text)
    _double_epilogue                         0x08000815   Thumb Code   164  depilogue.o(.text)
    __aeabi_ddiv                             0x080008b9   Thumb Code   222  ddiv.o(.text)
    __ARM_scalbn                             0x08000997   Thumb Code    46  dscalb.o(.text)
    scalbn                                   0x08000997   Thumb Code     0  dscalb.o(.text)
    __scatterload                            0x080009c5   Thumb Code    28  init.o(.text)
    __scatterload_rt2                        0x080009c5   Thumb Code     0  init.o(.text)
    __aeabi_llsr                             0x080009e9   Thumb Code    32  llushr.o(.text)
    _ll_ushift_r                             0x080009e9   Thumb Code     0  llushr.o(.text)
    _dsqrt                                   0x08000a09   Thumb Code   162  dsqrt.o(.text)
    BusFault_Handler                         0x08000aab   Thumb Code     2  stm32f10x_it.o(i.BusFault_Handler)
    DMP_Init                                 0x08000aad   Thumb Code   210  mpu6050.o(i.DMP_Init)
    DataScope                                0x08000ccd   Thumb Code   156  show.o(i.DataScope)
    DataScope_Data_Generate                  0x08000d7d   Thumb Code   124  datascope_dp.o(i.DataScope_Data_Generate)
    DataScope_Get_Channel_Data               0x08000dfd   Thumb Code    78  datascope_dp.o(i.DataScope_Get_Channel_Data)
    DebugMon_Handler                         0x08000e51   Thumb Code     2  stm32f10x_it.o(i.DebugMon_Handler)
    Float2Byte                               0x08000e53   Thumb Code    20  datascope_dp.o(i.Float2Byte)
    GPIO_Init                                0x08000e69   Thumb Code   158  stm32f10x_gpio.o(i.GPIO_Init)
    GPIO_ResetBits                           0x08000f07   Thumb Code     4  stm32f10x_gpio.o(i.GPIO_ResetBits)
    GPIO_SetBits                             0x08000f0b   Thumb Code     4  stm32f10x_gpio.o(i.GPIO_SetBits)
    HardFault_Handler                        0x08000f0f   Thumb Code     2  stm32f10x_it.o(i.HardFault_Handler)
    I2C_ReadOneByte                          0x08000f11   Thumb Code    62  ioi2c.o(i.I2C_ReadOneByte)
    IIC_Ack                                  0x08000f51   Thumb Code    46  ioi2c.o(i.IIC_Ack)
    IIC_Init                                 0x08000f89   Thumb Code    34  ioi2c.o(i.IIC_Init)
    IIC_NAck                                 0x08000fb5   Thumb Code    48  ioi2c.o(i.IIC_NAck)
    IIC_Read_Byte                            0x08000fed   Thumb Code   100  ioi2c.o(i.IIC_Read_Byte)
    IIC_Send_Byte                            0x08001059   Thumb Code    86  ioi2c.o(i.IIC_Send_Byte)
    IIC_Start                                0x080010b9   Thumb Code    72  ioi2c.o(i.IIC_Start)
    IIC_Stop                                 0x08001109   Thumb Code    48  ioi2c.o(i.IIC_Stop)
    IIC_Wait_Ack                             0x08001141   Thumb Code    80  ioi2c.o(i.IIC_Wait_Ack)
    IICreadByte                              0x08001199   Thumb Code    14  ioi2c.o(i.IICreadByte)
    IICwriteBit                              0x080011a7   Thumb Code    50  ioi2c.o(i.IICwriteBit)
    IICwriteBits                             0x080011d9   Thumb Code    84  ioi2c.o(i.IICwriteBits)
    IICwriteByte                             0x0800122d   Thumb Code    12  ioi2c.o(i.IICwriteByte)
    IICwriteBytes                            0x08001239   Thumb Code    68  ioi2c.o(i.IICwriteBytes)
    JTAG_Set                                 0x0800127d   Thumb Code    30  oled.o(i.JTAG_Set)
    KEY_Init                                 0x080012a5   Thumb Code    30  key.o(i.KEY_Init)
    Led_Flash                                0x080012cd   Thumb Code    26  led.o(i.Led_Flash)
    MPU6050_initialize                       0x080012f1   Thumb Code    42  mpu6050.o(i.MPU6050_initialize)
    MPU6050_setClockSource                   0x0800131b   Thumb Code    18  mpu6050.o(i.MPU6050_setClockSource)
    MPU6050_setFullScaleAccelRange           0x0800132d   Thumb Code    18  mpu6050.o(i.MPU6050_setFullScaleAccelRange)
    MPU6050_setFullScaleGyroRange            0x0800133f   Thumb Code    18  mpu6050.o(i.MPU6050_setFullScaleGyroRange)
    MPU6050_setI2CBypassEnabled              0x08001351   Thumb Code    12  mpu6050.o(i.MPU6050_setI2CBypassEnabled)
    MPU6050_setI2CMasterModeEnabled          0x0800135d   Thumb Code    12  mpu6050.o(i.MPU6050_setI2CMasterModeEnabled)
    MPU6050_setSleepEnabled                  0x08001369   Thumb Code    12  mpu6050.o(i.MPU6050_setSleepEnabled)
    MY_NVIC_Init                             0x08001375   Thumb Code    50  timer.o(i.MY_NVIC_Init)
    MY_NVIC_PriorityGroupConfig              0x080013a9   Thumb Code    26  timer.o(i.MY_NVIC_PriorityGroupConfig)
    MemManage_Handler                        0x080013cd   Thumb Code     2  stm32f10x_it.o(i.MemManage_Handler)
    MiniBalance_PWM_Init                     0x080013d1   Thumb Code   156  timer.o(i.MiniBalance_PWM_Init)
    NMI_Handler                              0x08001475   Thumb Code     2  stm32f10x_it.o(i.NMI_Handler)
    NVIC_Init                                0x08001479   Thumb Code    90  misc.o(i.NVIC_Init)
    OLED_Clear                               0x080014dd   Thumb Code    40  oled.o(i.OLED_Clear)
    OLED_Display_Off                         0x08001509   Thumb Code    30  oled.o(i.OLED_Display_Off)
    OLED_Display_On                          0x08001527   Thumb Code    30  oled.o(i.OLED_Display_On)
    OLED_DrawPoint                           0x08001545   Thumb Code    54  oled.o(i.OLED_DrawPoint)
    OLED_Init                                0x08001581   Thumb Code   324  oled.o(i.OLED_Init)
    OLED_Refresh_Gram                        0x080016e1   Thumb Code    70  oled.o(i.OLED_Refresh_Gram)
    OLED_ShowChar                            0x0800172d   Thumb Code   134  oled.o(i.OLED_ShowChar)
    OLED_ShowNumber                          0x080017bd   Thumb Code   120  oled.o(i.OLED_ShowNumber)
    OLED_ShowString                          0x08001835   Thumb Code    62  oled.o(i.OLED_ShowString)
    OLED_WR_Byte                             0x08001875   Thumb Code    90  oled.o(i.OLED_WR_Byte)
    PendSV_Handler                           0x080018dd   Thumb Code     2  stm32f10x_it.o(i.PendSV_Handler)
    RCC_APB2PeriphClockCmd                   0x080018e1   Thumb Code    18  stm32f10x_rcc.o(i.RCC_APB2PeriphClockCmd)
    RCC_GetClocksFreq                        0x080018f9   Thumb Code   130  stm32f10x_rcc.o(i.RCC_GetClocksFreq)
    Read_DMP                                 0x0800198d   Thumb Code   424  mpu6050.o(i.Read_DMP)
    Read_Temperature                         0x08001b3d   Thumb Code    80  mpu6050.o(i.Read_Temperature)
    SVC_Handler                              0x08001b9d   Thumb Code     2  stm32f10x_it.o(i.SVC_Handler)
    Set_Pwm                                  0x08001c49   Thumb Code    46  minibalance.o(i.Set_Pwm)
    SysTick_Handler                          0x08001c7d   Thumb Code     2  stm32f10x_it.o(i.SysTick_Handler)
    SystemInit                               0x08001c81   Thumb Code    64  system_stm32f10x.o(i.SystemInit)
    TIM1_UP_TIM16_IRQHandler                 0x08001cd1   Thumb Code   244  minibalance.o(i.TIM1_UP_TIM16_IRQHandler)
    TIM3_Cap_Init                            0x08001ded   Thumb Code   178  timer.o(i.TIM3_Cap_Init)
    TIM3_IRQHandler                          0x08001eb9   Thumb Code   110  timer.o(i.TIM3_IRQHandler)
    Timer1_Init                              0x08001f35   Thumb Code    62  timer.o(i.Timer1_Init)
    Turn_Off                                 0x08001f7d   Thumb Code    44  minibalance.o(i.Turn_Off)
    USART1_IRQHandler                        0x08001fbd   Thumb Code    42  usart1.o(i.USART1_IRQHandler)
    USART3_IRQHandler                        0x08001fed   Thumb Code   240  usart3.o(i.USART3_IRQHandler)
    USART_ClearFlag                          0x080020f9   Thumb Code     6  stm32f10x_usart.o(i.USART_ClearFlag)
    USART_Cmd                                0x080020ff   Thumb Code    20  stm32f10x_usart.o(i.USART_Cmd)
    USART_GetITStatus                        0x08002113   Thumb Code    62  stm32f10x_usart.o(i.USART_GetITStatus)
    USART_ITConfig                           0x08002151   Thumb Code    48  stm32f10x_usart.o(i.USART_ITConfig)
    USART_Init                               0x08002181   Thumb Code   176  stm32f10x_usart.o(i.USART_Init)
    UsageFault_Handler                       0x08002235   Thumb Code     2  stm32f10x_it.o(i.UsageFault_Handler)
    Xianfu_Pwm                               0x08002239   Thumb Code    80  minibalance.o(i.Xianfu_Pwm)
    __0printf$1                              0x08002299   Thumb Code    22  printf1.o(i.__0printf$1)
    __1printf$1                              0x08002299   Thumb Code     0  printf1.o(i.__0printf$1)
    __2printf                                0x08002299   Thumb Code     0  printf1.o(i.__0printf$1)
    __ARM_fpclassify                         0x080022b9   Thumb Code    40  fpclassify.o(i.__ARM_fpclassify)
    __kernel_poly                            0x080022e1   Thumb Code   170  poly.o(i.__kernel_poly)
    __mathlib_dbl_underflow                  0x0800238d   Thumb Code    10  dunder.o(i.__mathlib_dbl_underflow)
    __scatterload_copy                       0x0800239d   Thumb Code    14  handlers.o(i.__scatterload_copy)
    __scatterload_null                       0x080023ab   Thumb Code     2  handlers.o(i.__scatterload_null)
    __scatterload_zeroinit                   0x080023ad   Thumb Code    14  handlers.o(i.__scatterload_zeroinit)
    __set_errno                              0x080023bd   Thumb Code     6  errno.o(i.__set_errno)
    asin                                     0x0800259d   Thumb Code   584  asin.o(i.asin)
    atan                                     0x08002819   Thumb Code   478  atan.o(i.atan)
    atan2                                    0x08002a3d   Thumb Code   346  atan2.o(i.atan2)
    delay_init                               0x08002bbd   Thumb Code    38  delay.o(i.delay_init)
    delay_ms                                 0x08002be9   Thumb Code    36  delay.o(i.delay_ms)
    delay_us                                 0x08002c11   Thumb Code    36  delay.o(i.delay_us)
    dmp_enable_6x_lp_quat                    0x08002c39   Thumb Code    58  inv_mpu_dmp_motion_driver.o(i.dmp_enable_6x_lp_quat)
    dmp_enable_feature                       0x08002c75   Thumb Code   464  inv_mpu_dmp_motion_driver.o(i.dmp_enable_feature)
    dmp_enable_gyro_cal                      0x08002e4d   Thumb Code    44  inv_mpu_dmp_motion_driver.o(i.dmp_enable_gyro_cal)
    dmp_enable_lp_quat                       0x08002e91   Thumb Code    58  inv_mpu_dmp_motion_driver.o(i.dmp_enable_lp_quat)
    dmp_load_motion_driver_firmware          0x08002ecd   Thumb Code    16  inv_mpu_dmp_motion_driver.o(i.dmp_load_motion_driver_firmware)
    dmp_read_fifo                            0x08002ee1   Thumb Code   320  inv_mpu_dmp_motion_driver.o(i.dmp_read_fifo)
    dmp_set_accel_bias                       0x08003025   Thumb Code   218  inv_mpu_dmp_motion_driver.o(i.dmp_set_accel_bias)
    dmp_set_fifo_rate                        0x08003105   Thumb Code    82  inv_mpu_dmp_motion_driver.o(i.dmp_set_fifo_rate)
    dmp_set_gyro_bias                        0x08003169   Thumb Code   200  inv_mpu_dmp_motion_driver.o(i.dmp_set_gyro_bias)
    dmp_set_orientation                      0x08003239   Thumb Code   246  inv_mpu_dmp_motion_driver.o(i.dmp_set_orientation)
    dmp_set_shake_reject_thresh              0x08003345   Thumb Code    48  inv_mpu_dmp_motion_driver.o(i.dmp_set_shake_reject_thresh)
    dmp_set_shake_reject_time                0x08003375   Thumb Code    32  inv_mpu_dmp_motion_driver.o(i.dmp_set_shake_reject_time)
    dmp_set_shake_reject_timeout             0x08003395   Thumb Code    32  inv_mpu_dmp_motion_driver.o(i.dmp_set_shake_reject_timeout)
    dmp_set_tap_axes                         0x080033b5   Thumb Code    64  inv_mpu_dmp_motion_driver.o(i.dmp_set_tap_axes)
    dmp_set_tap_count                        0x080033f5   Thumb Code    34  inv_mpu_dmp_motion_driver.o(i.dmp_set_tap_count)
    dmp_set_tap_thresh                       0x08003419   Thumb Code   274  inv_mpu_dmp_motion_driver.o(i.dmp_set_tap_thresh)
    dmp_set_tap_time                         0x08003541   Thumb Code    32  inv_mpu_dmp_motion_driver.o(i.dmp_set_tap_time)
    dmp_set_tap_time_multi                   0x08003561   Thumb Code    32  inv_mpu_dmp_motion_driver.o(i.dmp_set_tap_time_multi)
    fputc                                    0x08003581   Thumb Code    16  usart1.o(i.fputc)
    get_ms                                   0x08003641   Thumb Code     2  delay.o(i.get_ms)
    i2cRead                                  0x08003a2d   Thumb Code   112  ioi2c.o(i.i2cRead)
    i2cWrite                                 0x08003a9d   Thumb Code    84  ioi2c.o(i.i2cWrite)
    key                                      0x08003b39   Thumb Code   118  key.o(i.key)
    led_init                                 0x08003bc1   Thumb Code    30  led.o(i.led_init)
    main                                     0x08003be9   Thumb Code   134  main.o(i.main)
    mpu_configure_fifo                       0x08003c75   Thumb Code    78  inv_mpu.o(i.mpu_configure_fifo)
    mpu_get_accel_fsr                        0x08003cc9   Thumb Code    54  inv_mpu.o(i.mpu_get_accel_fsr)
    mpu_get_accel_sens                       0x08003d05   Thumb Code    62  inv_mpu.o(i.mpu_get_accel_sens)
    mpu_get_gyro_fsr                         0x08003d49   Thumb Code    48  inv_mpu.o(i.mpu_get_gyro_fsr)
    mpu_get_gyro_sens                        0x08003d7d   Thumb Code    44  inv_mpu.o(i.mpu_get_gyro_sens)
    mpu_get_lpf                              0x08003dbd   Thumb Code    52  inv_mpu.o(i.mpu_get_lpf)
    mpu_get_sample_rate                      0x08003df5   Thumb Code    22  inv_mpu.o(i.mpu_get_sample_rate)
    mpu_init                                 0x08003e11   Thumb Code   312  inv_mpu.o(i.mpu_init)
    mpu_load_firmware                        0x08003f99   Thumb Code   154  inv_mpu.o(i.mpu_load_firmware)
    mpu_lp_accel_mode                        0x08004039   Thumb Code   178  inv_mpu.o(i.mpu_lp_accel_mode)
    mpu_read_fifo_stream                     0x080040f1   Thumb Code   140  inv_mpu.o(i.mpu_read_fifo_stream)
    mpu_read_mem                             0x08004181   Thumb Code    80  inv_mpu.o(i.mpu_read_mem)
    mpu_reset_fifo                           0x080041d5   Thumb Code   330  inv_mpu.o(i.mpu_reset_fifo)
    mpu_run_self_test                        0x08004325   Thumb Code   234  inv_mpu.o(i.mpu_run_self_test)
    mpu_set_accel_fsr                        0x08004415   Thumb Code    98  inv_mpu.o(i.mpu_set_accel_fsr)
    mpu_set_bypass                           0x0800447d   Thumb Code   214  inv_mpu.o(i.mpu_set_bypass)
    mpu_set_dmp_state                        0x08004559   Thumb Code   114  inv_mpu.o(i.mpu_set_dmp_state)
    mpu_set_gyro_fsr                         0x080045d1   Thumb Code   104  inv_mpu.o(i.mpu_set_gyro_fsr)
    mpu_set_int_latched                      0x0800463d   Thumb Code    94  inv_mpu.o(i.mpu_set_int_latched)
    mpu_set_lpf                              0x080046a1   Thumb Code   102  inv_mpu.o(i.mpu_set_lpf)
    mpu_set_sample_rate                      0x0800470d   Thumb Code   124  inv_mpu.o(i.mpu_set_sample_rate)
    mpu_set_sensors                          0x0800478d   Thumb Code   178  inv_mpu.o(i.mpu_set_sensors)
    mpu_write_mem                            0x08004845   Thumb Code    80  inv_mpu.o(i.mpu_write_mem)
    myabs                                    0x08004899   Thumb Code     8  timer.o(i.myabs)
    oled_pow                                 0x080048a1   Thumb Code    20  oled.o(i.oled_pow)
    oled_show                                0x080048b5   Thumb Code   110  show.o(i.oled_show)
    sqrt                                     0x08004a3d   Thumb Code    78  sqrt.o(i.sqrt)
    uart3_init                               0x08004a8d   Thumb Code   180  usart3.o(i.uart3_init)
    usart1_init                              0x08004b51   Thumb Code   164  usart1.o(i.usart1_init)
    usart1_receive                           0x08004bfd   Thumb Code    18  usart1.o(i.usart1_receive)
    hw                                       0x08004c14   Data          12  inv_mpu.o(.constdata)
    reg                                      0x08004c20   Data          27  inv_mpu.o(.constdata)
    test                                     0x08004c3c   Data          40  inv_mpu.o(.constdata)
    oled_asc2_1206                           0x080058a8   Data        1140  oled.o(.constdata)
    oled_asc2_1608                           0x08005d1c   Data        1520  oled.o(.constdata)
    __mathlib_zero                           0x080063f8   Data           8  qnan.o(.constdata)
    Region$$Table$$Base                      0x08006400   Number         0  anon$$obj.o(Region$$Table)
    Region$$Table$$Limit                     0x08006420   Number         0  anon$$obj.o(Region$$Table)
    Flag_Stop                                0x20000000   Data           1  main.o(.data)
    Flag_Show                                0x20000001   Data           1  main.o(.data)
    Temperature                              0x20000004   Data           4  main.o(.data)
    Flag_Qian                                0x20000008   Data           1  main.o(.data)
    Flag_Hou                                 0x20000009   Data           1  main.o(.data)
    Flag_Left                                0x2000000a   Data           1  main.o(.data)
    Flag_Right                               0x2000000b   Data           1  main.o(.data)
    Moto1                                    0x2000000c   Data           4  main.o(.data)
    Moto2                                    0x20000010   Data           4  main.o(.data)
    Moto3                                    0x20000014   Data           4  main.o(.data)
    Moto4                                    0x20000018   Data           4  main.o(.data)
    TIM2CH1_CAPTURE_STA                      0x20000064   Data           1  timer.o(.data)
    TIM2CH1_CAPTURE_VAL                      0x20000066   Data           2  timer.o(.data)
    sensors                                  0x20000068   Data           2  mpu6050.o(.data)
    q0                                       0x2000006c   Data           4  mpu6050.o(.data)
    q1                                       0x20000070   Data           4  mpu6050.o(.data)
    q2                                       0x20000074   Data           4  mpu6050.o(.data)
    q3                                       0x20000078   Data           4  mpu6050.o(.data)
    Pitch                                    0x2000007c   Data           4  mpu6050.o(.data)
    Roll                                     0x20000080   Data           4  mpu6050.o(.data)
    Yaw                                      0x20000084   Data           4  mpu6050.o(.data)
    gyro                                     0x20000088   Data           6  mpu6050.o(.data)
    accel                                    0x2000008e   Data           6  mpu6050.o(.data)
    six_data_1                               0x200000a0   Data           4  usart3.o(.data)
    six_data_2                               0x200000a4   Data           4  usart3.o(.data)
    mode_data                                0x200000ac   Data           8  usart3.o(.data)
    i                                        0x200000bc   Data           1  show.o(.data)
    Send_Count                               0x200000bd   Data           1  show.o(.data)
    __stdout                                 0x200000c4   Data           4  stdout.o(.data)
    OLED_GRAM                                0x200000dc   Data        1024  oled.o(.bss)
    DataScope_OutPut_Buffer                  0x200004dc   Data          42  datascope_dp.o(.bss)
    __initial_sp                             0x20000908   Data           0  startup_stm32f10x_hd_vl.o(STACK)



==============================================================================

Memory Map of the image

  Image Entry point : 0x08000135

  Load Region LR_IROM1 (Base: 0x08000000, Size: 0x000064ec, Max: 0x00080000, ABSOLUTE)

    Execution Region ER_IROM1 (Base: 0x08000000, Size: 0x00006420, Max: 0x00080000, ABSOLUTE)

    Base Addr    Size         Type   Attr      Idx    E Section Name        Object

    0x08000000   0x00000134   Data   RO          860    RESET               startup_stm32f10x_hd_vl.o
    0x08000134   0x00000000   Code   RO         1975  * .ARM.Collect$$$$00000000  mc_w.l(entry.o)
    0x08000134   0x00000004   Code   RO         2294    .ARM.Collect$$$$00000001  mc_w.l(entry2.o)
    0x08000138   0x00000004   Code   RO         2297    .ARM.Collect$$$$00000004  mc_w.l(entry5.o)
    0x0800013c   0x00000000   Code   RO         2299    .ARM.Collect$$$$00000008  mc_w.l(entry7b.o)
    0x0800013c   0x00000000   Code   RO         2301    .ARM.Collect$$$$0000000A  mc_w.l(entry8b.o)
    0x0800013c   0x00000008   Code   RO         2302    .ARM.Collect$$$$0000000B  mc_w.l(entry9a.o)
    0x08000144   0x00000000   Code   RO         2304    .ARM.Collect$$$$0000000D  mc_w.l(entry10a.o)
    0x08000144   0x00000000   Code   RO         2306    .ARM.Collect$$$$0000000F  mc_w.l(entry11a.o)
    0x08000144   0x00000004   Code   RO         2295    .ARM.Collect$$$$00002712  mc_w.l(entry2.o)
    0x08000148   0x00000024   Code   RO          861    .text               startup_stm32f10x_hd_vl.o
    0x0800016c   0x0000005a   Code   RO         1978    .text               mc_w.l(ldiv.o)
    0x080001c6   0x00000024   Code   RO         1980    .text               mc_w.l(memseta.o)
    0x080001ea   0x0000001a   Code   RO         1982    .text               mc_w.l(memcmp.o)
    0x08000204   0x000000b0   Code   RO         2245    .text               mf_w.l(fadd.o)
    0x080002b4   0x0000006c   Code   RO         2247    .text               mf_w.l(fmul.o)
    0x08000320   0x00000080   Code   RO         2249    .text               mf_w.l(fdiv.o)
    0x080003a0   0x00000018   Code   RO         2251    .text               mf_w.l(fscalb.o)
    0x080003b8   0x0000014e   Code   RO         2253    .text               mf_w.l(dadd.o)
    0x08000506   0x000000e4   Code   RO         2255    .text               mf_w.l(dmul.o)
    0x080005ea   0x00000012   Code   RO         2257    .text               mf_w.l(fflti.o)
    0x080005fc   0x0000000a   Code   RO         2259    .text               mf_w.l(ffltui.o)
    0x08000606   0x00000032   Code   RO         2261    .text               mf_w.l(ffixi.o)
    0x08000638   0x00000028   Code   RO         2263    .text               mf_w.l(ffixui.o)
    0x08000660   0x00000026   Code   RO         2265    .text               mf_w.l(f2d.o)
    0x08000686   0x00000038   Code   RO         2267    .text               mf_w.l(d2f.o)
    0x080006be   0x0000002c   Code   RO         2309    .text               mc_w.l(uidiv.o)
    0x080006ea   0x00000062   Code   RO         2311    .text               mc_w.l(uldiv.o)
    0x0800074c   0x0000001e   Code   RO         2313    .text               mc_w.l(llshl.o)
    0x0800076a   0x00000024   Code   RO         2315    .text               mc_w.l(llsshr.o)
    0x0800078e   0x00000000   Code   RO         2324    .text               mc_w.l(iusefp.o)
    0x0800078e   0x0000006c   Code   RO         2325    .text               mf_w.l(fepilogue.o)
    0x080007fa   0x000000be   Code   RO         2327    .text               mf_w.l(depilogue.o)
    0x080008b8   0x000000de   Code   RO         2329    .text               mf_w.l(ddiv.o)
    0x08000996   0x0000002e   Code   RO         2331    .text               mf_w.l(dscalb.o)
    0x080009c4   0x00000024   Code   RO         2337    .text               mc_w.l(init.o)
    0x080009e8   0x00000020   Code   RO         2339    .text               mc_w.l(llushr.o)
    0x08000a08   0x000000a2   Code   RO         2341    .text               mf_w.l(dsqrt.o)
    0x08000aaa   0x00000002   Code   RO            1    i.BusFault_Handler  stm32f10x_it.o
    0x08000aac   0x00000220   Code   RO         1682    i.DMP_Init          mpu6050.o
    0x08000ccc   0x000000b0   Code   RO         1898    i.DataScope         show.o
    0x08000d7c   0x00000080   Code   RO         1868    i.DataScope_Data_Generate  datascope_dp.o
    0x08000dfc   0x00000054   Code   RO         1869    i.DataScope_Get_Channel_Data  datascope_dp.o
    0x08000e50   0x00000002   Code   RO            2    i.DebugMon_Handler  stm32f10x_it.o
    0x08000e52   0x00000014   Code   RO         1870    i.Float2Byte        datascope_dp.o
    0x08000e66   0x00000002   PAD
    0x08000e68   0x0000009e   Code   RO          419    i.GPIO_Init         stm32f10x_gpio.o
    0x08000f06   0x00000004   Code   RO          426    i.GPIO_ResetBits    stm32f10x_gpio.o
    0x08000f0a   0x00000004   Code   RO          427    i.GPIO_SetBits      stm32f10x_gpio.o
    0x08000f0e   0x00000002   Code   RO            3    i.HardFault_Handler  stm32f10x_it.o
    0x08000f10   0x0000003e   Code   RO         1425    i.I2C_ReadOneByte   ioi2c.o
    0x08000f4e   0x00000002   PAD
    0x08000f50   0x00000038   Code   RO         1426    i.IIC_Ack           ioi2c.o
    0x08000f88   0x0000002c   Code   RO         1427    i.IIC_Init          ioi2c.o
    0x08000fb4   0x00000038   Code   RO         1428    i.IIC_NAck          ioi2c.o
    0x08000fec   0x0000006c   Code   RO         1429    i.IIC_Read_Byte     ioi2c.o
    0x08001058   0x00000060   Code   RO         1430    i.IIC_Send_Byte     ioi2c.o
    0x080010b8   0x00000050   Code   RO         1431    i.IIC_Start         ioi2c.o
    0x08001108   0x00000038   Code   RO         1432    i.IIC_Stop          ioi2c.o
    0x08001140   0x00000058   Code   RO         1433    i.IIC_Wait_Ack      ioi2c.o
    0x08001198   0x0000000e   Code   RO         1434    i.IICreadByte       ioi2c.o
    0x080011a6   0x00000032   Code   RO         1436    i.IICwriteBit       ioi2c.o
    0x080011d8   0x00000054   Code   RO         1437    i.IICwriteBits      ioi2c.o
    0x0800122c   0x0000000c   Code   RO         1438    i.IICwriteByte      ioi2c.o
    0x08001238   0x00000044   Code   RO         1439    i.IICwriteBytes     ioi2c.o
    0x0800127c   0x00000028   Code   RO         1532    i.JTAG_Set          oled.o
    0x080012a4   0x00000028   Code   RO         1806    i.KEY_Init          key.o
    0x080012cc   0x00000024   Code   RO          865    i.Led_Flash         led.o
    0x080012f0   0x0000002a   Code   RO         1684    i.MPU6050_initialize  mpu6050.o
    0x0800131a   0x00000012   Code   RO         1686    i.MPU6050_setClockSource  mpu6050.o
    0x0800132c   0x00000012   Code   RO         1687    i.MPU6050_setFullScaleAccelRange  mpu6050.o
    0x0800133e   0x00000012   Code   RO         1688    i.MPU6050_setFullScaleGyroRange  mpu6050.o
    0x08001350   0x0000000c   Code   RO         1689    i.MPU6050_setI2CBypassEnabled  mpu6050.o
    0x0800135c   0x0000000c   Code   RO         1690    i.MPU6050_setI2CMasterModeEnabled  mpu6050.o
    0x08001368   0x0000000c   Code   RO         1691    i.MPU6050_setSleepEnabled  mpu6050.o
    0x08001374   0x00000032   Code   RO         1622    i.MY_NVIC_Init      timer.o
    0x080013a6   0x00000002   PAD
    0x080013a8   0x00000024   Code   RO         1623    i.MY_NVIC_PriorityGroupConfig  timer.o
    0x080013cc   0x00000002   Code   RO            4    i.MemManage_Handler  stm32f10x_it.o
    0x080013ce   0x00000002   PAD
    0x080013d0   0x000000a4   Code   RO         1624    i.MiniBalance_PWM_Init  timer.o
    0x08001474   0x00000002   Code   RO            5    i.NMI_Handler       stm32f10x_it.o
    0x08001476   0x00000002   PAD
    0x08001478   0x00000064   Code   RO          533    i.NVIC_Init         misc.o
    0x080014dc   0x0000002c   Code   RO         1533    i.OLED_Clear        oled.o
    0x08001508   0x0000001e   Code   RO         1534    i.OLED_Display_Off  oled.o
    0x08001526   0x0000001e   Code   RO         1535    i.OLED_Display_On   oled.o
    0x08001544   0x0000003c   Code   RO         1536    i.OLED_DrawPoint    oled.o
    0x08001580   0x00000160   Code   RO         1538    i.OLED_Init         oled.o
    0x080016e0   0x0000004c   Code   RO         1539    i.OLED_Refresh_Gram  oled.o
    0x0800172c   0x00000090   Code   RO         1540    i.OLED_ShowChar     oled.o
    0x080017bc   0x00000078   Code   RO         1541    i.OLED_ShowNumber   oled.o
    0x08001834   0x0000003e   Code   RO         1542    i.OLED_ShowString   oled.o
    0x08001872   0x00000002   PAD
    0x08001874   0x00000068   Code   RO         1543    i.OLED_WR_Byte      oled.o
    0x080018dc   0x00000002   Code   RO            6    i.PendSV_Handler    stm32f10x_it.o
    0x080018de   0x00000002   PAD
    0x080018e0   0x00000018   Code   RO          195    i.RCC_APB2PeriphClockCmd  stm32f10x_rcc.o
    0x080018f8   0x00000094   Code   RO          203    i.RCC_GetClocksFreq  stm32f10x_rcc.o
    0x0800198c   0x000001b0   Code   RO         1693    i.Read_DMP          mpu6050.o
    0x08001b3c   0x00000060   Code   RO         1694    i.Read_Temperature  mpu6050.o
    0x08001b9c   0x00000002   Code   RO            7    i.SVC_Handler       stm32f10x_it.o
    0x08001b9e   0x00000002   PAD
    0x08001ba0   0x000000a8   Code   RO          823    i.SetSysClockTo72   system_stm32f10x.o
    0x08001c48   0x00000034   Code   RO         1927    i.Set_Pwm           minibalance.o
    0x08001c7c   0x00000002   Code   RO            8    i.SysTick_Handler   stm32f10x_it.o
    0x08001c7e   0x00000002   PAD
    0x08001c80   0x00000050   Code   RO          825    i.SystemInit        system_stm32f10x.o
    0x08001cd0   0x0000011c   Code   RO         1928    i.TIM1_UP_TIM16_IRQHandler  minibalance.o
    0x08001dec   0x000000cc   Code   RO         1626    i.TIM3_Cap_Init     timer.o
    0x08001eb8   0x0000007c   Code   RO         1627    i.TIM3_IRQHandler   timer.o
    0x08001f34   0x00000048   Code   RO         1628    i.Timer1_Init       timer.o
    0x08001f7c   0x00000040   Code   RO         1929    i.Turn_Off          minibalance.o
    0x08001fbc   0x00000030   Code   RO          888    i.USART1_IRQHandler  usart1.o
    0x08001fec   0x0000010c   Code   RO         1785    i.USART3_IRQHandler  usart3.o
    0x080020f8   0x00000006   Code   RO          572    i.USART_ClearFlag   stm32f10x_usart.o
    0x080020fe   0x00000014   Code   RO          576    i.USART_Cmd         stm32f10x_usart.o
    0x08002112   0x0000003e   Code   RO          580    i.USART_GetITStatus  stm32f10x_usart.o
    0x08002150   0x00000030   Code   RO          582    i.USART_ITConfig    stm32f10x_usart.o
    0x08002180   0x000000b4   Code   RO          583    i.USART_Init        stm32f10x_usart.o
    0x08002234   0x00000002   Code   RO            9    i.UsageFault_Handler  stm32f10x_it.o
    0x08002236   0x00000002   PAD
    0x08002238   0x00000060   Code   RO         1930    i.Xianfu_Pwm        minibalance.o
    0x08002298   0x00000020   Code   RO         2029    i.__0printf$1       mc_w.l(printf1.o)
    0x080022b8   0x00000028   Code   RO         2281    i.__ARM_fpclassify  m_ws.l(fpclassify.o)
    0x080022e0   0x000000aa   Code   RO         2283    i.__kernel_poly     m_ws.l(poly.o)
    0x0800238a   0x00000002   PAD
    0x0800238c   0x00000010   Code   RO         2279    i.__mathlib_dbl_underflow  m_ws.l(dunder.o)
    0x0800239c   0x0000000e   Code   RO         2347    i.__scatterload_copy  mc_w.l(handlers.o)
    0x080023aa   0x00000002   Code   RO         2348    i.__scatterload_null  mc_w.l(handlers.o)
    0x080023ac   0x0000000e   Code   RO         2349    i.__scatterload_zeroinit  mc_w.l(handlers.o)
    0x080023ba   0x00000002   PAD
    0x080023bc   0x0000000c   Code   RO         2319    i.__set_errno       mc_w.l(errno.o)
    0x080023c8   0x00000154   Code   RO         2036    i._printf_core      mc_w.l(printf1.o)
    0x0800251c   0x00000080   Code   RO          974    i.accel_self_test   inv_mpu.o
    0x0800259c   0x0000027c   Code   RO         1958    i.asin              m_ws.l(asin.o)
    0x08002818   0x00000224   Code   RO         2270    i.atan              m_ws.l(atan.o)
    0x08002a3c   0x00000180   Code   RO         1968    i.atan2             m_ws.l(atan2.o)
    0x08002bbc   0x0000002c   Code   RO          942    i.delay_init        delay.o
    0x08002be8   0x00000028   Code   RO          943    i.delay_ms          delay.o
    0x08002c10   0x00000028   Code   RO          944    i.delay_us          delay.o
    0x08002c38   0x0000003a   Code   RO         1258    i.dmp_enable_6x_lp_quat  inv_mpu_dmp_motion_driver.o
    0x08002c72   0x00000002   PAD
    0x08002c74   0x000001d8   Code   RO         1259    i.dmp_enable_feature  inv_mpu_dmp_motion_driver.o
    0x08002e4c   0x00000044   Code   RO         1260    i.dmp_enable_gyro_cal  inv_mpu_dmp_motion_driver.o
    0x08002e90   0x0000003a   Code   RO         1261    i.dmp_enable_lp_quat  inv_mpu_dmp_motion_driver.o
    0x08002eca   0x00000002   PAD
    0x08002ecc   0x00000014   Code   RO         1266    i.dmp_load_motion_driver_firmware  inv_mpu_dmp_motion_driver.o
    0x08002ee0   0x00000144   Code   RO         1267    i.dmp_read_fifo     inv_mpu_dmp_motion_driver.o
    0x08003024   0x000000e0   Code   RO         1270    i.dmp_set_accel_bias  inv_mpu_dmp_motion_driver.o
    0x08003104   0x00000064   Code   RO         1271    i.dmp_set_fifo_rate  inv_mpu_dmp_motion_driver.o
    0x08003168   0x000000d0   Code   RO         1272    i.dmp_set_gyro_bias  inv_mpu_dmp_motion_driver.o
    0x08003238   0x0000010c   Code   RO         1274    i.dmp_set_orientation  inv_mpu_dmp_motion_driver.o
    0x08003344   0x00000030   Code   RO         1277    i.dmp_set_shake_reject_thresh  inv_mpu_dmp_motion_driver.o
    0x08003374   0x00000020   Code   RO         1278    i.dmp_set_shake_reject_time  inv_mpu_dmp_motion_driver.o
    0x08003394   0x00000020   Code   RO         1279    i.dmp_set_shake_reject_timeout  inv_mpu_dmp_motion_driver.o
    0x080033b4   0x00000040   Code   RO         1280    i.dmp_set_tap_axes  inv_mpu_dmp_motion_driver.o
    0x080033f4   0x00000022   Code   RO         1281    i.dmp_set_tap_count  inv_mpu_dmp_motion_driver.o
    0x08003416   0x00000002   PAD
    0x08003418   0x00000128   Code   RO         1282    i.dmp_set_tap_thresh  inv_mpu_dmp_motion_driver.o
    0x08003540   0x00000020   Code   RO         1283    i.dmp_set_tap_time  inv_mpu_dmp_motion_driver.o
    0x08003560   0x00000020   Code   RO         1284    i.dmp_set_tap_time_multi  inv_mpu_dmp_motion_driver.o
    0x08003580   0x00000014   Code   RO          892    i.fputc             usart1.o
    0x08003594   0x000000ac   Code   RO          975    i.get_accel_prod_shift  inv_mpu.o
    0x08003640   0x00000002   Code   RO          945    i.get_ms            delay.o
    0x08003642   0x00000002   PAD
    0x08003644   0x00000314   Code   RO          976    i.get_st_biases     inv_mpu.o
    0x08003958   0x000000d4   Code   RO          977    i.gyro_self_test    inv_mpu.o
    0x08003a2c   0x00000070   Code   RO         1440    i.i2cRead           ioi2c.o
    0x08003a9c   0x00000054   Code   RO         1441    i.i2cWrite          ioi2c.o
    0x08003af0   0x00000048   Code   RO         1695    i.inv_row_2_scale   mpu6050.o
    0x08003b38   0x00000088   Code   RO         1807    i.key               key.o
    0x08003bc0   0x00000028   Code   RO          866    i.led_init          led.o
    0x08003be8   0x0000008c   Code   RO           98    i.main              main.o
    0x08003c74   0x00000054   Code   RO          978    i.mpu_configure_fifo  inv_mpu.o
    0x08003cc8   0x0000003c   Code   RO          979    i.mpu_get_accel_fsr  inv_mpu.o
    0x08003d04   0x00000044   Code   RO          981    i.mpu_get_accel_sens  inv_mpu.o
    0x08003d48   0x00000034   Code   RO          987    i.mpu_get_gyro_fsr  inv_mpu.o
    0x08003d7c   0x00000040   Code   RO          989    i.mpu_get_gyro_sens  inv_mpu.o
    0x08003dbc   0x00000038   Code   RO          991    i.mpu_get_lpf       inv_mpu.o
    0x08003df4   0x0000001c   Code   RO          993    i.mpu_get_sample_rate  inv_mpu.o
    0x08003e10   0x00000188   Code   RO          995    i.mpu_init          inv_mpu.o
    0x08003f98   0x000000a0   Code   RO          996    i.mpu_load_firmware  inv_mpu.o
    0x08004038   0x000000b8   Code   RO          997    i.mpu_lp_accel_mode  inv_mpu.o
    0x080040f0   0x00000090   Code   RO         1000    i.mpu_read_fifo_stream  inv_mpu.o
    0x08004180   0x00000054   Code   RO         1001    i.mpu_read_mem      inv_mpu.o
    0x080041d4   0x00000150   Code   RO         1004    i.mpu_reset_fifo    inv_mpu.o
    0x08004324   0x000000f0   Code   RO         1005    i.mpu_run_self_test  inv_mpu.o
    0x08004414   0x00000068   Code   RO         1007    i.mpu_set_accel_fsr  inv_mpu.o
    0x0800447c   0x000000dc   Code   RO         1008    i.mpu_set_bypass    inv_mpu.o
    0x08004558   0x00000078   Code   RO         1010    i.mpu_set_dmp_state  inv_mpu.o
    0x080045d0   0x0000006c   Code   RO         1011    i.mpu_set_gyro_fsr  inv_mpu.o
    0x0800463c   0x00000064   Code   RO         1012    i.mpu_set_int_latched  inv_mpu.o
    0x080046a0   0x0000006c   Code   RO         1014    i.mpu_set_lpf       inv_mpu.o
    0x0800470c   0x00000080   Code   RO         1015    i.mpu_set_sample_rate  inv_mpu.o
    0x0800478c   0x000000b8   Code   RO         1016    i.mpu_set_sensors   inv_mpu.o
    0x08004844   0x00000054   Code   RO         1017    i.mpu_write_mem     inv_mpu.o
    0x08004898   0x00000008   Code   RO         1629    i.myabs             timer.o
    0x080048a0   0x00000014   Code   RO         1544    i.oled_pow          oled.o
    0x080048b4   0x0000008c   Code   RO         1899    i.oled_show         show.o
    0x08004940   0x000000a4   Code   RO         1696    i.run_self_test     mpu6050.o
    0x080049e4   0x00000058   Code   RO         1018    i.set_int_enable    inv_mpu.o
    0x08004a3c   0x0000004e   Code   RO         2287    i.sqrt              m_ws.l(sqrt.o)
    0x08004a8a   0x00000002   PAD
    0x08004a8c   0x000000c4   Code   RO         1786    i.uart3_init        usart3.o
    0x08004b50   0x000000ac   Code   RO          893    i.usart1_init       usart1.o
    0x08004bfc   0x00000018   Code   RO          894    i.usart1_receive    usart1.o
    0x08004c14   0x0000000c   Data   RO         1019    .constdata          inv_mpu.o
    0x08004c20   0x0000001b   Data   RO         1020    .constdata          inv_mpu.o
    0x08004c3b   0x00000001   PAD
    0x08004c3c   0x00000028   Data   RO         1021    .constdata          inv_mpu.o
    0x08004c64   0x0000004e   Data   RO         1022    .constdata          inv_mpu.o
    0x08004cb2   0x00000bf6   Data   RO         1286    .constdata          inv_mpu_dmp_motion_driver.o
    0x080058a8   0x00000a64   Data   RO         1546    .constdata          oled.o
    0x0800630c   0x00000004   PAD
    0x08006310   0x00000050   Data   RO         1959    .constdata          m_ws.l(asin.o)
    0x08006360   0x00000098   Data   RO         2271    .constdata          m_ws.l(atan.o)
    0x080063f8   0x00000008   Data   RO         2285    .constdata          m_ws.l(qnan.o)
    0x08006400   0x00000020   Data   RO         2345    Region$$Table       anon$$obj.o


    Execution Region RW_IRAM1 (Base: 0x20000000, Size: 0x00000908, Max: 0x00010000, ABSOLUTE)

    Base Addr    Size         Type   Attr      Idx    E Section Name        Object

    0x20000000   0x00000008   Data   RW           99    .data               main.o
    0x20000008   0x00000001   Data   RW          100    .data               main.o
    0x20000009   0x00000001   Data   RW          101    .data               main.o
    0x2000000a   0x00000001   Data   RW          102    .data               main.o
    0x2000000b   0x00000001   Data   RW          103    .data               main.o
    0x2000000c   0x00000004   Data   RW          104    .data               main.o
    0x20000010   0x00000004   Data   RW          105    .data               main.o
    0x20000014   0x00000004   Data   RW          106    .data               main.o
    0x20000018   0x00000004   Data   RW          107    .data               main.o
    0x2000001c   0x00000014   Data   RW          223    .data               stm32f10x_rcc.o
    0x20000030   0x00000004   Data   RW          867    .data               led.o
    0x20000034   0x00000004   Data   RW          946    .data               delay.o
    0x20000038   0x0000002c   Data   RW         1023    .data               inv_mpu.o
    0x20000064   0x00000004   Data   RW         1630    .data               timer.o
    0x20000068   0x00000035   Data   RW         1698    .data               mpu6050.o
    0x2000009d   0x00000003   PAD
    0x200000a0   0x00000014   Data   RW         1787    .data               usart3.o
    0x200000b4   0x00000006   Data   RW         1808    .data               key.o
    0x200000ba   0x00000002   PAD
    0x200000bc   0x00000008   Data   RW         1900    .data               show.o
    0x200000c4   0x00000004   Data   RW         2308    .data               mc_w.l(stdout.o)
    0x200000c8   0x00000004   Data   RW         2320    .data               mc_w.l(errno.o)
    0x200000cc   0x00000010   Zero   RW         1285    .bss                inv_mpu_dmp_motion_driver.o
    0x200000dc   0x00000400   Zero   RW         1545    .bss                oled.o
    0x200004dc   0x0000002a   Zero   RW         1871    .bss                datascope_dp.o
    0x20000506   0x00000002   PAD
    0x20000508   0x00000400   Zero   RW          858    STACK               startup_stm32f10x_hd_vl.o


==============================================================================

Image component sizes


      Code (inc. data)   RO Data    RW Data    ZI Data      Debug   Object Name

         0          0          0          0          0         32   core_cm3.o
       232         34          0          0         42       3210   datascope_dp.o
       126         14          0          4          0       2524   delay.o
      4496        278        157         44          0      26657   inv_mpu.o
      2370        116       3062          0         16      20350   inv_mpu_dmp_motion_driver.o
      1070         70          0          0          0      10901   ioi2c.o
       176         28          0          6          0       1245   key.o
        76         20          0          4          0       1079   led.o
       140          6          0         28          0       2429   main.o
       496         82          0          0          0       2677   minibalance.o
       100         10          0          0          0       3188   misc.o
      1440        394          0         53          0      24997   mpu6050.o
      1082         78       2660          0       1024       9308   oled.o
       316         50          0          8          0       1679   show.o
        36          8        308          0       1024        952   startup_stm32f10x_hd_vl.o
       166          0          0          0          0      20880   stm32f10x_gpio.o
        18          0          0          0          0     228690   stm32f10x_it.o
       172         24          0         20          0     216749   stm32f10x_rcc.o
       316          4          0          0          0      11776   stm32f10x_usart.o
       248         24          0          0          0       1805   system_stm32f10x.o
       658         68          0          4          0       5538   timer.o
       264         24          0          0          0       3098   usart1.o
       464         44          0         20          0       2475   usart3.o

    ----------------------------------------------------------------------
     14490       1376       6224        196       2108     602239   Object Totals
         0          0         32          0          0          0   (incl. Generated)
        28          0          5          5          2          0   (incl. Padding)

    ----------------------------------------------------------------------

      Code (inc. data)   RO Data    RW Data    ZI Data      Debug   Library Member Name

       636         52         80          0          0        168   asin.o
       548         70        152          0          0        124   atan.o
       384         38          0          0          0        144   atan2.o
        16          6          0          0          0         68   dunder.o
        40          0          0          0          0         68   fpclassify.o
       170          0          0          0          0         96   poly.o
         0          0          8          0          0          0   qnan.o
        78          0          0          0          0         84   sqrt.o
         0          0          0          0          0          0   entry.o
         0          0          0          0          0          0   entry10a.o
         0          0          0          0          0          0   entry11a.o
         8          4          0          0          0          0   entry2.o
         4          0          0          0          0          0   entry5.o
         0          0          0          0          0          0   entry7b.o
         0          0          0          0          0          0   entry8b.o
         8          4          0          0          0          0   entry9a.o
        12          6          0          4          0         68   errno.o
        30          0          0          0          0          0   handlers.o
        36          8          0          0          0         68   init.o
         0          0          0          0          0          0   iusefp.o
        90          0          0          0          0         84   ldiv.o
        30          0          0          0          0         68   llshl.o
        36          0          0          0          0         68   llsshr.o
        32          0          0          0          0         68   llushr.o
        26          0          0          0          0         80   memcmp.o
        36          0          0          0          0        108   memseta.o
       372         16          0          0          0        180   printf1.o
         0          0          0          4          0          0   stdout.o
        44          0          0          0          0         80   uidiv.o
        98          0          0          0          0         92   uldiv.o
        56          0          0          0          0         88   d2f.o
       334          0          0          0          0        144   dadd.o
       222          0          0          0          0        100   ddiv.o
       190          0          0          0          0        176   depilogue.o
       228          0          0          0          0         92   dmul.o
        46          0          0          0          0         80   dscalb.o
       162          0          0          0          0        100   dsqrt.o
        38          0          0          0          0         68   f2d.o
       176          0          0          0          0        140   fadd.o
       128          0          0          0          0         88   fdiv.o
       108          0          0          0          0        168   fepilogue.o
        50          0          0          0          0         68   ffixi.o
        40          0          0          0          0         68   ffixui.o
        18          0          0          0          0         68   fflti.o
        10          0          0          0          0         68   ffltui.o
       108          0          0          0          0         76   fmul.o
        24          0          0          0          0         68   fscalb.o

    ----------------------------------------------------------------------
      4678        204        240          8          0       3376   Library Totals
         6          0          0          0          0          0   (incl. Padding)

    ----------------------------------------------------------------------

      Code (inc. data)   RO Data    RW Data    ZI Data      Debug   Library Name

      1872        166        240          0          0        752   m_ws.l
       862         38          0          8          0        964   mc_w.l
      1938          0          0          0          0       1660   mf_w.l

    ----------------------------------------------------------------------
      4678        204        240          8          0       3376   Library Totals

    ----------------------------------------------------------------------

==============================================================================


      Code (inc. data)   RO Data    RW Data    ZI Data      Debug   

     19168       1580       6464        204       2108     596775   Grand Totals
     19168       1580       6464        204       2108     596775   ELF Image Totals
     19168       1580       6464        204          0          0   ROM Totals

==============================================================================

    Total RO  Size (Code + RO Data)                25632 (  25.03kB)
    Total RW  Size (RW Data + ZI Data)              2312 (   2.26kB)
    Total ROM Size (Code + RO Data + RW Data)      25836 (  25.23kB)

==============================================================================

